:1000000020C06FC543C036C641C040C03FC03EC0DF
:100010003DC027C53BC03AC039C038C037C036C024
:1000200035C034C033C04FC1C7C04DC1F9C04BC18A
:10003000F7C049C148C1F4C046C1F2C044C1780606
:10004000810611241FBECFE5D4E0DEBFCDBF10E096
:10005000A0E6B0E0E6EBF5E102C005900D92A43D0C
:10006000B107D9F711E0A4EDB0E001C01D92AE32A6
:10007000B107E1F710E0C0E4D0E003C02297FE0131
:1000800097D6CE33D107D1F735D489CAB9CF0895E1
:10009000A4C4FC0187EC90E09183808312821382D8
:1000A00084818E7F848389E0858381EB86838BE7DF
:1000B00087830895CF93DF93EC018B81982F9695DA
:1000C000969596958C8181708295880F807E892B7C
:1000D0008F5F8F73282F220F220F220F9B81977023
:1000E000922B9B83282F2295269527709C819E7F9B
:1000F000922B9C838C33B9F58B8187708B838C8199
:100100008E7F8C838A81982F9295969597708B819C
:100110008770880F880F880F892B8F5F8F73282F28
:100120002295220F207E9A819F71922B9A83282FED
:100130002695269526959B81987F922B9B838C33C1
:1001400091F48A818F718A838B81887F8B838A81E6
:100150008F5F8F719A81907E982B9A83883119F4E2
:100160008A81807E8A838A818F7109F0B0C08A81FA
:10017000982F9295969597708B818770880F880F2E
:10018000880F892B09F0A3C08B81982F969596959F
:1001900096958C8181708295880F807E892B09F0DD
:1001A00096C0EE81EF70F0E03197EC30F10508F089
:1001B0008CC0ED5EFF4F09942E8122952F703F81F8
:1001C0003295307F832F822B2F81922F92959F70B3
:1001D00083709927892B81F48E81982F92959F7037
:1001E0008F818295807F892B9F8192959F7064E695
:1001F00070E090D5892B91F48E81982F92959F7005
:100200008F818295807F892B9F8192959F7060E975
:1002100071E080D5892B11F02CE103C02DE101C0E4
:100220002EE18D818695869586958F5F8F71382F0B
:10023000330F330F330F9D819770932B9D8390E085
:1002400030E02817390794F58D8187708D838E8172
:100250008F5F8F709E81907F982B9E838D3030F1C1
:100260002E8122952F703F813295307F832F822BF4
:100270002F81922F92959F7001969F70382F329503
:10028000307F2E812F70232B2E83282F22952F70C5
:100290008F81807F822B8F839295907F8F818F704B
:1002A000892B8F838E81807F81608E838D818F5F8C
:1002B00087709D81987F982B9D83873041F48D8135
:1002C000887F8D8304C02FE1ACCF20E0AACFDF91DF
:1002D000CF910895FC01962F990F990F990F838163
:1002E0008770892B838365FB992790F964816E7FE2
:1002F000692B64830895FC01962F9F736295660FA6
:10030000607E82818F71682B6283292F26952695C6
:1003100026959381987F922B93830895FC016F71AA
:100320009281907E692B62830895FC01938196955A
:1003300096959695848181708295880F807E892B11
:100340000895FC01928192959695977083818770AC
:10035000880F880F880F892B0895FC0182818F7187
:100360000895FC016623B1F12381822F869586953D
:100370008695248121702295220F207E282B828150
:10038000982F92959695977083818770880F880F24
:10039000880F892B92819F711F921F921F922F931A
:1003A0001F921F921F928F931F921F921F929F93D3
:1003B00084E790E09F938F9385EE90E09F938F93D7
:1003C00028D68DB79EB740960FB6F8949EBF0FBE45
:1003D0008DBF26C08281982F9295969597708381C4
:1003E0008770880F880F880F892B92819F711F92C9
:1003F0001F921F928F931F921F921F929F938AE7C3
:1004000090E09F938F9385EE90E09F938F9301D61A
:100410008DB79EB70C960FB6F8949EBF0FBE8DBFDA
:1004200085EE90E00895FC0167709581987F692BB7
:1004300065830895FC01660F660F660F95819770BE
:10044000692B65830895FC016F709681907F692BFD
:1004500066830895FC017F70962F9295907F868128
:100460008F70892B8683962F92959F708781807FCE
:10047000892B8783972F9295907F87818F70892B07
:1004800087830895FC01858187700895FC0185812B
:100490008695869586950895FC0186818F700895CE
:1004A000FC012681822F82958F7037813295307FB3
:1004B0009781832B92959F700895CF93DF93CDB74B
:1004C000DEB72E970FB6F894DEBF0FBECDBF2EE07D
:1004D000E6E6F0E0DE01119601900D922A95E1F733
:1004E000FC0146816623B1F142954F7057815295C8
:1004F000507F252F242B4781342F32953F70668102
:100500006F70558156955695569545814770C9012E
:100510001F921F929F938F931F921F921F926F9310
:100520001F921F921F925F93CE010196840F911D1F
:10053000840F911DFC01329781818F9380818F936D
:1005400086E890E09F938F9384ED90E09F938F9344
:1005500060D524C04F703581369536953695258106
:1005600027701F921F921F924F931F921F921F92EC
:100570003F93CE010196820F911D820F911DFC01C8
:10058000329781818F9380818F938DE990E09F9343
:100590008F9384ED90E09F938F933BD50FB6F894A3
:1005A000DEBF0FBECDBF84ED90E02E960FB6F8945F
:1005B000DEBF0FBECDBFDF91CF9108952FEC30E0AD
:1005C000FC013183208363CDCF93DF93EC01F6DF11
:1005D000CE01DF91CF9101C2CF93DF93EC0159DDC2
:1005E0008FEC90E099838883188619861A861B867B
:1005F0001C861D861E861F86DF91CF910895DF928F
:10060000EF92FF920F931F93CF93DF93FC01062F7E
:10061000603408F043C0D084E184F2841385D4852B
:10062000C585B685A78521E030E04423C1F040E0D0
:1006300050E060E070E080E090E07FD3D22AE32ACF
:10064000F42A152BD62BC72B8B2B9A2BD086E18621
:10065000F2861387D487C587868797871FC040E0B7
:1006600050E060E070E080E090E067D32095309546
:10067000409550956095709580959095D222E32293
:10068000F4221523D623C723B823A923D086E186D5
:10069000F2861387D487C587B687A787DF91CF9166
:1006A0001F910F91FF90EF90DF900895FC019285CC
:1006B000292F22952695277083858170880F880FB2
:1006C000880F982F922B83858E70282F220F220F50
:1006D000820F890F8F73282F2295220F207E9281FF
:1006E0009F71922B92838695869586959381987FAC
:1006F000892B83832385322F3295369537708485F5
:100700008170880F880F880F282F232B848586708F
:10071000982F990F990F890F820F982F9F718281BF
:10072000807E892B8283858586958695982F977004
:100730008581887F892B8583848582958F709585B7
:1007400093702AE0929F800D1124982F990F990F92
:10075000990F85818770892B85832585322F329566
:100760003695377086858170880F880F880F282FFF
:10077000232B86858270982F990F990F890F820FEE
:10078000982F9F708681807F892B868386858695AA
:1007900086958F702685922F929596959695937053
:1007A00027852370220F220F292B90E03AE0239F08
:1007B000800D911D11248053984F382F3295307F32
:1007C00026812F70232B2683282F22952F70878137
:1007D000807F822B87839295907F87818F70892B72
:1007E0008783662341F0108611861286138614864D
:1007F00015861686178681E00895AC9A8CE18A9555
:10080000F1F7AC98089595B3907F95BB95B3829519
:100810008F70982B95BBF1CFCF93C82FAD9AF3DF94
:100820008C2F8295807FEFDF80E48A95F1F70000BE
:10083000CF910895CF93C82FAD98E5DF8C2F829587
:10084000807FE1DF8BE38A95F1F7CF91089581E016
:10085000F1DF81E398E00197F1F7089584B38F63A6
:1008600084BB85B3807C85BB80E79DE30197F1F76E
:1008700000C080E3C8DF8AE794E10197F1F700C088
:100880000000BBDF88E194E00197F1F700C0B5DF1D
:1008900088E194E00197F1F700C080E2B4DF8AE7D5
:1008A00094E10197F1F700C0000088E2C3DF8CE01B
:1008B000C1DF86E0BFDFCBCF623059F018F4613082
:1008C00031F00895633039F0643039F0089580587C
:1008D00005C0805403C0805701C08053ABCFCF9375
:1008E000DF93EC018991882311F096DFFBCFDF9134
:1008F000CF91089573D0909A78948091080185FFE4
:1009000034C0809108018F7D809308018AE091E0D6
:1009100024DD682F82E291E001DD8AE091E011DDC3
:10092000682F82E291E0E7DC8AE091E0AFDD682F9A
:1009300082E291E07FDD8AE091E0A4DD682F82E22F
:1009400091E071DD8AE091E0A7DD682F82E291E01D
:100950007ADD8AE091E0A4DDBC0182E291E07ADDFB
:10096000809108018160809308018091080180FFD7
:10097000C4CF61E080E0A0DF61E082E291E09DDD34
:10098000AEDF62E080E098DF61E082E291E0E9DCE6
:10099000A6DF8091080186FF1AC062E08FE08CDF3D
:1009A0008091080184FF07C0809108018F7E8093A9
:1009B000080180E206C080910801806180930801EF
:1009C0008EE22ADF809108018F7B8093080180915D
:1009D00008018E7F8093080190CF83C281B38F710D
:1009E00081BBB89882B3806E82BBC09AB99AC19815
:1009F000BA9A88B3847088BB889A909881EA8FBD30
:100A000089E08EBD8FEF90E09BBD8ABD84E690E0CB
:100A100099BD88BD2CEC8CEC9CE02150804090402E
:100A2000E1F700C01BBC1ABC19BC18BC8FB58F7590
:100A30008FBD14DF0CDF8A9885B58E6085BD89B7C0
:100A4000806889BF14BC8AE583BD85B7836085BF94
:100A50008BB780648BBF84E083BF89B7816089BF17
:100A600008951F920F920FB60F9211242F933F9368
:100A70004F935F936F937F938F939F93AF93BF93A6
:100A8000EF93FF93809109018F5F80930901803478
:100A9000B8F01092090182E291E00CDB82E291E071
:100AA0005CDC811108C082E291E04BDC811103C063
:100AB00082E291E03ADC8091080181608093080134
:100AC000FF91EF91BF91AF919F918F917F916F9126
:100AD0005F914F913F912F910F900FBE0F901F90FC
:100AE00018951F920F920FB60F9211242F933F93D8
:100AF0004F935F936F937F938F939F93AF93BF9326
:100B0000EF93FF938BB78F7B8BBF8091080181FFA1
:100B10006FC07091F8006091F9005091FA00409117
:100B2000FB003091FC002091FD009091FE0080912F
:100B3000FF00709300016093010150930201409304
:100B400003013093040120930501909306018093E3
:100B500007011092F8001092F9001092FA0010921A
:100B6000FB001092FC001092FD001092FE0010920B
:100B7000FF00809108018D7F8093080185B7836015
:100B800085BF809108018064809308012091000155
:100B900030910101409102015091030160910401E3
:100BA0007091050180910601909107012A3F31055E
:100BB00041055105610571058105910509F008F4AC
:100BC00045C08091F6008B3381F4809108018062EA
:100BD0008093080161E08AE091E068DD10920901EC
:100BE00012BE60E082E291E075DB1092F6002EC04A
:100BF0008091F8009091F9009091FA009091FB009B
:100C00009091FC009091FD009091FE009091FF006A
:100C10008093F7008091F7006091F6008F3110F01B
:100C200041E001C040E08AE091E0E9DC8091F6001B
:100C30008F5F8093F60080910801826080930801A5
:100C400085B7826085BF85B78E7F85BF8BB780648F
:100C50008BBFFF91EF91BF91AF919F918F917F914A
:100C60006F915F914F913F912F910F900FBE0F9019
:100C70001F9018951F920F920FB60F9211242F9369
:100C80003F934F935F936F937F938F939F93AF9314
:100C90002091F8003091F9004091FA005091FB004A
:100CA0006091FC007091FD008091FE009091FF002A
:100CB000A1E05CD02093F8003093F9004093FA0053
:100CC0005093FB006093FC007093FD008093FE0046
:100CD0009093FF00AF919F918F917F916F915F9162
:100CE0004F913F912F910F900FBE0F901F9018952D
:100CF00082E291E0CED98AE191E0CBD98AE091E01D
:100D00006BCC8AE091E05ADC8AE191E0C0D982E2C2
:100D100091E0BDC997FB072E16F4009406D077FD2D
:100D200008D030D007FC05D03EF4909581959F4FB8
:100D30000895709561957F4F08950F93083090F056
:100D4000982F872F762F652F542F432F322F22274E
:100D50000850F4CF220F331F441F551F661F771F03
:100D6000881F991F0A95B2F70F9108950024A7FDD7
:100D700000942A0F301D401D501D601D701D801DE8
:100D8000901D0895AA1BBB1B51E107C0AA1FBB1FE2
:100D9000A617B70710F0A61BB70B881F991F5A9507
:100DA000A9F780959095BC01CD010895EE0FFF1F26
:100DB0000590F491E02D0994CF93DF938230910553
:100DC00010F482E090E0E0912C01F0912D0120E000
:100DD00030E0C0E0D0E0309711F1408151814817F8
:100DE0005907C0F04817590761F482819381209711
:100DF00019F09B838A832BC090932D0180932C0143
:100E000026C02115310519F04217530718F49A012D
:100E1000BE01DF01EF010280F381E02DDCCF21155F
:100E2000310509F1281B390B2430310590F4129655
:100E30008D919C9113976115710521F0FB019383AE
:100E4000828304C090932D0180932C01FD01329682
:100E500044C0FD01E20FF31F8193919322503109A9
:100E60002D933C933AC020912A0130912B01232BE2
:100E700041F4209162003091630030932B01209364
:100E80002A0120916000309161002115310541F463
:100E90002DB73EB74091640050916500241B350B7F
:100EA000E0912A01F0912B01E217F307A0F42E1B29
:100EB0003F0B2817390778F0AC014E5F5F4F2417BE
:100EC000350748F04E0F5F1F50932B0140932A01C6
:100ED0008193919302C0E0E0F0E0CF01DF91CF91E8
:100EE00008950F931F93CF93DF93009709F48CC05D
:100EF000FC0132971382128200912C0110912D0176
:100F00000115110581F420813181820F931F2091F9
:100F10002A0130912B012817390779F5F0932B011D
:100F2000E0932A0171C0D80140E050E0AE17BF073E
:100F300050F412962D913C911397AD012115310576
:100F400009F1D901F3CF9D01DA0133832283608156
:100F50007181860F971F8217930769F4EC0128812E
:100F60003981260F371F2E5F3F4F318320838A81BF
:100F70009B8193838283452B29F4F0932D01E09389
:100F80002C0142C01396FC93EE931297ED01499108
:100F900059919E01240F351FE217F30771F48081E8
:100FA0009181840F951F029611969C938E93828156
:100FB000938113969C938E931297E0E0F0E0D80112
:100FC00012968D919C911397009719F0F8018C015E
:100FD000F6CF8D919C9198012E5F3F4F820F931F0A
:100FE00020912A0130912B012817390769F4309795
:100FF00029F410922D0110922C0102C0138212824A
:1010000010932B0100932A01DF91CF911F910F9133
:101010000895AEE0B0E0EEE0F8E098C20D891E89D8
:1010200086E08C831A8309838FEF9FE79E838D83ED
:10103000AE01475E5F4F6F89788DCE01019609D072
:101040002F813885F801E20FF31F10822E96E4E01D
:1010500099C2ACE0B0E0EEE2F8E06AC27C016B015C
:101060008A01FC0117821682838181FFB0C1CE0103
:1010700001964C01F7019381F60193FD859193FF51
:1010800081916F01882309F49EC1853239F493FD63
:10109000859193FF81916F01853221F4B70190E032
:1010A000B1D1E8CF512C312C20E02032A0F48B328A
:1010B00069F030F4803259F0833269F420612CC039
:1010C0008D3239F0803339F4216026C022602460EB
:1010D00023C0286021C027FD27C030ED380F3A30EB
:1010E00078F426FF06C0FAE05F9E300D1124532EDF
:1010F00013C08AE0389E300D1124332E20620CC0BC
:101100008E3221F426FD5FC1206406C08C3611F4B6
:10111000206802C0883641F4F60193FD859193FF63
:1011200081916F018111C1CF982F9F7D955493308C
:1011300028F40C5F1F4FFFE3F9830DC0833631F0B5
:10114000833771F0833509F057C021C0F8018081E1
:1011500089830E5F1F4F44244394512C540114C0C3
:101160003801F2E06F0E711CF801A080B18026FFFB
:1011700003C0652D70E002C06FEF7FEFC5012C87C3
:1011800036D12C0183012C852F77222E16C03801F1
:10119000F2E06F0E711CF801A080B18026FF03C041
:1011A000652D70E002C06FEF7FEFC5012C8714D171
:1011B0002C012C852068222E830123FC19C0832D4D
:1011C00090E048165906A0F4B70180E290E01AD1E9
:1011D0003A94F5CFF50127FC859127FE81915F01B7
:1011E000B70190E00FD131103A94F1E04F1A510855
:1011F0004114510479F7DEC0843611F0893631F597
:10120000F80127FF07C060817181828193810C5FA3
:101210001F4F08C060817181882777FD8095982FC6
:101220000E5F1F4F2F76722E97FF09C09095809505
:10123000709561957F4F8F4F9F4F2068722E2AE0E7
:1012400030E0A40117D1A82EA81843C0853729F48F
:101250002F7EB22E2AE030E025C0F22FF97FBF2E7C
:101260008F36C1F018F4883579F0ADC0803719F0A9
:10127000883721F0A8C02F2F2061B22EB4FE0DC0F8
:101280008B2D8460B82E09C024FF0AC09F2F966062
:10129000B92E06C028E030E005C020E130E002C0F1
:1012A00020E132E0F801B7FE07C0608171818281E0
:1012B00093810C5F1F4F06C06081718180E090E0D8
:1012C0000E5F1F4FA401D6D0A82EA818FB2DFF77C4
:1012D0007F2E76FE0BC0372D3E7FA51450F474FE92
:1012E0000AC072FC08C0372D3E7E05C0BA2C372DCF
:1012F00003C0BA2C01C0B52C34FF0DC0FE01EA0DAD
:10130000F11D8081803311F4397E09C032FF06C09F
:10131000B394B39404C0832F867809F0B39433FD5B
:1013200012C030FF06C05A2CB31418F4530C5B18CB
:10133000B32CB31460F4B70180E290E03C8762D034
:10134000B3943C85F6CFB31410F43B1801C0312C94
:1013500034FF11C0B70180E390E03C8753D03C8557
:1013600032FF16C031FD03C088E790E002C088E577
:1013700090E0B7010CC0832F867851F031FF02C096
:101380008BE201C080E237FD8DE2B70190E03AD0F8
:10139000A51430F4B70180E390E034D05A94F8CF2C
:1013A000AA94F401EA0DF11D8081B70190E02AD0E2
:1013B000A110F6CF332009F45DCEB70180E290E0B2
:1013C00021D03A94F7CFF7018681978102C08FEF41
:1013D0009FEF2C96E2E1C8C0FC010590615070407F
:1013E0000110D8F7809590958E0F9F1F0895FC01EE
:1013F0006150704001900110D8F7809590958E0F44
:101400009F1F08950F931F93CF93DF93FB012381B9
:1014100021FD03C08FEF9FEF28C022FF16C0468139
:101420005781248135814217530744F4A081B1814B
:101430009D012F5F3F4F318320838C93268137811D
:101440002F5F3F4F3783268310C0EB01092F182FE2
:101450000084F185E02D0995892BE1F68E819F812D
:1014600001969F838E83812F902FDF91CF911F91C3
:101470000F910895FA01AA27283051F1203181F106
:10148000E8946F936E7F6E5F7F4F8F4F9F4FAF4F8C
:10149000B1E03ED0B4E03CD0670F781F891F9A1F9F
:1014A000A11D680F791F8A1F911DA11D6A0F711D53
:1014B000811D911DA11D20D009F468943F912AE05F
:1014C000269F11243019305D3193DEF6CF01089547
:1014D000462F4770405D4193B3E00FD0C9F7F6CF78
:1014E000462F4F70405D4A3318F0495D31FD405240
:1014F000419302D0A9F7EACFB4E0A69597958795D6
:1015000077956795BA95C9F70097610571050895B4
:101510009B01AC010A2E0694579547953795279560
:10152000BA95C9F7620F731F841F951FA01D0895F8
:101530002F923F924F925F926F927F928F929F92E3
:10154000AF92BF92CF92DF92EF92FF920F931F93D1
:10155000CF93DF93CDB7DEB7CA1BDB0B0FB6F89482
:10156000DEBF0FBECDBF09942A88398848885F84C2
:101570006E847D848C849B84AA84B984C884DF8033
:10158000EE80FD800C811B81AA81B981CE0FD11D17
:101590000FB6F894DEBF0FBECDBFED01089510E089
:1015A000C0E4D0E003C0FE0103DC2296C234D107C0
:0615B000D1F7F894FFCF13
:1015B60000002E012000AE00B100B400B700BA0052
:1015C600BD00C000252E326C753A252E326C753A58
:1015D600252E326C75002573202D202530326C7532
:1015E6002E2530326C752E2530346C75002573200F
:1015F6002D202530326C752E2530326C75004D6FDE
:10160600004469004D6900446F0046720053610052
:10161600536F00000000004700480000000000DE95
:0416260002E40200D8
:00000001FF
