:1000000020C0A3C443C0A7C541C040C03FC03EC03C
:100010003DC054C43BC03AC039C038C037C036C0F8
:1000200035C034C033C04EC051C04CC04DC04AC0B2
:100030004BC048C047C048C045C046C043C0E905A2
:10004000F50511241FBECFE5D4E0DEBFCDBF10E023
:10005000A0E6B0E0EEEAF4E102C005900D92AE3900
:10006000B107D9F710E0AEE9B0E001C01D92A83E9B
:10007000B107E1F710E0C0E4D0E003C02297FE0131
:1000800013D6CE33D107D1F7D1D305CAB9CF08954E
:10009000D1C3FC018AE690E09183808389E082836A
:1000A00081EB83838BE784830895CF93DF93EC0107
:1000B000EB81EF70F0E03197EC30F105C8F5ED5EC3
:1000C000FF4F09942FE137C02EE135C02B812295D7
:1000D0002F703C813295307F832F822B2C81922F81
:1000E00092959F7083709927892B81F48B81982F2B
:1000F00092959F708C818295807F892B9C819295AF
:100100009F7064E670E07DD5892BA1F48B81982FD8
:1001100092959F708C818295807F892B9C8192958E
:100120009F7060E971E06DD5892B21F02CE103C04F
:1001300020E001C02DE18A818695869586958F5FA6
:100140008F71382F330F330F330F9A819770932BA2
:100150009A8390E030E02817390794F58A818770F8
:100160008A838B818F5F8F709B81907F982B9B837D
:100170008D3030F12B8122952F703C813295307F6C
:10018000832F822B2C81922F92959F7001969F70C6
:10019000382F3295307F2B812F70232B2B83282FE4
:1001A00022952F708C81807F822B8C839295907FFB
:1001B0008C818F70892B8C838B81807F81608B8376
:1001C0008A818F5F87709A81987F982B9A83873076
:1001D00019F48A81887F8A83DF91CF910895CF9324
:1001E000DF93EC0182E790E0998388838AE790E0CF
:1001F0009E838D83CE0105964ADFCE01DF91CF919C
:10020000A4C10597ECCFCF93DF93EC01E8DFCE01DB
:10021000DF91CF910FC30597F6CFCF93DF93EC011A
:1002200096D1CE01059635DF82E790E099838883E9
:100230008AE790E09E838D831A861B861C861D8626
:100240001E861F86188A198ADF91CF910895CF9351
:10025000DF93FC01D285C385B485A5857685578556
:10026000442301F14089918921E030E002C0220F4E
:10027000331F6A95E2F7832F880F880BD22BC32B8D
:10028000B82BA82B682F672B382F352B282F242B22
:10029000892BD287C387B487A58766873787208B4A
:1002A000818B21C04089318981E090E002C0880FB4
:1002B000991F6A95E2F780959095292F220F220BBE
:1002C000D823C923B223A223622F6723922F952319
:1002D000822F84232323D287C387B487A587668789
:1002E0009787808B218BDF91CF9108952F923F923A
:1002F0004F925F926F927F928F929F92AF92BF9236
:10030000CF92DF92EF92FF920F931F93CF93DF93E1
:10031000FC01C62FB284C384D484E584F684178597
:10032000D089B18922853385448555856685778551
:100330008089918909E17AD4A22FA7702B2D3C2DB9
:100340004D2D5E2D6F2D712F8D2F9B2F05E16ED4BE
:100350002F708AE0A89F200D11242F73922F929561
:10036000990F907E82818F71892B828326952695A5
:1003700026958381887F282B2383B284C384D484E9
:10038000E584F6841785D089B18922853385448533
:100390005585668577858089918901E247D4A22FAA
:1003A000A3702B2D3C2D4D2D5E2D6F2D712F8D2F7C
:1003B0009B2F0DE13BD42F708AE0A89F200D1124C4
:1003C000822F8F712281207E282B228322853385E4
:1003D0004485558566857785808991890AE226D48A
:1003E00027708781887F282B2783B284C384D48495
:1003F000E584F6841785D089B189228533854485C3
:100400005585668577858089918908E20FD4A22F6A
:10041000A3702B2D3C2D4D2D5E2D6F2D712F8D2F0B
:100420009B2F04E203D42F708AE0A89F200D112493
:10043000822F880F880F880F27812770282B27830A
:10044000A284B384C484D584E684F7841089D189D6
:100450002285338544855585668577858089918990
:1004600001E3E4D3A22FA170AA0FBA2FBB0FBB0FD9
:10047000AB0F9501A601B701812F9D2F0DE2D6D3B9
:10048000A20F2A2F2F70A085A07FA22BA0872285E4
:100490003385448555856685778580899189228451
:1004A000338444845584668477841089D18902E337
:1004B000BDD3D901AF70BB27A053B84F9101A201A2
:1004C000B301812F9D2F06E3B1D349018FE088222C
:1004D00099242AE0289DC001299D900D1124A80F80
:1004E000B91FBF709A2F9295907F80858F70892B4E
:1004F00080879A2F92959F708185807F892B818735
:100500009B2F9295907F81858F70892B8187CC233B
:1005100041F0128613861486158616861786108A71
:10052000118A81E0DF91CF911F910F91FF90EF90A1
:10053000DF90CF90BF90AF909F908F907F906F9003
:100540005F904F903F902F900895089573C1FC01E4
:1005500084E990E0918380831282138284818E7F6C
:1005600084830895FC018381982F9695969596959E
:10057000848181708295880F807E892B8F5F8F7335
:10058000282F220F220F220F93819770922B938393
:10059000282F22952695277094819E7F922B9483F5
:1005A0008C33B9F583818770838384818E7F8483C4
:1005B0008281982F92959695977083818770880F86
:1005C000880F880F892B8F5F8F73282F2295220F1A
:1005D000207E92819F71922B9283282F26952695BB
:1005E00026959381987F922B93838C3391F482810B
:1005F0008F7182838381887F838382818F5F8F71F4
:100600009281907E982B9283883119F48281807E2A
:1006100082830895FC01962F990F990F990F83817A
:100620008770892B838365FB992790F964816E7F9E
:10063000692B64830895FC01938196959695969510
:10064000848181708295880F807E892B0895FC01BA
:10065000928192959695977083818770880F880F05
:10066000880F892B0895FC0182818F710895FC0108
:100670006623B1F12381822F869586958695248104
:1006800021702295220F207E282B8281982F92950F
:100690009695977083818770880F880F880F892BB4
:1006A00092819F711F921F921F922F931F921F92F0
:1006B0001F928F931F921F921F929F938EE790E03D
:1006C0009F938F938EE990E09F938F931ED48DB765
:1006D0009EB740960FB6F8949EBF0FBE8DBF26C042
:1006E0008281982F92959695977083818770880F55
:1006F000880F880F892B92819F711F921F921F92E2
:100700008F931F921F921F929F9384E890E09F9374
:100710008F938EE990E09F938F93F7D38DB79EB719
:100720000C960FB6F8949EBF0FBE8DBF8EE990E079
:100730000895AC9A8CE18A95F1F7AC98089595B339
:10074000907F95BB95B382958F70982B95BBF1CF19
:10075000CF93C82FAD9AF3DF8C2F8295807FEFDF88
:1007600080E48A95F1F70000CF910895CF93C82FC8
:10077000AD98E5DF8C2F8295807FE1DF8BE38A9552
:10078000F1F7CF91089581E0F1DF81E398E00197DF
:10079000F1F7089584B38F6384BB85B3807C85BBF8
:1007A00080E79DE30197F1F700C080E3C8DF8AE7A7
:1007B00094E10197F1F700C00000BBDF88E194E00D
:1007C0000197F1F700C0B5DF88E194E00197F1F7F8
:1007D00000C080E2B4DF8AE794E10197F1F700C03E
:1007E000000088E2C3DF8CE0C1DF86E0BFDFCBCF53
:1007F000623059F018F4613031F00895633039F007
:10080000643039F00895805805C0805403C0805783
:1008100001C08053ABCFCF93DF93EC018991882344
:1008200011F096DFFBCFDF91CF91089504D0909A1D
:100830007894FFCFD2C281B38F7181BBB89882B355
:10084000806E82BBC09AB99AC198BA9A88B38470F4
:1008500088BB889A909881EA8FBD89E08EBD8FEF22
:1008600090E09BBD8ABD84E690E099BD88BD2CECEC
:100870008CEC9CE0215080409040E1F700C01BBC14
:100880001ABC19BC18BC8FB58F758FBD83DF7BDF99
:100890008A9885B58E6085BD89B7806889BF14BC8C
:1008A0008AE583BD85B7836085BF8BB780648BBFC6
:1008B00084E083BF89B7816089BF08951F920F923A
:1008C0000FB60F9211242F933F934F935F936F9323
:1008D0007F938F939F93AF93BF93EF93FF938091F9
:1008E000C2008F5F8093C2008034F0F01092C2008B
:1008F0008FED90E037DE8FED90E0B5DE81110AC01C
:100900008FED90E0A4DE811105C08FED90E093DEC5
:10091000882331F08091C10081608093C10004C0C0
:1009200083EC90E0C2DBF6CFFF91EF91BF91AF91E6
:100930009F918F917F916F915F914F913F912F91F7
:100940000F900FBE0F901F9018951F920F920FB629
:100950000F9211240F931F932F933F934F935F9305
:100960006F937F938F939F93AF93BF93EF93FF9377
:10097000CF93DF9300D000D0CDB7DEB78BB78F7B9E
:100980008BBF8091C10081FF9CC07091B1006091CC
:10099000B2005091B3004091B4003091B500209165
:1009A000B6009091B7008091B8007093B900609341
:1009B000BA005093BB004093BC003093BD0020931D
:1009C000BE009093BF008093C0001092B1001092BF
:1009D000B2001092B3001092B4001092B5001092C1
:1009E000B6001092B7001092B8008091C1008D7FC0
:1009F0008093C10085B7836085BF62E08FE0F8DE39
:100A00008091C10084FF07C08091C1008F7E8093D8
:100A1000C10080E206C08091C10080618093C10066
:100A20008EE296DE8091AF001F928F9388E990E06E
:100A30009F938F938E010F5F1F4F1F930F9365D26C
:100A400062E08CE0D5DEC801E6DE2091B90030918D
:100A5000BA004091BB005091BC006091BD00709104
:100A6000BE008091BF009091C0000F900F900F903A
:100A70000F900F900F902A3F3105410551056105F8
:100A800071058105910509F008F449C08091C10004
:100A900080628093C10061E088EC90E027DC62E036
:100AA00080E0A6DE61E088EC90E0E1DDB4DE10924B
:100AB000C20012BE60E08FED90E0ACDD1092AF009E
:100AC0002EC08091B1009091B2009091B3009091AE
:100AD000B4009091B5009091B6009091B7009091BC
:100AE000B8008093B0008091B0006091AF008F316A
:100AF00010F041E001C040E088EC90E0A8DB80917C
:100B0000AF008F5F8093AF008091C10082608093BF
:100B1000C10085B7826085BF85B78E7F85BF8BB7E3
:100B200080648BBF0F900F900F900F90DF91CF914B
:100B3000FF91EF91BF91AF919F918F917F916F91B5
:100B40005F914F913F912F911F910F910F900FBE89
:100B50000F901F9018951F920F920FB60F921124AD
:100B60002F933F934F935F936F937F938F939F93B5
:100B7000AF932091B1003091B2004091B3005091F9
:100B8000B4006091B5007091B6008091B70090916B
:100B9000B800A1E067D02093B1003093B200409339
:100BA000B3005093B4006093B5007093B600809387
:100BB000B7009093B800AF919F918F917F916F9103
:100BC0005F914F913F912F910F900FBE0F901F900B
:100BD00018958FED90E0BBDC8AED90E0B8DC88ECF6
:100BE00090E01BDB83EC90E054CA83EC90E04FDA9A
:100BF00088EC90E0F4DA8AED90E0A7DC8FED90E0ED
:100C0000A4CC97FB072E16F4009406D077FD08D0ED
:100C100035D007FC05D03EF4909581959F4F0895FF
:100C2000709561957F4F089597FB10F81694000812
:100C30000F93083098F00850232F342F452F562F4C
:100C4000672F782F892F902DF4CF0594979587954E
:100C50007795679557954795379527950A95AAF7FC
:100C60000F9108950024A7FD00942A0F301D401D08
:100C7000501D601D701D801D901D0895AA1BBB1B7B
:100C800051E107C0AA1FBB1FA617B70710F0A61B8C
:100C9000B70B881F991F5A95A9F780959095BC01AD
:100CA000CD010895EE0FFF1F0590F491E02D0994FA
:100CB000CF93DF938230910510F482E090E0E091D1
:100CC000E600F091E70020E030E0C0E0D0E03097AF
:100CD00011F14081518148175907C0F04817590751
:100CE00061F482819381209719F09B838A832BC0C2
:100CF0009093E7008093E60026C02115310519F096
:100D00004217530718F49A01BE01DF01EF01028078
:100D1000F381E02DDCCF2115310509F1281B390BBA
:100D20002430310590F412968D919C9113976115A2
:100D3000710521F0FB019383828304C09093E70047
:100D40008093E600FD01329644C0FD01E20FF31FDF
:100D500081939193225031092D933C933AC0209175
:100D6000E4003091E500232B41F4209162003091A2
:100D700063003093E5002093E400209160003091FF
:100D800061002115310541F42DB73EB74091640053
:100D900050916500241B350BE091E400F091E500D3
:100DA000E217F307A0F42E1B3F0B2817390778F042
:100DB000AC014E5F5F4F2417350748F04E0F5F1FA1
:100DC0005093E5004093E4008193919302C0E0E0EA
:100DD000F0E0CF01DF91CF9108950F931F93CF9350
:100DE000DF93009709F48CC0FC01329713821282C2
:100DF0000091E6001091E7000115110581F42081B2
:100E00003181820F931F2091E4003091E500281773
:100E1000390779F5F093E500E093E40071C0D8015B
:100E200040E050E0AE17BF0750F412962D913C9170
:100E30001397AD012115310509F1D901F3CF9D01BA
:100E4000DA013383228360817181860F971F8217B5
:100E5000930769F4EC0128813981260F371F2E5F33
:100E60003F4F318320838A819B8193838283452BEB
:100E700029F4F093E700E093E60042C01396FC9358
:100E8000EE931297ED01499159919E01240F351F60
:100E9000E217F30771F480819181840F951F029608
:100EA00011969C938E938281938113969C938E933B
:100EB0001297E0E0F0E0D80112968D919C91139783
:100EC000009719F0F8018C01F6CF8D919C91980153
:100ED0002E5F3F4F820F931F2091E4003091E50079
:100EE0002817390769F4309729F41092E700109217
:100EF000E60002C0138212821093E5000093E40022
:100F0000DF91CF911F910F910895AEE0B0E0EAE834
:100F1000F7E098C20D891E8986E08C831A830983C5
:100F20008FEF9FE79E838D83AE01475E5F4F6F8992
:100F3000788DCE01019609D02F813885F801E20F16
:100F4000F31F10822E96E4E099C2ACE0B0E0EAEA2A
:100F5000F7E06AC27C016B018A01FC0117821682EC
:100F6000838181FFB0C1CE0101964C01F7019381CD
:100F7000F60193FD859193FF81916F01882309F418
:100F80009EC1853239F493FD859193FF81916F0164
:100F9000853221F4B70190E0B1D1E8CF512C312C4A
:100FA00020E02032A0F48B3269F030F4803259F026
:100FB000833269F420612CC08D3239F0803339F4EA
:100FC000216026C02260246023C0286021C027FD44
:100FD00027C030ED380F3A3078F426FF06C0FAE02B
:100FE0005F9E300D1124532E13C08AE0389E300DC1
:100FF0001124332E20620CC08E3221F426FD5FC1F5
:10100000206406C08C3611F4206802C0883641F492
:10101000F60193FD859193FF81916F018111C1CFFD
:10102000982F9F7D9554933028F40C5F1F4FFFE35A
:10103000F9830DC0833631F0833771F0833509F0C1
:1010400057C021C0F801808189830E5F1F4F44245F
:101050004394512C540114C03801F2E06F0E711CFE
:10106000F801A080B18026FF03C0652D70E002C0AA
:101070006FEF7FEFC5012C8736D12C0183012C85C2
:101080002F77222E16C03801F2E06F0E711CF80186
:10109000A080B18026FF03C0652D70E002C06FEF15
:1010A0007FEFC5012C8714D12C012C852068222EBE
:1010B000830123FC19C0832D90E048165906A0F443
:1010C000B70180E290E01AD13A94F5CFF50127FC00
:1010D000859127FE81915F01B70190E00FD131101A
:1010E0003A94F1E04F1A51084114510479F7DEC0E7
:1010F000843611F0893631F5F80127FF07C0608189
:101100007181828193810C5F1F4F08C06081718162
:10111000882777FD8095982F0E5F1F4F2F76722EB0
:1011200097FF09C090958095709561957F4F8F4F7F
:101130009F4F2068722E2AE030E0A40117D1A82E1C
:10114000A81843C0853729F42F7EB22E2AE030E05C
:1011500025C0F22FF97FBF2E8F36C1F018F48835E5
:1011600079F0ADC0803719F0883721F0A8C02F2F53
:101170002061B22EB4FE0DC08B2D8460B82E09C044
:1011800024FF0AC09F2F9660B92E06C028E030E0E9
:1011900005C020E130E002C020E132E0F801B7FEF6
:1011A00007C060817181828193810C5F1F4F06C0EF
:1011B0006081718180E090E00E5F1F4FA401D6D066
:1011C000A82EA818FB2DFF777F2E76FE0BC0372D9B
:1011D0003E7FA51450F474FE0AC072FC08C0372D7F
:1011E0003E7E05C0BA2C372D03C0BA2C01C0B52CE9
:1011F00034FF0DC0FE01EA0DF11D8081803311F432
:10120000397E09C032FF06C0B394B39404C0832F63
:10121000867809F0B39433FD12C030FF06C05A2C13
:10122000B31418F4530C5B18B32CB31460F4B70167
:1012300080E290E03C8762D0B3943C85F6CFB31453
:1012400010F43B1801C0312C34FF11C0B70180E30A
:1012500090E03C8753D03C8532FF16C031FD03C07F
:1012600088E790E002C088E590E0B7010CC0832FCA
:10127000867851F031FF02C08BE201C080E237FD79
:101280008DE2B70190E03AD0A51430F4B70180E3C5
:1012900090E034D05A94F8CFAA94F401EA0DF11DED
:1012A0008081B70190E02AD0A110F6CF332009F455
:1012B0005DCEB70180E290E021D03A94F7CFF701FC
:1012C0008681978102C08FEF9FEF2C96E2E1C8C024
:1012D000FC010590615070400110D8F78095909501
:1012E0008E0F9F1F0895FC01615070400190011006
:1012F000D8F7809590958E0F9F1F08950F931F9399
:10130000CF93DF93FB01238121FD03C08FEF9FEF7C
:1013100028C022FF16C0468157812481358142179B
:10132000530744F4A081B1819D012F5F3F4F31836A
:1013300020838C93268137812F5F3F4F378326830D
:1013400010C0EB01092F182F0084F185E02D0995BD
:10135000892BE1F68E819F8101969F838E83812F59
:10136000902FDF91CF911F910F910895FA01AA2735
:10137000283051F1203181F1E8946F936E7F6E5FD8
:101380007F4F8F4F9F4FAF4FB1E03ED0B4E03CD086
:10139000670F781F891F9A1FA11D680F791F8A1F69
:1013A000911DA11D6A0F711D811D911DA11D20D0D0
:1013B00009F468943F912AE0269F11243019305D8A
:1013C0003193DEF6CF010895462F4770405D41937B
:1013D000B3E00FD0C9F7F6CF462F4F70405D4A33C8
:1013E00018F0495D31FD4052419302D0A9F7EACF90
:1013F000B4E0A6959795879577956795BA95C9F7BF
:1014000000976105710508959B01AC010A2E0694B1
:101410005795479537952795BA95C9F7620F731F6A
:10142000841F951FA01D08952F923F924F925F92A7
:101430006F927F928F929F92AF92BF92CF92DF92E4
:10144000EF92FF920F931F93CF93DF93CDB7DEB749
:10145000CA1BDB0B0FB6F894DEBF0FBECDBF0994DD
:101460002A88398848885F846E847D848C849B8434
:10147000AA84B984C884DF80EE80FD800C811B8142
:10148000AA81B981CE0FD11D0FB6F894DEBF0FBE71
:10149000CDBFED01089510E0C0E4D0E003C0FE012F
:0E14A00003DC2296C234D107D1F7F894FFCFB7
:1014AE000000E80020000000000047004800000097
:1014BE000000EF000301FBFF000001010B01252ED0
:1014CE00326C753A252E326C753A252E326C7500BB
:0E14DE0000000000A502A602253032640000C6
:00000001FF
