:1000000014C038C037C036C035C034C033C032C069
:1000100031C030C02FC02EC02DC02CC02BC02AC074
:1000200029C028C027C085008E0011241FBECFE53F
:10003000D4E0DEBFCDBF10E0A0E6B0E0ECEAF3E034
:1000400002C005900D92A637B107D9F710E0A6E7D8
:10005000B0E001C01D92AB38B107E1F710E0C8E293
:10006000D0E003C02297FE0164D0C632D107D1F799
:100070001DD090C1C5CF08951BC0FC018AE690E059
:100080009183808381E08283838384838BEB97E0F9
:1000900096838583089508950BC0FC0182E790E064
:1000A00091838083128213821482089502D0FFCF3D
:1000B000D9C081B38F7181BBB89882B3806E82BB87
:1000C000C09AB99AC198BA9A88B3847088BB889A42
:1000D000909881EA8FBD89E08EBD8FEF90E09BBD47
:1000E0008ABD84E690E099BD88BD2CEC8CEC9CE048
:1000F000215080409040E1F700C01BBC1ABC19BCE5
:1001000018BC8FB58F758FBD089582E890E0C5DF6C
:100110008DE790E0C2DF86E790E0AFCF86E790E022
:10012000AADF8DE790E0B7DF82E890E0B4CFEE0F72
:10013000FF1F0590F491E02D0994CF93DF93823057
:10014000910510F482E090E0E0918900F0918A003E
:1001500020E030E0C0E0D0E0309711F140815181E3
:1001600048175907C0F04817590761F482819381F5
:10017000209719F09B838A832BC090938A008093E9
:10018000890026C02115310519F04217530718F4CC
:100190009A01BE01DF01EF010280F381E02DDCCF87
:1001A0002115310509F1281B390B2430310590F454
:1001B00012968D919C9113976115710521F0FB01A9
:1001C0009383828304C090938A0080938900FD0109
:1001D000329644C0FD01E20FF31F819391932250A8
:1001E00031092D933C933AC02091870030918800CB
:1001F000232B41F4209162003091630030938800FA
:100200002093870020916000309161002115310515
:1002100041F42DB73EB74091640050916500241B16
:10022000350BE0918700F0918800E217F307A0F406
:100230002E1B3F0B2817390778F0AC014E5F5F4F3C
:100240002417350748F04E0F5F1F509388004093E6
:1002500087008193919302C0E0E0F0E0CF01DF914D
:10026000CF9108950F931F93CF93DF93009709F4D5
:100270008CC0FC0132971382128200918900109188
:100280008A000115110581F420813181820F931FAD
:1002900020918700309188002817390779F5F0936D
:1002A0008800E093870071C0D80140E050E0AE17AD
:1002B000BF0750F412962D913C911397AD01211573
:1002C000310509F1D901F3CF9D01DA01338322838E
:1002D00060817181860F971F8217930769F4EC0183
:1002E00028813981260F371F2E5F3F4F31832083AE
:1002F0008A819B8193838283452B29F4F0938A0022
:10030000E093890042C01396FC93EE931297ED019F
:10031000499159919E01240F351FE217F30771F49B
:1003200080819181840F951F029611969C938E93E4
:100330008281938113969C938E931297E0E0F0E074
:10034000D80112968D919C911397009719F0F8019E
:100350008C01F6CF8D919C9198012E5F3F4F820FBB
:10036000931F20918700309188002817390769F47E
:10037000309729F410928A001092890002C01382EB
:1003800012821093880000938700DF91CF911F9114
:100390000F91089510E0C8E2D0E003C0FE01C9DE6D
:0C03A0002296CA32D107D1F7F894FFCFA3
:1003AC0000008B002000000000003B003C0000001F
:0603BC0000004B004C00A4
:00000001FF
