:1000000037C000000C945D0A5AC0000058C00000C0
:100010000C94390B54C0000052C0000050C00000C6
:100020004EC000004CC000004AC000000C94100AF2
:1000300046C0000044C0000042C0000040C00000B4
:100040003EC000003CC000003AC0000038C00000C4
:1000500036C000007F01F6007F012C017F012C01DA
:100060007F017F012C017F012C017F01770B480E5E
:1000700011241FBECFE5D8E0DEBFCDBF11E0A0E662
:10008000B0E0E6E9F5E202C005900D92AE39B107A5
:10009000D9F712E0AEE9B1E001C01D92AA30B10774
:1000A000E1F710E0CEE6D0E004C02297FE010E9406
:1000B000690ECC36D107C9F79CD60C94BF12A0CFDD
:1000C000089571C6FC0187EE90E0918380831282CF
:1000D000138284818E7F848389E0858381E2868395
:1000E0008BE787830895CF93DF93EC018B81982F63
:1000F0009695969596958C8181708295880F807ED5
:10010000892B8F5F8F73282F220F220F220F9B8145
:100110009770922B9B83282F2295269527709C8180
:100120009E7F922B9C838C33B9F58B8187708B8358
:100130008C818E7F8C838A81982F9295969597706B
:100140008B818770880F880F880F892B8F5F8F7343
:10015000282F2295220F207E9A819F71922B9A83BD
:10016000282F2695269526959B81987F922B9B83F9
:100170008C3391F48A818F718A838B81887F8B8302
:100180008A818F5F8F719A81907E982B9A838831B4
:1001900019F48A81807E8A838A818F7109F0B3C0C5
:1001A0008A81982F9295969597708B818770880F8A
:1001B000880F880F892B09F0A6C08B81982F969500
:1001C000969596958C8181708295880F807E892B7B
:1001D00009F099C0EE81EF70F0E03197EC30F10555
:1001E00008F08FC0E65DFF4F0C94670E2E812295BC
:1001F0002F703F813295307F832F822B2F81922F5A
:1002000092959F7083709927892B89F48E81982FFE
:1002100092959F708F818295807F892B9F81929587
:100220009F7064E670E00E94540E892B99F48E81D1
:10023000982F92959F708F818295807F892B9F81C7
:1002400092959F7060E971E00E94540E892B11F025
:100250002CE103C02DE101C02EE18D8186958695AC
:1002600086958F5F8F71382F330F330F330F9D813A
:100270009770932B9D8390E030E02817390794F511
:100280008D8187708D838E818F5F8F709E81907F2F
:10029000982B9E838D3030F12E8122952F703F81D7
:1002A0003295307F832F822B2F81922F92959F70D2
:1002B00001969F70382F3295307F2E812F70232B1F
:1002C0002E83282F22952F708F81807F822B8F8302
:1002D0009295907F8F818F70892B8F838E81807F05
:1002E00081608E838D818F5F87709D81987F982B31
:1002F0009D83873041F48D81887F8D8304C02FE1F9
:10030000ACCF20E0AACFDF91CF910895FC01962FCA
:10031000990F990F990F83818770892B838365FBD0
:10032000992790F964816E7F692B64830895FC019D
:10033000962F9F736295660F607E82818F71682B06
:100340006283292F2695269526959381987F922B57
:1003500093830895FC016F719281907E692B628373
:100360000895FC0193819695969596958481817068
:100370008295880F807E892B0895FC019281929549
:100380009695977083818770880F880F880F892BC7
:100390000895FC0182818F710895FC016623B9F1F3
:1003A0002381822F869586958695248121702295BA
:1003B000220F207E282B8281982F929596959770F8
:1003C00083818770880F880F880F892B92819F7196
:1003D0001F921F921F922F931F921F921F928F9313
:1003E0001F921F921F929F9384E990E09F938F9397
:1003F0008FEA91E09F938F930E94D30F8DB79EB7A2
:1004000040960FB6F8949EBF0FBE8DBF27C0828165
:10041000982F92959695977083818770880F880F93
:10042000880F892B92819F711F921F921F928F9329
:100430001F921F921F929F938AE990E09F938F9340
:100440008FEA91E09F938F930E94D30F8DB79EB751
:100450000C960FB6F8949EBF0FBE8DBF8FEA91E049
:100460000895FC0167709581987F692B65830895D5
:10047000FC01660F660F660F95819770692B658387
:100480000895FC016F709681907F692B66830895B3
:10049000FC017F70962F9295907F86818F70892BBB
:1004A0008683962F92959F708781807F892B878383
:1004B000972F9295907F87818F70892B87830895DE
:1004C000FC01858187700895FC018581869586955C
:1004D00086950895FC0186818F700895FC01268120
:1004E000822F82958F7037813295307F9781832B51
:1004F00092959F700895CF93DF93CDB7DEB72E9777
:100500000FB6F894DEBF0FBECDBF2EE0E6E8F0E0F8
:10051000DE01119601900D922A95E1F7FC014681CA
:100520006623B9F142954F7057815295507F252F20
:10053000242B4781342F32953F7066816F7055812F
:1005400056955695569545814770C9011F921F9241
:100550009F938F931F921F921F926F931F921F92D0
:100560001F925F93CE010196840F911D840F911D00
:10057000FC01329781818F9380818F9386EA90E08E
:100580009F938F938EE991E09F938F930E94D30F57
:1005900025C04F7035813695369536952581277063
:1005A0001F921F921F924F931F921F921F923F9371
:1005B000CE010196820F911D820F911DFC01329791
:1005C00081818F9380818F938DEB90E09F938F93A8
:1005D0008EE991E09F938F930E94D30F0FB6F8940A
:1005E000DEBF0FBECDBF8EE991E02E960FB6F89418
:1005F000DEBF0FBECDBFDF91CF9108952FEE30E06B
:10060000FC01318320835CCDCF93DF93EC01F6DFD7
:10061000CE01DF91CF91C7C3CF93DF93EC0152DDC1
:100620008FEE90E099838883188619861A861B8638
:100630001C861D861E861F86DF91CF910895DF924E
:10064000EF92FF920F931F93CF93DF93FC01062F3E
:10065000603408F045C0D084E184F2841385D485E9
:10066000C585B685A78521E030E04423C9F040E088
:1006700050E060E070E080E090E00E946D0ED22AD1
:10068000E32AF42A152BD62BC72B8B2B9A2BD0863B
:10069000E186F2861387D487C5878687978720C02F
:1006A00040E050E060E070E080E090E00E946D0E7D
:1006B00020953095409550956095709580959095D2
:1006C000D222E322F4221523D623C723B823A92359
:1006D000D086E186F2861387D487C587B687A78739
:1006E000DF91CF911F910F91FF90EF90DF900895D0
:1006F000CF92DF92EF92FF920F9380E090E06A0139
:100700007B01082E04C0F694E794D794C7940A940A
:10071000D2F73C2D3170232701968032910579F76D
:1007200081E0002319F0211104C002C0213009F436
:1007300080E00F91FF90EF90DF90CF9008950F939E
:100740001F93CF93DF93EC01162F2B8522952170F9
:100750008A85982F9295969597708B858170880FD2
:10076000880F880F892B4B854695477030E1439F52
:10077000A0011124662757FD6095762F482B00E0D5
:10078000CE01B6DF882309F4BBC02C8523FB2227CA
:1007900020F98B85982F9295969597708C8581700E
:1007A000880F880F880F892B4C854695437090E100
:1007B000499FA0011124662757FD6095762F482B8D
:1007C000CE0196DF882309F49CC02A85322F32950A
:1007D000369537709B859170990F990F990F292F36
:1007E000232B9B859E70392F330F330F930F920F5E
:1007F0009F73392F3295330F307E2A812F71232B2F
:100800002A839695969596952B81287F922B9B838C
:100810003B85432F4295469547709C859170990F73
:10082000990F990F392F342B9C859670292F220F01
:10083000220F920F930F292F2F719A81907E922B66
:100840009A839D8596959695292F27709D81987FEF
:10085000922B9D839C8592959F702D8523703AE005
:10086000239F900D1124292F220F220F220F9D81EB
:100870009770922B9D833D85432F429546954770F7
:100880009E859170990F990F990F392F342B9E8562
:100890009270292F220F220F920F930F292F2F7062
:1008A0009E81907F922B9E832E85269526952F7074
:1008B0009E85392F32953695369533709F85937086
:1008C000990F990F932B30E04AE0949F200D311D32
:1008D00011242053384F422F4295407F9E819F70B4
:1008E000942B9E8322952F709F81907F922B9F83C4
:1008F000232F2295207F9F819F70922B9F8301C081
:1009000080E0112341F0188619861A861B861C8602
:100910001D861E861F86DF91CF911F910F9108952E
:10092000089541C2CF92DF92EF92FF920F931F93EF
:10093000CF93DF93CDB7DEB72C970FB6F894DEBF19
:100940000FBECDBFC982DA82EB82FC820D831E838B
:100950002F83388749875A876B877C87DC0187EF2D
:1009600090E08D939D938CE0FE01319601900D9265
:100970008A95E1F72C960FB6F894DEBF0FBECDBF77
:10098000DF91CF911F910F91FF90EF90DF90CF906B
:100990000895FC0135850184F285E02D208181E0F8
:1009A00090E002C0880F991F3A95E2F7662311F094
:1009B000822B05C08095909530E08223932380831D
:1009C0000895FC018085A281B3814C9121E030E043
:1009D000B90102C0660F771F8A95E2F7CB01842B1D
:1009E0008C937CE17A95F1F790850280F381E02D7C
:1009F000808102C0220F331F9A95E2F7209530952F
:100A000090E02823392320830895CF93DF93DC01DE
:100A100016962C91169712960D90BC91A02D4C9184
:100A2000E4E0F0E0EF01C21BD10920EF30E002C0AA
:100A300035952795CA95E2F72095309550E0242307
:100A400035232C93DC0116963C91169712960D9047
:100A5000BC91A02D2C91607F70E0E31BF10902C0D6
:100A600075956795EA95E2F7622B6C93DF91CF91CC
:100A7000A8CF1F93CF93DF93EC01162F9F81EA81BC
:100A8000FB81808121E030E001C0220F9A95EAF7D6
:100A9000282B2083CE01B9DF612F6295607FCE01C4
:100AA000B4DF80E48A95F1F70000DF91CF911F91C8
:100AB00008950F931F93CF93DF938C01EB016991FE
:100AC000662319F0C801D5DFFACFDF91CF911F91CE
:100AD0000F9108951F93CF93DF93EC01162F8F8111
:100AE000EA81FB81408121E030E002C0220F331F08
:100AF0008A95E2F72095309550E024233523208312
:100B0000CE0183DF612F6295607FCE017EDF8BE3B4
:100B10008A95F1F7DF91CF911F91089561E0DADFB7
:100B200081E398E00197F1F70895CF93DF93EC010B
:100B30005E812F81488581E090E0BC0101C0660F95
:100B40002A95EAF72FE030E001C0220F5A95EAF724
:100B5000262B01C0880F4A95EAF7822BEC81FD8194
:100B60009081982B9083EA81FB81908180958923E5
:100B7000808380E79DE30197F1F700C060E3CE0139
:100B800044DF8AE794E10197F1F700C00000CE014D
:100B900018DF88E194E00197F1F700C0CE0111DF82
:100BA00088E194E00197F1F700C060E2CE012DDF0B
:100BB0008AE794E10197F1F700C0000088E28E8790
:100BC0008CE08F8786E0888B6E85CE0183DF6F8512
:100BD000CE0180DF6889CE017DDFCE01DF91CF912C
:100BE0009DCF62E077DF81E398E00197F1F7089508
:100BF000423059F018F4413031F00895433039F063
:100C0000443039F00895605805C0605403C06057FF
:100C100001C060535FCFCF92DF92EF92FF920F93AC
:100C20001F93CF93DF9300D0CDB7DEB78C0188E060
:100C3000689FB00111246064C80149835A834ADF68
:100C40004981C42E5A81D52E7601E8E0EE0EF11CC2
:100C5000F60161916F01C8010CDFCE14DF04C1F70A
:100C60000F900F90DF91CF911F910F91FF90EF9018
:100C7000DF90CF900895FC018785662311F0826094
:100C800001C08D7F87876785CF0124CFFC018785D1
:100C9000662311F0816001C08E7F87876785CF0151
:100CA00019CF089580C0EF92FF920F931F93FC011C
:100CB00085E091E091838083358324834087518749
:100CC0006287738713830283F782E6821F910F91F5
:100CD000FF90EF900895CF93DF93EC018C819D817D
:100CE0001DDF8C819D817DDF8A819B8149D0BC0184
:100CF0008C819D81DEDE6A858885998556D0882322
:100D000061F08A819B814AD09B838A836A8588852A
:100D100099854BD08111FACFE1CF6B858885998574
:100D200044D0882341F36BEF70E08C819D81C1DE5C
:100D3000EE81FF8110826B858885998536D0882366
:100D400041F0EE81FF8180818230A8F3DF91CF9165
:100D5000089542E060E08C819D814ADF8A819B8119
:100D600013D0BCCF08951FC0FC018DE091E09183AA
:100D700080837383628355834483378326830895F6
:100D8000FC01828193810895DC011496ED91FC9120
:100D900015970994FC01778366830895FC01868189
:100DA00097810895D3C70C943B0FFC01208130E05C
:100DB000062E02C0359527950A94E2F720FD17C04C
:100DC000FDEA27E431E0F15020403040E1F700C077
:100DD00000C0FC01808190E002C0959587956A95DE
:100DE000E2F781709927F1E08F278170089580E004
:100DF0000895E8D161E08091E4019091E501C9DDB9
:100E00004EE750E060E08091E4019091E50103DF5E
:100E100046E750E061E08091E4019091E501FBDE5E
:100E20004EE650E062E08091E4019091E501F3DE4E
:100E300046E650E063E08091E4019091E501EBDE4D
:100E40007894C1E08091E0019091E10185FF06C0B6
:100E50008091E0019091E10187FD9DC08091E001CA
:100E60009091E10180FF85C041E060E08091E40164
:100E70009091E501BDDE61E08EEF91E03CDBBC01CD
:100E80008091E4019091E50114DE42E060E0809100
:100E9000E4019091E501ACDE61E08EEF91E07DDA56
:100EA000BC018091E4019091E50103DE42E06DE038
:100EB0008091E4019091E5019BDE2091E001309169
:100EC000E1018091E4019091E50122FF03C063E01C
:100ED000D0DD03C063E171E0ECDD42E06FE08091C2
:100EE000E4019091E50184DE8091E0019091E101BF
:100EF00087FD07C062E08091E4019091E501B9DDD2
:100F00002FC08091E0019091E10186FF29C02091DE
:100F1000E0013091E1018091E4019091E50124FF2D
:100F20000BC02091E0013091E1012F7E3093E1016F
:100F30002093E00160E00AC02091E0013091E101DE
:100F400020613093E1012093E00161E092DD809126
:100F5000E0019091E1018F7B9093E1018093E001AA
:100F60008091E0019091E1018E7F9093E101809367
:100F7000E00165E083E390E018DF882319F0C111F8
:100F800047C002C0C1115ECF65E083E390E00DDF92
:100F9000C1E0C82757CF8091E0019091E1018F7D9A
:100FA0009093E1018093E00186EE91E0F2D9682F01
:100FB0008EEF91E0CFD986EE91E0DFD9682F8EEFEA
:100FC00091E0B5D986EE91E07FDA682F8EEF91E05F
:100FD0004FDA86EE91E074DA682F8EEF91E041DA15
:100FE00086EE91E077DA682F8EEF91E04ADA86EEAE
:100FF00091E074DABC018EEF91E04ADA8091E00171
:101000009091E10181609093E1018093E00126CF0E
:101010008091C0019091C1015EDE8091E4019091C8
:10102000E5017CDD8091E4019091E501DADD8091BC
:10103000E0019091E10181609093E1018093E001F2
:10104000A3CF61E08091E4019091E50114DE61E0BD
:101050008091E4019091E50119DE42E066E0809123
:10106000E4019091E501C4DD2091E0013091E101BE
:101070008091E4019091E50127FF03C061E171E0F7
:1010800002C065E171E015DD42E066E08091E401B7
:101090009091E501ADDD66E083E390E086DE882394
:1010A00051F08091E0019091E10180589093E1012D
:1010B0008093E001D2CF65E083E390E076DE882381
:1010C00051F360E08091E4019091E501D4DD60E0AE
:1010D0008091E4019091E501D9CD69E171E08091C1
:1010E000E4019091E501E5DC29E989E999E12150E4
:1010F00080409040E1F70000089562E271E0809145
:10110000E4019091E501D5DC29E989E999E12150D3
:1011100080409040E1F70000089561E08091E40193
:101120009091E501A8DD61E08091E4019091E501F5
:10113000ADDD42E066E08091E4019091E50158DD8B
:101140002091E0013091E1018091E4019091E5016D
:1011500022FF03C061E171E002C065E171E0A9DC3A
:1011600042E066E08091E4019091E50141DD66E0B6
:1011700083E390E01ADE882359F08091E00190919A
:10118000E10124E082279093E1018093E001D1CF37
:1011900065E083E390E009DE882349F342E050E014
:1011A00069E070E080EE91E00E94C61160E08091FD
:1011B000E4019091E5015FDD60E08091E4019091B0
:1011C000E50164CD8F929F92BF92CF92DF92EF9212
:1011D000FF920F931F93CF93DF93CDB7DEB72E9778
:1011E0000FB6F894DEBF0FBECDBF8091E0019091A5
:1011F000E10180689093E1018093E00184B38F78EE
:1012000084BBA79885B3806785BBAF9A8D9A959864
:101210008C9A82B3807182BB81EA8FBD89E08EBDDA
:101220008FEF90E09BBD8ABD84E690E099BD88BDBC
:101230002CEC8CEC9CE0215080409040E1F700C009
:101240001BBC1ABC19BC18BC8FB58F758FBD8BE346
:1012500090E09A8389838AE390E09C838B831D824C
:1012600085E08E8384E0B82EBF8288E390E0998782
:10127000888787E390E09B878A871C8681E190E0DE
:1012800091DD4C01C980DA80EB80FC800D811E81EC
:101290002F81388549855A856B857C8543DB909203
:1012A000E5018092E401C40140DC8091E401909169
:1012B000E50134DC8A9885B58E6085BD89B7806884
:1012C00089BF14BC8AE583BD85B7836085BF8BB7B2
:1012D00080648BBFB3BE89B7816089BF88E090E02E
:1012E00061DD7C0120E030E041E258E062E371E042
:1012F0003BDD02EC11E0F801F386E28688E090E045
:1013000051DD7C01F801228533854DE758E063E427
:1013100071E02ADDF801F186E08688E090E042DDA8
:101320007C01F801208531854DE858E064E571E0E5
:101330001BDDF801F782E68288E090E033DD7C0176
:10134000F8012681378141EE5CE065E671E00CDD55
:10135000F801F582E48288E090E024DD7C01F80168
:10136000248135814DE658E066E771E0FDDCF80147
:10137000F382E28288E090E015DD7C01F8012281B1
:10138000338143E85BE067E871E0EEDCF801F1826D
:10139000E082B70182859385FDDC8CE090E002DD80
:1013A0004C01F801008111812091E4013091E501A7
:1013B00093EEE92E91E0F92E43E350E066E075E00C
:1013C000C40171DC9092C1018092C00148E050E0FC
:1013D00060E070E086EF91E0C9D71E861D8642E08E
:1013E00050E069E070E0CE010D96C0D78D859E85F6
:1013F000847899279093E1018093E0012E960FB6AF
:10140000F894DEBF0FBECDBFDF91CF911F910F913A
:10141000FF90EF90DF90CF90BF909F908F900895B6
:101420001F920F920FB60F9211242F933F934F9359
:101430005F936F937F938F939F93AF93BF93EF933C
:10144000FF938091E2018F5F8093E201803420F16D
:101450001092E2018091E3018F5F8093E3018EEFB0
:1014600091E00E9473008EEF91E00E94C90181110A
:101470000AC08EEF91E00E94BD01811104C08EEF81
:1014800091E00E94B1018091E0019091E1018160C1
:101490009093E1018093E001FF91EF91BF91AF91B3
:1014A0009F918F917F916F915F914F913F912F917C
:1014B0000F900FBE0F901F9018951F920F920FB6AE
:1014C0000F9211242F933F934F935F936F937F93CA
:1014D0008F939F93AF93BF93EF93FF938BB78F7BC4
:1014E0008BBF8091E0019091E10181FF7CC0709100
:1014F000D0016091D1015091D2014091D30130913E
:10150000D4012091D5019091D6018091D70170939B
:10151000D8016093D9015093DA014093DB013093F5
:10152000DC012093DD019093DE018093DF011092B6
:10153000D0011092D1011092D2011092D3011092D9
:10154000D4011092D5011092D6011092D70180914A
:10155000E0019091E1018D7F9093E1018093E001A2
:1015600085B7836085BF8091E0019091E10180643F
:101570009093E1018093E0012091D8013091D9014D
:101580004091DA015091DB016091DC017091DD0145
:101590008091DE019091DF012A3F3105410551051F
:1015A000610571058105910509F008F44EC080912F
:1015B000CE018B33A9F48091E0019091E10180622A
:1015C0009093E1018093E00161E086EE91E0B7D86D
:1015D0001092E20112BE60E08EEF91E00E9486015F
:1015E0001092CE0132C08091D0019091D1019091A2
:1015F000D2019091D3019091D4019091D501909115
:10160000D6019091D7018093CF018091CF01609155
:10161000CE018F3110F041E001C040E086EE91E054
:101620000ED88091CE018F5F8093CE018091E00132
:101630009091E10182609093E1018093E00185B790
:10164000826085BF85B78E7F85BF8BB780648BBF77
:10165000FF91EF91BF91AF919F918F917F916F918A
:101660005F914F913F912F910F900FBE0F901F9060
:1016700018951F920F920FB60F9211242F933F933C
:101680004F935F936F937F938F939F93AF9320912B
:10169000D0013091D1014091D2015091D30160919C
:1016A000D4017091D5018091D6019091D701A1E02C
:1016B0002DD32093D0013093D1014093D201509388
:1016C000D3016093D4017093D5018093D601909398
:1016D000D701AF919F918F917F916F915F914F91C2
:1016E0003F912F910F900FBE0F901F9018958EEF86
:1016F00091E00E94620086EF91E00E94620086EE17
:1017000091E00C940C03EF92FF920F931F93CF93F1
:10171000DF93CDB7DEB72B970FB6F894DEBF0FBEC1
:10172000CDBFCE0101960E9462008EEF91E00E9433
:10173000C901682FCE0101960E94AA018EEF91E0A7
:101740000E94BD01682FCE0101960E9497018EEF85
:1017500091E00E94B101682FCE0101960E9486019E
:1017600061E08091E4019091E50185DA61E080918A
:10177000E4019091E5018ADA42E064E08091E401BD
:101780009091E50135DA61E0CE0101960E94CD012C
:10179000BC018091E4019091E5018BD942E064E0C5
:1017A0008091E4019091E50123DA28E9E22E21E01D
:1017B000F22E8E01075F1F4FCE0101960E94C901D4
:1017C0001F928F93FF92EF921F930F93ECD3B80168
:1017D0008091E4019091E5016CD942E064E0809150
:1017E000E4019091E50104DA0F900F900F900F90B3
:1017F0000F900F9066E083E390E0D7DA882399F0AA
:10180000CE0101960E94C901873111F460E006C043
:10181000CE0101960E94C90161E0680FCE010196D8
:101820000E94AA01C9CF65E083E390E0BEDA882375
:1018300009F398E9E92E91E0F92E42E067E0809102
:10184000E4019091E501D4D9CE0101960E94BD0139
:101850001F928F93FF92EF921F930F93A4D3B8011F
:101860008091E4019091E50124D942E067E0809104
:10187000E4019091E501BCD90F900F900F900F906B
:101880000F900F9066E083E390E08FDA882399F061
:10189000CE0101960E94BD018B3311F460E006C0B9
:1018A000CE0101960E94BD0161E0680FCE01019654
:1018B0000E949701C2CF65E083E390E076DA882347
:1018C00009F388E9E82E81E0F82E42E06AE0809191
:1018D000E4019091E5018CD9CE0101960E94B101FD
:1018E0001F928F93FF92EF921F930F935CD3B801D7
:1018F0008091E4019091E501DCD842E06AE08091BA
:10190000E4019091E50174D90F900F900F900F9022
:101910000F900F9066E083E390E047DA882399F018
:10192000CE0101960E94B1018B3311F460E006C034
:10193000CE0101960E94B10161E0680FCE010196CF
:101940000E948601C2CF65E083E390E02EDA88230F
:1019500009F3CE0101960E94C901682F8EEF91E034
:101960000E94AA01CE0101960E94BD01682F8EEF50
:1019700091E00E949701CE0101960E94B101682F6B
:101980008EEF91E00E94860160E08091E4019091E9
:10199000E50171D960E08091E4019091E50176D98B
:1019A000CE0101960E9460002B960FB6F894DEBF20
:1019B0000FBECDBFDF91CF911F910F91FF90EF90A0
:1019C0000895EF92FF920F931F93CF93DF93CDB7BC
:1019D000DEB72B970FB6F894DEBF0FBECDBFCE019A
:1019E00001960E94620086EF91E00E94C901682F73
:1019F000CE0101960E94AA0186EF91E00E94BD01EE
:101A0000682FCE0101960E94970186EF91E00E9417
:101A1000B101682FCE0101960E94860161E080919C
:101A2000E4019091E50127D961E08091E401909172
:101A3000E5012CD942E064E08091E4019091E50158
:101A4000D7D861E0CE0101960E94CD01BC01809102
:101A5000E4019091E5012DD842E064E08091E40139
:101A60009091E501C5D828E9E22E21E0F22E8E0101
:101A7000075F1F4FCE0101960E94C9011F928F93ED
:101A8000FF92EF921F930F938ED2B8018091E401E1
:101A90009091E5010ED842E064E08091E4019091DC
:101AA000E501A6D80F900F900F900F900F900F9018
:101AB00066E083E390E079D9882399F0CE0101961E
:101AC0000E94C901873111F460E006C0CE01019681
:101AD0000E94C90161E0680FCE0101960E94AA012F
:101AE000C9CF65E083E390E060D9882309F398E9E2
:101AF000E92E91E0F92E42E067E08091E4019091B7
:101B0000E50176D8CE0101960E94BD011F928F9308
:101B1000FF92EF921F930F9346D2B8018091E40198
:101B20009091E5010E94590542E067E08091E4014F
:101B30009091E5015DD80F900F900F900F900F904E
:101B40000F9066E083E390E030D9882399F0CE01CE
:101B500001960E94BD018B3311F460E006C0CE01F6
:101B600001960E94BD0161E0680FCE0101960E94BE
:101B70009701C1CF65E083E390E017D9882309F38B
:101B800088E9E82E81E0F82E42E06AE08091E401E5
:101B90009091E5012DD8CE0101960E94B1011F92CE
:101BA0008F93FF92EF921F930F93FDD1B801809115
:101BB000E4019091E5010E94590542E06AE08091BC
:101BC000E4019091E50114D80F900F900F900F90C1
:101BD0000F900F9066E083E390E0E7D8882399F0B8
:101BE000CE0101960E94B1018B3311F460E006C072
:101BF000CE0101960E94B10161E0680FCE0101960D
:101C00000E948601C1CF65E083E390E0CED88823AF
:101C100009F3CE0101960E94C901682F86EF91E079
:101C20000E94AA01CE0101960E94BD01682F86EF95
:101C300091E00E949701CE0101960E94B101682FA8
:101C400086EF91E00E94860148E050E060E070E09D
:101C500086EF91E09BD360E08091E4019091E501F3
:101C60000AD860E08091E4019091E5010FD8CE019F
:101C700001960E9460002B960FB6F894DEBF0FBE4F
:101C8000CDBFDF91CF911F910F91FF90EF900895FD
:101C900086EE91E00E94FE0286EF91E00E946000D5
:101CA0008EEF91E00C94600097FB072E16F40094E1
:101CB00006D077FD08D036D007FC05D03EF49095CD
:101CC00081959F4F0895709561957F4F0895EE0F10
:101CD000FF1F0590F491E02D09940F93083090F0C8
:101CE000982F872F762F652F542F432F322F22279F
:101CF0000850F4CF220F331F441F551F661F771F54
:101D0000881F991F0A95B2F70F9108950024A7FD27
:101D100000942A0F301D401D501D601D701D801D38
:101D2000901D0895AA1BBB1B51E107C0AA1FBB1F32
:101D3000A617B70710F0A61BB70B881F991F5A9557
:101D4000A9F780959095BC01CD010895CF93DF93BD
:101D50008230910510F482E090E0E0910802F09169
:101D6000090220E030E0C0E0D0E0309711F140817E
:101D7000518148175907C0F04817590761F482810B
:101D80009381209719F09B838A832BC0909309023B
:101D90008093080226C02115310519F04217530718
:101DA00018F49A01BE01DF01EF010280F381E02DFA
:101DB000DCCF2115310509F1281B390B2430310501
:101DC00090F412968D919C9113976115710521F0F5
:101DD000FB019383828304C09093090280930802DD
:101DE000FD01329644C0FD01E20FF31F81939193F0
:101DF000225031092D933C933AC020910602309134
:101E00000702232B41F4209162003091630030934C
:101E10000702209306022091600030916100211595
:101E2000310541F42DB73EB74091640050916500F3
:101E3000241B350BE0910602F0910702E217F3072D
:101E4000A0F42E1B3F0B2817390778F0AC014E5F2A
:101E50005F4F2417350748F04E0F5F1F509307025E
:101E6000409306028193919302C0E0E0F0E0CF013D
:101E7000DF91CF9108950F931F93CF93DF93009736
:101E800009F48CC0FC01329713821282009108027F
:101E9000109109020115110581F420813181820F11
:101EA000931F20910602309107022817390779F510
:101EB000F0930702E093060271C0D80140E050E0C1
:101EC000AE17BF0750F412962D913C911397AD01B8
:101ED0002115310509F1D901F3CF9D01DA013383D1
:101EE000228360817181860F971F8217930769F49F
:101EF000EC0128813981260F371F2E5F3F4F318338
:101F000020838A819B8193838283452B29F4F093DC
:101F10000902E093080242C01396FC93EE931297D5
:101F2000ED01499159919E01240F351FE217F307E6
:101F300071F480819181840F951F029611969C9374
:101F40008E938281938113969C938E931297E0E0F7
:101F5000F0E0D80112968D919C911397009719F09B
:101F6000F8018C01F6CF8D919C9198012E5F3F4F27
:101F7000820F931F2091060230910702281739071C
:101F800069F4309729F4109209021092080202C0F5
:101F9000138212821093070200930602DF91CF9101
:101FA0001F910F910895AEE0B0E0E8EDFFE0BEC2F2
:101FB0000D891E8986E08C831A8309838FEF9FE742
:101FC0009E838D83AE01475E5F4F6F89788DCE0112
:101FD000019609D02F813885F801E20FF31F108296
:101FE0002E96E4E0BFC2ACE0B0E0E8EFFFE090C2C4
:101FF0007C016B018A01FC0117821682838181FFBB
:10200000B0C1CE0101964C01F7019381F60193FD19
:10201000859193FF81916F01882309F49EC18532D8
:1020200039F493FD859193FF81916F01853221F4FD
:10203000B70190E0D7D1E8CF512C312C20E02032ED
:10204000A0F48B3269F030F4803259F0833269F4B5
:1020500020612CC08D3239F0803339F4216026C0E4
:102060002260246023C0286021C027FD27C030EDF6
:10207000380F3A3078F426FF06C0FAE05F9E300D44
:102080001124532E13C08AE0389E300D1124332EB4
:1020900020620CC08E3221F426FD5FC1206406C090
:1020A0008C3611F4206802C0883641F4F60193FDA5
:1020B000859193FF81916F018111C1CF982F9F7DF1
:1020C0009554933028F40C5F1F4FFFE3F9830DC044
:1020D000833631F0833771F0833509F057C021C062
:1020E000F801808189830E5F1F4F44244394512C53
:1020F000540114C03801F2E06F0E711CF801A08089
:10210000B18026FF03C0652D70E002C06FEF7FEF46
:10211000C5012C875CD12C0183012C852F77222EC1
:1021200016C03801F2E06F0E711CF801A080B1807A
:1021300026FF03C0652D70E002C06FEF7FEFC50181
:102140002C873AD12C012C852068222E830123FC78
:1021500019C0832D90E048165906A0F4B70180E21B
:1021600090E040D13A94F5CFF50127FC859127FE08
:1021700081915F01B70190E035D131103A94F1E0DF
:102180004F1A51084114510479F7DEC0843611F01A
:10219000893631F5F80127FF07C06081718182819E
:1021A00093810C5F1F4F08C060817181882777FD84
:1021B0008095982F0E5F1F4F2F76722E97FF09C0C4
:1021C00090958095709561957F4F8F4F9F4F2068B8
:1021D000722E2AE030E0A4013DD1A82EA81843C0F9
:1021E000853729F42F7EB22E2AE030E025C0F22F69
:1021F000F97FBF2E8F36C1F018F4883579F0ADC065
:10220000803719F0883721F0A8C02F2F2061B22E17
:10221000B4FE0DC08B2D8460B82E09C024FF0AC007
:102220009F2F9660B92E06C028E030E005C020E15F
:1022300030E002C020E132E0F801B7FE07C0608163
:102240007181828193810C5F1F4F06C06081718113
:1022500080E090E00E5F1F4FA401FCD0A82EA818CC
:10226000FB2DFF777F2E76FE0BC0372D3E7FA5140A
:1022700050F474FE0AC072FC08C0372D3E7E05C0C3
:10228000BA2C372D03C0BA2C01C0B52C34FF0DC0B9
:10229000FE01EA0DF11D8081803311F4397E09C001
:1022A00032FF06C0B394B39404C0832F867809F03C
:1022B000B39433FD12C030FF06C05A2CB31418F487
:1022C000530C5B18B32CB31460F4B70180E290E0B8
:1022D0003C8788D0B3943C85F6CFB31410F43B18F8
:1022E00001C0312C34FF11C0B70180E390E03C877E
:1022F00079D03C8532FF16C031FD03C088E790E0FD
:1023000002C088E590E0B7010CC0832F867851F0B9
:1023100031FF02C08BE201C080E237FD8DE2B701E0
:1023200090E060D0A51430F4B70180E390E05AD07B
:102330005A94F8CFAA94F401EA0DF11D8081B701F7
:1023400090E050D0A110F6CF332009F45DCEB70154
:1023500080E290E047D03A94F7CFF70186819781E9
:1023600002C08FEF9FEF2C96E2E1EEC0DC01CB01C3
:10237000FC01E199FECF06C0FFBBEEBBE09A3196AF
:102380000DB20D9241505040B8F70895DC01CB01D9
:1023900002C02D9105D041505040D8F70895262F06
:1023A000E199FECF9FBB8EBB2DBB0FB6F894E29A8E
:1023B000E19A0FBE01960895FC01059061507040AE
:1023C0000110D8F7809590958E0F9F1F0895FC01FE
:1023D0006150704001900110D8F7809590958E0F54
:1023E0009F1F08950F931F93CF93DF93FB012381CA
:1023F00021FD03C08FEF9FEF28C022FF16C046814A
:102400005781248135814217530744F4A081B1815B
:102410009D012F5F3F4F318320838C93268137812D
:102420002F5F3F4F3783268310C0EB01092F182FF2
:102430000084F185E02D0995892BE1F68E819F813D
:1024400001969F838E83812F902FDF91CF911F91D3
:102450000F910895FA01AA27283051F1203181F116
:10246000E8946F936E7F6E5F7F4F8F4F9F4FAF4F9C
:10247000B1E03ED0B4E03CD0670F781F891F9A1FAF
:10248000A11D680F791F8A1F911DA11D6A0F711D63
:10249000811D911DA11D20D009F468943F912AE06F
:1024A000269F11243019305D3193DEF6CF01089557
:1024B000462F4770405D4193B3E00FD0C9F7F6CF88
:1024C000462F4F70405D4A3318F0495D31FD405250
:1024D000419302D0A9F7EACFB4E0A69597958795E6
:1024E00077956795BA95C9F70097610571050895C5
:1024F0009B01AC010A2E0694579547953795279571
:10250000BA95C9F7620F731F841F951FA01D089508
:102510002F923F924F925F926F927F928F929F92F3
:10252000AF92BF92CF92DF92EF92FF920F931F93E1
:10253000CF93DF93CDB7DEB7CA1BDB0B0FB6F89492
:10254000DEBF0FBECDBF09942A88398848885F84D2
:102550006E847D848C849B84AA84B984C884DF8043
:10256000EE80FD800C811B81AA81B981CE0FD11D27
:102570000FB6F894DEBF0FBECDBFED01089510E099
:10258000CEE6D0E003C0FE01A4DB2296C037D1071F
:06259000D1F7F894FFCF23
:1025960000000A02200000040A0A0A1F0400000ABA
:1025A600040A04040E1F0000000004040E1F0004A9
:1025B6000A0004040E1FCE00D100D400D700DA00B2
:1025C600DD00E000252E326C753A252E326C753A08
:1025D600252E326C75002573202D202530326C7522
:1025E6002E2530326C752E2530346C7500257320FF
:1025F6002D202530326C752E2530326C75004D6FCE
:10260600004469004D6900446F0046720053610042
:10261600536F00000000006000610000000000FE33
:102626000204030000000090049104447275636B79
:1026360000000000005106520600000000B206B37A
:10264600064F6E20004F6666005365742044617421
:10265600650053657420536E6F6F7A652054696DFB
:1026660065002A2A2044434620616E2F6175732037
:102676002A2A002A2A20536E6F6F7A65205A6569C6
:1026860074202A002A20416C61726D20616E2F61D0
:102696007573202A002A2A2A205765636B7A656992
:1026A60074202A2A2A002A2A2A2A2A204461747592
:1026B6006D202A2A2A2A002A2A2A2A2A205A6569C5
:0E26C60074202A2A2A2A2A00252E32640000B7
:00000001FF
