:1000000012C02CC02BC02AC029C028C027C026C0BF
:1000100025C024C023C022C021C020C01FC01EC0D4
:100020001DC01CC01BC011241FBECFE5D4E0DEBF25
:10003000CDBF10E0A0E6B0E0E0EBF0E002C005903C
:100040000D92A636B107D9F710E0A6E6B0E001C0E0
:100050001D92A636B107E1F702D028C0D1CF0BD050
:10006000C19A2CEC8CEC9CE0215080409040E1F750
:1000700000C0C198FFCF81B38F7181BBB89882B3A4
:10008000806E82BBC09AB99AC198C19A2CEC8CEC54
:100090009CE0215080409040E1F700C0C198BA9A9E
:1000A00088B3847088BB889A90980895F894FFCF9D
:0600B000000066002000C4
:00000001FF
