:1000000037C000000C94970B5AC0000058C0000085
:100010000C94750C54C0000052C0000050C0000089
:100020004EC000004CC000004AC000000C944A0BB7
:1000300046C0000044C0000042C0000040C00000B4
:100040003EC000003CC000003AC0000038C00000C4
:1000500036C000007F01F6007F012C017F012C01DA
:100060007F017F012C017F012C017F01B30C8D0FDB
:1000700011241FBECFE5D8E0DEBFCDBF15E0A0E65E
:10008000B0E0E0E2F8E202C005900D92A832B107BC
:10009000D9F715E0A8E2B5E001C01D92A839B10773
:1000A000E1F710E0CEE6D0E004C02297FE010E9406
:1000B000AE0FCC36D107C9F71AD70C940414A0CFD1
:1000C0000895EFC6FC0188EE90E091838083128250
:1000D000138284818E7F848389E0858381E2868395
:1000E0008BE787830895CF93DF93EC018B81982F63
:1000F0009695969596958C8181708295880F807ED5
:10010000892B8F5F8F73282F220F220F220F9B8145
:100110009770922B9B83282F2295269527709C8180
:100120009E7F922B9C838C33B9F58B8187708B8358
:100130008C818E7F8C838A81982F9295969597706B
:100140008B818770880F880F880F892B8F5F8F7343
:10015000282F2295220F207E9A819F71922B9A83BD
:10016000282F2695269526959B81987F922B9B83F9
:100170008C3391F48A818F718A838B81887F8B8302
:100180008A818F5F8F719A81907E982B9A838831B4
:1001900019F48A81807E8A838A818F7109F0B3C0C5
:1001A0008A81982F9295969597708B818770880F8A
:1001B000880F880F892B09F0A6C08B81982F969500
:1001C000969596958C8181708295880F807E892B7B
:1001D00009F099C0EE81EF70F0E03197EC30F10555
:1001E00008F08FC0E65DFF4F0C94AC0F2E81229576
:1001F0002F703F813295307F832F822B2F81922F5A
:1002000092959F7083709927892B89F48E81982FFE
:1002100092959F708F818295807F892B9F81929587
:100220009F7064E670E00E94990F892B99F48E818B
:10023000982F92959F708F818295807F892B9F81C7
:1002400092959F7060E971E00E94990F892B11F0DF
:100250002CE103C02DE101C02EE18D8186958695AC
:1002600086958F5F8F71382F330F330F330F9D813A
:100270009770932B9D8390E030E02817390794F511
:100280008D8187708D838E818F5F8F709E81907F2F
:10029000982B9E838D3030F12E8122952F703F81D7
:1002A0003295307F832F822B2F81922F92959F70D2
:1002B00001969F70382F3295307F2E812F70232B1F
:1002C0002E83282F22952F708F81807F822B8F8302
:1002D0009295907F8F818F70892B8F838E81807F05
:1002E00081608E838D818F5F87709D81987F982B31
:1002F0009D83873041F48D81887F8D8304C02FE1F9
:10030000ACCF20E0AACFDF91CF910895CF93FC012D
:10031000DB0122812F7112968C9112978F7130E040
:1003200090E0821793079CF012968C9112978F7130
:1003300022812F7190E0821B910920E13EE0829F93
:10034000A001839F500D929F500D11240EC09281E9
:100350009F7112968C9112978F7148E150E0491B62
:100360005109480F511D405F514F12963C91129711
:10037000932F92959695977013962C9113972770BB
:10038000220F220F220F322F392BC2818C2F829500
:1003900086958770C381C770CC0FCC0FCC0FC82B4C
:1003A00013969C911397292F26952695269514969A
:1003B0008C9181708295880F807E982F922B73810B
:1003C000872F869586958695748171707295770FC3
:1003D000707E782B232F30E02C1B31098CE3829F19
:1003E000F001839FF00D11244E0F5F1F892F90E0C5
:1003F000871B9109BA01680F791F882777FD8095BF
:10040000982FCF910895FC01962F990F990F990F6E
:1004100083818770892B838365FB992790F9648199
:100420006E7F692B64830895FC01962F9F736295FC
:10043000660F607E82818F71682B6283292F2695DB
:10044000269526959381987F922B93830895FC019E
:100450006F719281907E692B62830895FC01938174
:10046000969596959695848181708295880F807E69
:10047000892B0895FC0192819295969597708381BE
:100480008770880F880F880F892B0895FC0182815F
:100490008F710895FC016623B9F12381822F86951F
:1004A00086958695248121702295220F207E282B07
:1004B0008281982F92959695977083818770880F87
:1004C000880F880F892B92819F711F921F921F9214
:1004D0002F931F921F921F928F931F921F921F9212
:1004E0009F9385E990E09F938F9389E395E09F9395
:1004F0008F930E9418118DB79EB740960FB6F8944F
:100500009EBF0FBE8DBF27C08281982F9295969572
:10051000977083818770880F880F880F892B92814D
:100520009F711F921F921F928F931F921F921F9273
:100530009F938BE990E09F938F9389E395E09F933E
:100540008F930E9418118DB79EB70C960FB6F89432
:100550009EBF0FBE8DBF89E395E00895FC016770D3
:100560009581987F692B65830895FC01660F660F5E
:10057000660F95819770692B65830895FC016F70F4
:100580009681907F692B66830895FC017F70962F7A
:100590009295907F86818F70892B8683962F929576
:1005A0009F708781807F892B8783972F9295907F7B
:1005B00087818F70892B87830895FC0185818770DF
:1005C0000895FC0185818695869586950895FC01A0
:1005D00086818F700895FC012681822F82958F700D
:1005E00037813295307F9781832B92959F70089544
:1005F000CF93DF93CDB7DEB72E970FB6F894DEBF5B
:100600000FBECDBF2EE0E7E8F0E0DE0111960190CD
:100610000D922A95E1F7FC0146816623B9F14295D6
:100620004F7057815295507F252F242B4781342FAF
:1006300032953F7066816F705581569556955695E7
:1006400045814770C9011F921F929F938F931F92FC
:100650001F921F926F931F921F921F925F93CE0162
:100660000196840F911D840F911DFC0132978181A9
:100670008F9380818F9387EA90E09F938F9388E296
:1006800095E09F938F930E94181125C04F7035817C
:10069000369536953695258127701F921F921F92A9
:1006A0004F931F921F921F923F93CE010196820F8C
:1006B000911D820F911DFC01329781818F93808162
:1006C0008F938EEB90E09F938F9388E295E09F93BA
:1006D0008F930E9418110FB6F894DEBF0FBECDBFE6
:1006E00088E295E02E960FB6F894DEBF0FBECDBF20
:1006F000DF91CF91089520EF30E0FC01318320831A
:10070000DFCCCF93DF93EC01F6DFCE01DF91CF9109
:10071000C8C3CF93DF93EC01D5DC80EF90E09983E1
:100720008883188619861A861B861C861D861E8657
:100730001F86DF91CF910895DF92EF92FF920F9382
:100740001F93CF93DF93FC01062F603408F045C060
:10075000D084E184F2841385D485C585B685A785C8
:1007600021E030E04423C9F040E050E060E070E078
:1007700080E090E00E94B20FD22AE32AF42A152BDF
:10078000D62BC72B8B2B9A2BD086E186F28613872C
:10079000D487C5878687978720C040E050E060E017
:1007A00070E080E090E00E94B20F20953095409577
:1007B00050956095709580959095D222E322F42211
:1007C0001523D623C723B823A923D086E186F28632
:1007D0001387D487C587B687A787DF91CF911F91ED
:1007E0000F91FF90EF90DF900895CF92DF92EF92FC
:1007F000FF920F9380E090E06A017B01082E04C015
:10080000F694E794D794C7940A94D2F73C2D3170AC
:10081000232701968032910579F781E0002319F0B2
:10082000211104C002C0213009F480E00F91FF9033
:10083000EF90DF90CF9008950F931F93CF93DF93A6
:10084000EC01162F2B85229521708A85982F929581
:10085000969597708B858170880F880F880F892BEC
:100860004B854695477030E1439FA00111246627D0
:1008700057FD6095762F482B00E0CE01B6DF882328
:1008800009F4BBC02C8523FB222720F98B85982FE8
:100890009295969597708C858170880F880F880F38
:1008A000892B4C854695437090E1499FA001112406
:1008B000662757FD6095762F482BCE0196DF88235B
:1008C00009F49CC02A85322F3295369537709B8566
:1008D0009170990F990F990F292F232B9B859E704B
:1008E000392F330F330F930F920F9F73392F329598
:1008F000330F307E2A812F71232B2A83969596956C
:1009000096952B81287F922B9B833B85432F429585
:10091000469547709C859170990F990F990F392FC3
:10092000342B9C859670292F220F220F920F930F44
:10093000292F2F719A81907E922B9A839D8596956F
:100940009695292F27709D81987F922B9D839C855A
:1009500092959F702D8523703AE0239F900D11246E
:10096000292F220F220F220F9D819770922B9D839A
:100970003D85432F4295469547709E859170990F0E
:10098000990F990F392F342B9E859270292F220FA2
:10099000220F920F930F292F2F709E81907F922B01
:1009A0009E832E85269526952F709E85392F32950C
:1009B0003695369533709F859370990F990F932BC9
:1009C00030E04AE0949F200D311D11242053384F10
:1009D000422F4295407F9E819F70942B9E8322954B
:1009E0002F709F81907F922B9F83232F2295207FB2
:1009F0009F819F70922B9F8301C080E0112341F063
:100A0000188619861A861B861C861D861E861F86DA
:100A1000DF91CF911F910F910895089542C2CF9217
:100A2000DF92EF92FF920F931F93CF93DF93CDB797
:100A3000DEB72C970FB6F894DEBF0FBECDBFC982CC
:100A4000DA82EB82FC820D831E832F8338874987ED
:100A50005A876B877C87DC0188EF90E08D939D93AC
:100A60008CE0FE01319601900D928A95E1F72C966B
:100A70000FB6F894DEBF0FBECDBFDF91CF911F91AF
:100A80000F91FF90EF90DF90CF900895FC01358596
:100A90000184F285E02D208181E090E002C0880F82
:100AA000991F3A95E2F7662311F0822B05C08095D5
:100AB000909530E08223932380830895FC01808504
:100AC000A281B3814C9121E030E0B90102C0660FF0
:100AD000771F8A95E2F7CB01842B8C937CE17A9582
:100AE000F1F790850280F381E02D808102C0220F12
:100AF000331F9A95E2F72095309590E0282339230B
:100B000020830895CF93DF93DC0116962C911697DE
:100B100012960D90BC91A02D4C91E4E0F0E0EF0115
:100B2000C21BD10920EF30E002C035952795CA9548
:100B3000E2F72095309550E0242335232C93DC01F7
:100B400016963C91169712960D90BC91A02D2C9163
:100B5000607F70E0E31BF10902C075956795EA9527
:100B6000E2F7622B6C93DF91CF91A8CF1F93CF93C5
:100B7000DF93EC01162F9F81EA81FB81808121E0C8
:100B800030E001C0220F9A95EAF7282B2083CE018E
:100B9000B9DF612F6295607FCE01B4DF80E48A9572
:100BA000F1F70000DF91CF911F9108950F931F93EC
:100BB000CF93DF938C01EB016991662319F0C80193
:100BC000D5DFFACFDF91CF911F910F9108951F9339
:100BD000CF93DF93EC01162F8F81EA81FB81408157
:100BE00021E030E002C0220F331F8A95E2F7209502
:100BF000309550E0242335232083CE0183DF612FFD
:100C00006295607FCE017EDF8BE38A95F1F7DF91FD
:100C1000CF911F91089561E0DADF81E398E00197B9
:100C2000F1F70895CF93DF93EC015E812F81488522
:100C300081E090E0BC0101C0660F2A95EAF72FE041
:100C400030E001C0220F5A95EAF7262B01C0880F29
:100C50004A95EAF7822BEC81FD819081982B908355
:100C6000EA81FB81908180958923808380E79DE3E1
:100C70000197F1F700C060E3CE0144DF8AE794E119
:100C80000197F1F700C00000CE0118DF88E194E081
:100C90000197F1F700C0CE0111DF88E194E00197E0
:100CA000F1F700C060E2CE012DDF8AE794E1019701
:100CB000F1F700C0000088E28E878CE08F8786E025
:100CC000888B6E85CE0183DF6F85CE0180DF6889DA
:100CD000CE017DDFCE01DF91CF919DCF62E077DF46
:100CE00081E398E00197F1F70895423059F018F444
:100CF000413031F00895433039F0443039F00895EF
:100D0000605805C0605403C0605701C060535FCF96
:100D1000CF92DF92EF92FF920F931F93CF93DF93C7
:100D200000D0CDB7DEB78C0188E0689FB0011124F8
:100D30006064C80149835A834ADF4981C42E5A81BD
:100D4000D52E7601E8E0EE0EF11CF60161916F01FF
:100D5000C8010CDFCE14DF04C1F70F900F90DF91B4
:100D6000CF911F910F91FF90EF90DF90CF9008955A
:100D7000FC018785662311F0826001C08D7F878723
:100D80006785CF0124CFFC018785662311F0816040
:100D900001C08E7F87876785CF0119CF089581C0F5
:100DA000EF92FF920F931F93FC0186E091E09183F5
:100DB00080833583248340875187628773871383B9
:100DC0000283F782E6821F910F91FF90EF900895C2
:100DD000CF93DF93EC018C819D811DDF8C819D8100
:100DE0007DDF8A819B8149D0BC018C819D81DEDEC3
:100DF0006A858885998557D0882361F08A819B818F
:100E00004AD09B838A836A85888599854CD08111D5
:100E1000FACFE1CF6B858885998545D0882341F34A
:100E20006CEF70E08C819D81C1DEEE81FF811082CC
:100E30006B858885998537D0882341F0EE81FF81C5
:100E400080818230A8F3DF91CF91089542E060E085
:100E50008C819D814ADF8A819B8113D0BCCF08950C
:100E600020C0FC018EE091E09183808373836283D4
:100E700055834483378326830895FC0182819381BF
:100E80000895DC011496ED91FC9115970994FC01ED
:100E9000778366830895FC018681978108950C9479
:100EA000EB0F0C948010FC01208130E0062E02C074
:100EB000359527950A94E2F720FD17C0FDEA27E44F
:100EC00031E0F15020403040E1F700C000C0FC01AB
:100ED000808190E002C0959587956A95E2F78170D0
:100EE0009927F1E08F278170089580E008959BD2C3
:100EF00061E08091720590917305C8DD4EE750E086
:100F000060E0809172059091730502DF46E750E042
:100F100061E08091720590917305FADE4EE650E033
:100F200062E08091720590917305F2DE46E650E032
:100F300063E08091720590917305EADE7894C1E0D8
:100F4000D1D03ED122D217D1809186008111F8CF25
:100F500065E083E390E0A7DF8111F2CFC0938600C4
:100F6000EFCF61E0809172059091730501DF61E040
:100F7000809172059091730506DF42E066E08091F2
:100F8000720590917305B1DE20916E0530916F0569
:100F9000809172059091730527FF03C062E171E0B3
:100FA00002C066E171E002DE42E066E08091720517
:100FB000909173059ADE66E083E390E074DF882306
:100FC00051F080916E0590916F05805890936F0558
:100FD00080936E05D2CF65E083E390E064DF8823E1
:100FE00051F360E08091720590917305C1DE60E07D
:100FF0008091720590917305C6CE6AE171E080918F
:10100000720590917305D2DD29E989E999E12150B2
:1010100080409040E1F70000089563E271E0809124
:10102000720590917305C2DD29E989E999E12150A2
:1010300080409040E1F70000089561E080917205E2
:101040009091730595DE61E0809172059091730532
:101050009ADE42E066E0809172059091730545DE6C
:1010600020916E0530916F05809172059091730506
:1010700022FF03C062E171E002C066E171E096DD2B
:1010800042E066E080917205909173052EDE66E085
:1010900083E390E008DF882359F080916E059091FA
:1010A0006F0524E0822790936F0580936E05D1CF62
:1010B00065E083E390E0F7DE882349F342E050E007
:1010C00069E070E08EE695E00E940B1360E080918D
:1010D0007205909173054CDE60E0809172059091ED
:1010E000730551CE80916E0590916F0585FF42C0CA
:1010F00080916E0590916F0587FF3CC080916E05D1
:1011000090916F058F7D90936F0580936E0584E7B6
:1011100095E0BCD9682F8CE895E099D984E795E0F3
:10112000A9D9682F8CE895E07FD984E795E049DA62
:10113000682F8CE895E019DA84E795E03EDA682FAD
:101140008CE895E00BDA84E795E041DA682F8CE8CB
:1011500095E014DA84E795E03EDABC018CE895E08E
:1011600014DA80916E0590916F05816090936F0500
:1011700080936E05089565E083E390E094DE882314
:10118000F1F0809186008823D1F010928600809142
:101190004E0590914F051CDE80917205909173056C
:1011A0003ADD809172059091730598DD80916E050E
:1011B00090916F05816090936F0580936E050895FF
:1011C00080916E0590916F0580FF85C041E060E0E1
:1011D000809172059091730588DD61E08CE895E05F
:1011E00007DABC018091720590917305DFDC42E063
:1011F00060E0809172059091730577DD61E08CE885
:1012000095E048D9BC018091720590917305CEDCC0
:1012100042E06DE0809172059091730566DD20914A
:101220006E0530916F05809172059091730522FFD4
:1012300003C063E09BDC03C064E171E0B7DC42E023
:101240006FE080917205909173054FDD80916E057E
:1012500090916F0587FD07C062E0809172059091C3
:10126000730584DC2FC080916E0590916F0586FF19
:1012700029C020916E0530916F0580917205909183
:10128000730524FF0BC020916E0530916F052F7EF2
:1012900030936F0520936E0560E00AC020916E05C3
:1012A00030916F05206130936F0520936E0561E0EA
:1012B0005DDC80916E0590916F058F7B90936F053B
:1012C00080936E0580916E0590916F058E7F90934F
:1012D0006F0580936E050895CF92DF92EF92FF9293
:1012E0000F931F93643823E072078105910521F461
:1012F00010924D0510924C0540914C0550914D05B2
:1013000049395105D0F4FA01EE0FFF1FEA50FC4FA6
:101310000081118120E030E0061717072807390700
:1013200031F4CA01019690934D0580934C0580914C
:101330004C0590914D05019719C06C3221E0720760
:1013400081059105B8F40BE211E020E030E068017E
:101350007901C61AD70AE80AF90AD701C601880F27
:10136000991FFC01E256FE4F8081918190934B05BD
:1013700080934A0580914A0590914B051F910F91EA
:10138000FF90EF90DF90CF900895CF92DF92EF9291
:10139000FF92CF93DF9380916E0590916F0582FF4E
:1013A00034C080916E0590916F0590FD35C064E862
:1013B00075E08CE895E00E9486016B017C01611567
:1013C00071058105910551F480916E0590916F052D
:1013D000916090936F0580936E051EC085E8C816D6
:1013E00083E0D806E104F104B8F4CAB5DBB5C7015F
:1013F000B60172DFC817D90729F0C701B6016CDF43
:101400009BBD8ABD8FB5806806C01BBC1ABC19BCC9
:1014100018BC8FB58F758FBDDF91CF91FF90EF9086
:10142000DF90CF9008958F929F92BF92CF92DF92DC
:10143000EF92FF920F931F93CF93DF93CDB7DEB759
:101440002E970FB6F894DEBF0FBECDBF80916E050C
:1014500090916F05806890936F0580936E058091E1
:101460006E0590916F05806490936F0580936E0573
:1014700084B38F7884BBA79885B3806785BBAF9A08
:101480008D9A95988C9A82B3807182BB83EA8FBDC6
:1014900089E08EBD8FEF90E09BBD8ABD84E690E031
:1014A00099BD88BD2CEC8CEC9CE021508040904094
:1014B000E1F700C01BBC1ABC19BC18BC8FB58F75F6
:1014C0008FBD8BE390E09A8389838AE390E09C83CD
:1014D0008B831D8285E08E8384E0B82EBF8288E3F3
:1014E00090E09987888787E390E09B878A871C86AE
:1014F00081E190E0D4DC4C01C980DA80EB80FC8093
:101500000D811E812F81388549855A856B857C85A3
:1015100086DA9092730580927205C40183DB809114
:1015200072059091730577DB8A9885B58E6085BDCD
:1015300089B7806889BF14BC8AE583BD85B783609D
:1015400085BF8BB780648BBFB3BE89B7816089BF0D
:1015500088E090E0A4DC7C0120E030E041EB57E043
:1015600063E371E07EDC00E515E0F801F386E286D6
:1015700088E090E094DC7C01F801228533854DE021
:1015800058E064E471E06DDCF801F186E08688E003
:1015900090E085DC7C01F801208531854DE158E043
:1015A00065E571E05EDCF801F782E68288E090E0B4
:1015B00076DC7C01F801268137814DE15EE066E64C
:1015C00071E04FDCF801F582E48288E090E067DCAE
:1015D0007C01F801248135814DEF57E067E771E028
:1015E00040DCF801F382E28288E090E058DC7C0184
:1015F000F801228133814FEB5CE068E871E031DC77
:10160000F801F182E082B7018285938540DC8CE0AD
:1016100090E045DC4C01F8010081118120917205B8
:101620003091730591E7E92E95E0F92E43E350E000
:1016300066E075E0C401B4DB90924F0580924E05E0
:1016400048E050E060E070E084E895E0D4D71E8682
:101650001D8642E050E069E070E0CE010D96CBD7E8
:101660008D859E858478992790936F0580936E056C
:101670002E960FB6F894DEBF0FBECDBFDF91CF918F
:101680001F910F91FF90EF90DF90CF90BF909F90B0
:101690008F9008951F920F920FB60F9211242F93DF
:1016A0003F934F935F936F937F938F939F93AF93EA
:1016B000BF93EF93FF93809170058F5F80937005C8
:1016C000803420F110927005809171058F5F8093B6
:1016D00071058CE895E00E9473008CE895E00E940B
:1016E000460281110AC08CE895E00E943A028111FD
:1016F00004C08CE895E00E942E0280916E059091C6
:101700006F05816090936F0580936E05FF91EF9157
:10171000BF91AF919F918F917F916F915F914F9109
:101720003F912F910F900FBE0F901F9018951F9211
:101730000F920FB60F9211242F933F934F935F9305
:101740006F937F938F939F93AF93BF93EF93FF9389
:101750008BB78F7B8BBF80916E0590916F0581FF5A
:101760007DC070915E0560915F055091600540916C
:101770006105309162052091630590916405809127
:1017800065057093660560936705509368054093FF
:10179000690530936A0520936B0590936C058093DF
:1017A0006D0510925E0510925F0510926005109213
:1017B0006105109262051092630510926405109203
:1017C000650580916E0590916F058D7F90936F05F3
:1017D00080936E0585B7836085BF80916E0590917B
:1017E0006F05806490936F0580936E052091660568
:1017F00030916705409168055091690560916A05CF
:1018000070916B0580916C0590916D052A3F3105B3
:1018100041055105610571058105910509F008F43F
:1018200050C080915C058B33B1F480916E0590912E
:101830006F05806290936F0580936E0561E084E789
:1018400095E00E941C041092700512BE60E08CE8C6
:1018500095E00E94030210925C0533C080915E0502
:1018600090915F059091600590916105909162055E
:1018700090916305909164059091650580935D0555
:1018800080915D0560915C058F3110F041E001C0F1
:1018900040E084E795E00E949C0380915C058F5FA7
:1018A00080935C0580916E0590916F0582609093A6
:1018B0006F0580936E0585B7826085BF85B78E7F83
:1018C00085BF8BB780648BBFFF91EF91BF91AF91C4
:1018D0009F918F917F916F915F914F913F912F9148
:1018E0000F900FBE0F901F9018951F920F920FB67A
:1018F0000F9211242F933F934F935F936F937F9396
:101900008F939F93AF9320915E0530915F05409137
:101910006005509161056091620570916305809149
:10192000640590916505A1E036D320935E05309360
:101930005F05409360055093610560936205709365
:1019400063058093640590936505AF919F918F9196
:101950007F916F915F914F913F912F910F900FBEAB
:101960000F901F9018958CE895E00E94620084E823
:1019700095E00E94620084E795E00C948903EF9261
:10198000FF920F931F93CF93DF93CDB7DEB72B97C3
:101990000FB6F894DEBF0FBECDBFCE0101960E94F8
:1019A00062008CE895E00E944602682FCE01019605
:1019B0000E9427028CE895E00E943A02682FCE012F
:1019C00001960E9414028CE895E00E942E02682F76
:1019D000CE0101960E94030261E080917205909110
:1019E0007305C6D961E08091720590917305CBD9DA
:1019F00042E064E0809172059091730576D961E0D0
:101A0000CE0101960E944A02BC018091720590911C
:101A10007305CCD842E064E0809172059091730523
:101A200064D929E9E22E21E0F22E8E01075F1F4FD3
:101A3000CE0101960E9446021F928F93FF92EF9271
:101A40001F930F93F5D3B8018091720590917305A0
:101A5000ADD842E064E0809172059091730545D95C
:101A60000F900F900F900F900F900F9066E083E310
:101A700090E019DA882399F0CE0101960E9446027F
:101A8000873111F460E006C0CE0101960E94460243
:101A900061E0680FCE0101960E942702C9CF65E080
:101AA00083E390E000DA882309F399E9E92E91E0D5
:101AB000F92E42E067E0809172059091730515D987
:101AC000CE0101960E943A021F928F93FF92EF92ED
:101AD0001F930F93ADD3B801809172059091730558
:101AE00065D842E067E08091720590917305FDD85A
:101AF0000F900F900F900F900F900F9066E083E380
:101B000090E0D1D9882399F0CE0101960E943A0243
:101B10008B3311F460E006C0CE0101960E943A02B8
:101B200061E0680FCE0101960E941402C2CF65E009
:101B300083E390E0B8D9882309F389E9E82E81E0AE
:101B4000F82E42E06AE08091720590917305CDD83D
:101B5000CE0101960E942E021F928F93FF92EF9268
:101B60001F930F9365D3B80180917205909173050F
:101B70001DD842E06AE08091720590917305B5D856
:101B80000F900F900F900F900F900F9066E083E3EF
:101B900090E089D9882399F0CE0101960E942E0207
:101BA0008B3311F460E006C0CE0101960E942E0234
:101BB00061E0680FCE0101960E940302C2CF65E08A
:101BC00083E390E070D9882309F3CE0101960E9447
:101BD0004602682F8CE895E00E942702CE0101960C
:101BE0000E943A02682F8CE895E00E941402CE0110
:101BF00001960E942E02682F8CE895E00E94030255
:101C000060E08091720590917305B2D860E0809198
:101C1000720590917305B7D8CE0101960E946000BD
:101C20002B960FB6F894DEBF0FBECDBFDF91CF91DC
:101C30001F910F91FF90EF900895EF92FF920F93F5
:101C40001F93CF93DF93CDB7DEB72B970FB6F894E2
:101C5000DEBF0FBECDBFCE0101960E94620084E8B8
:101C600095E00E944602682FCE0101960E9427024D
:101C700084E895E00E943A02682FCE0101960E9406
:101C8000140284E895E00E942E02682FCE0101968E
:101C90000E94030261E0809172059091730568D8FB
:101CA00061E080917205909173056DD842E064E027
:101CB000809172059091730518D861E0CE0101966C
:101CC0000E944A02BC0180917205909173050E94A6
:101CD000D60542E064E0809172059091730505D8C5
:101CE00029E9E22E21E0F22E8E01075F1F4FCE017F
:101CF00001960E9446021F928F93FF92EF921F93CC
:101D00000F9396D2B80180917205909173050E944D
:101D1000D60542E064E080917205909173050E94BF
:101D200075060F900F900F900F900F900F9066E038
:101D300083E390E0B8D8882399F0CE0101960E9401
:101D40004602873111F460E006C0CE0101960E9480
:101D5000460261E0680FCE0101960E942702C7CFBC
:101D600065E083E390E09FD8882309F399E9E92EA1
:101D700091E0F92E42E067E0809172059091730541
:101D80000E947506CE0101960E943A021F928F931F
:101D9000FF92EF921F930F934BD2B801809172057F
:101DA000909173050E94D60542E067E0809172052C
:101DB000909173050E9475060F900F900F900F90F1
:101DC0000F900F9066E083E390E06DD8882399F040
:101DD000CE0101960E943A028B3311F460E006C0F6
:101DE000CE0101960E943A0261E0680FCE01019691
:101DF0000E941402BFCF65E083E390E054D88823AB
:101E000009F389E9E82E81E0F82E42E06AE080914A
:101E10007205909173050E947506CE0101960E948D
:101E20002E021F928F93FF92EF921F930F9300D277
:101E3000B80180917205909173050E94D60542E029
:101E40006AE080917205909173050E9475060F906B
:101E50000F900F900F900F900F9066E083E390E04B
:101E600022D8882399F0CE0101960E942E028B334E
:101E700011F460E006C0CE0101960E942E0261E0DE
:101E8000680FCE0101960E940302BFCF65E083E395
:101E900090E009D8882309F3CE0101960E944602FA
:101EA000682F84E895E00E942702CE0101960E94E7
:101EB0003A02682F84E895E00E941402CE01019650
:101EC0000E942E02682F84E895E00E94030248E0F9
:101ED00050E060E070E084E895E09DD360E08091A0
:101EE0007205909173050E94B80660E080917205BA
:101EF000909173050E94C306CE0101960E94600076
:101F00002B960FB6F894DEBF0FBECDBFDF91CF91F9
:101F10001F910F91FF90EF90089584E795E00E9444
:101F20007B0384E895E00E9460008CE895E00C94C7
:101F3000600097FB072E16F4009406D077FD08D0BA
:101F400036D007FC05D03EF4909581959F4F0895BB
:101F5000709561957F4F0895EE0FFF1F0590F491E6
:101F6000E02D09940F93083090F0982F872F762F4B
:101F7000652F542F432F322F22270850F4CF220FE2
:101F8000331F441F551F661F771F881F991F0A950F
:101F9000B2F70F9108950024A7FD00942A0F301D79
:101FA000401D501D601D701D801D901D0895AA1BB1
:101FB000BB1B51E107C0AA1FBB1FA617B70710F034
:101FC000A61BB70B881F991F5A95A9F78095909566
:101FD000BC01CD010895CF93DF938230910510F4B9
:101FE00082E090E0E0919605F091970520E030E0E6
:101FF000C0E0D0E0309711F1408151814817590776
:10200000C0F04817590761F482819381209719F035
:102010009B838A832BC0909397058093960526C057
:102020002115310519F04217530718F49A01BE0122
:10203000DF01EF010280F381E02DDCCF21153105B6
:1020400009F1281B390B2430310590F412968D913B
:102050009C9113976115710521F0FB019383828395
:1020600004C09093970580939605FD01329644C075
:10207000FD01E20FF31F81939193225031092D93BB
:102080003C933AC02091940530919505232B41F45F
:102090002091620030916300309395052093940560
:1020A00020916000309161002115310541F42DB778
:1020B0003EB74091640050916500241B350BE091C0
:1020C0009405F0919505E217F307A0F42E1B3F0B42
:1020D0002817390778F0AC014E5F5F4F241735079A
:1020E00048F04E0F5F1F50939505409394058193E0
:1020F000919302C0E0E0F0E0CF01DF91CF9108952D
:102100000F931F93CF93DF93009709F48CC0FC01CA
:10211000329713821282009196051091970501154E
:10212000110581F420813181820F931F2091940544
:10213000309195052817390779F5F0939505E093C7
:10214000940571C0D80140E050E0AE17BF0750F4CD
:1021500012962D913C911397AD012115310509F18E
:10216000D901F3CF9D01DA0133832283608171812C
:10217000860F971F8217930769F4EC012881398134
:10218000260F371F2E5F3F4F318320838A819B812B
:1021900093838283452B29F4F0939705E09396056A
:1021A00042C01396FC93EE931297ED014991599119
:1021B0009E01240F351FE217F30771F4808191818E
:1021C000840F951F029611969C938E938281938122
:1021D00013969C938E931297E0E0F0E0D80112964C
:1021E0008D919C911397009719F0F8018C01F6CF0F
:1021F0008D919C9198012E5F3F4F820F931F2091EC
:102200009405309195052817390769F4309729F41A
:10221000109297051092960502C0138212821093B5
:10222000950500939405DF91CF911F910F9108952B
:10223000AEE0B0E0EDE1F1E1BEC20D891E8986E0BD
:102240008C831A8309838FEF9FE79E838D83AE0172
:10225000475E5F4F6F89788DCE01019609D02F813F
:102260003885F801E20FF31F10822E96E4E0BFC21A
:10227000ACE0B0E0EDE3F1E190C27C016B018A01DA
:10228000FC0117821682838181FFB0C1CE010196C5
:102290004C01F7019381F60193FD859193FF8191A4
:1022A0006F01882309F49EC1853239F493FD85912D
:1022B00093FF81916F01853221F4B70190E0D7D16E
:1022C000E8CF512C312C20E02032A0F48B3269F081
:1022D00030F4803259F0833269F420612CC08D32A1
:1022E00039F0803339F4216026C02260246023C095
:1022F000286021C027FD27C030ED380F3A3078F430
:1023000026FF06C0FAE05F9E300D1124532E13C045
:102310008AE0389E300D1124332E20620CC08E329C
:1023200021F426FD5FC1206406C08C3611F42068BC
:1023300002C0883641F4F60193FD859193FF8191A7
:102340006F018111C1CF982F9F7D9554933028F450
:102350000C5F1F4FFFE3F9830DC0833631F08337E5
:1023600071F0833509F057C021C0F801808189835D
:102370000E5F1F4F44244394512C540114C0380164
:10238000F2E06F0E711CF801A080B18026FF03C03F
:10239000652D70E002C06FEF7FEFC5012C875CD127
:1023A0002C0183012C852F77222E16C03801F2E0F4
:1023B0006F0E711CF801A080B18026FF03C0652D4F
:1023C00070E002C06FEF7FEFC5012C873AD12C017E
:1023D0002C852068222E830123FC19C0832D90E0D8
:1023E00048165906A0F4B70180E290E040D13A9433
:1023F000F5CFF50127FC859127FE81915F01B7019B
:1024000090E035D131103A94F1E04F1A510841145F
:10241000510479F7DEC0843611F0893631F5F801C0
:1024200027FF07C060817181828193810C5F1F4FFC
:1024300008C060817181882777FD8095982F0E5F95
:102440001F4F2F76722E97FF09C09095809570953B
:1024500061957F4F8F4F9F4F2068722E2AE030E0AA
:10246000A4013DD1A82EA81843C0853729F42F7E9A
:10247000B22E2AE030E025C0F22FF97FBF2E8F3632
:10248000C1F018F4883579F0ADC0803719F088377D
:1024900021F0A8C02F2F2061B22EB4FE0DC08B2DCD
:1024A0008460B82E09C024FF0AC09F2F9660B92E01
:1024B00006C028E030E005C020E130E002C020E1A5
:1024C00032E0F801B7FE07C060817181828193819B
:1024D0000C5F1F4F06C06081718180E090E00E5F4D
:1024E0001F4FA401FCD0A82EA818FB2DFF777F2E2C
:1024F00076FE0BC0372D3E7FA51450F474FE0AC043
:1025000072FC08C0372D3E7E05C0BA2C372D03C0A3
:10251000BA2C01C0B52C34FF0DC0FE01EA0DF11D2F
:102520008081803311F4397E09C032FF06C0B39434
:10253000B39404C0832F867809F0B39433FD12C09E
:1025400030FF06C05A2CB31418F4530C5B18B32C8C
:10255000B31460F4B70180E290E03C8788D0B39474
:102560003C85F6CFB31410F43B1801C0312C34FF76
:1025700011C0B70180E390E03C8779D03C8532FF01
:1025800016C031FD03C088E790E002C088E590E006
:10259000B7010CC0832F867851F031FF02C08BE267
:1025A00001C080E237FD8DE2B70190E060D0A51454
:1025B00030F4B70180E390E05AD05A94F8CFAA944F
:1025C000F401EA0DF11D8081B70190E050D0A11017
:1025D000F6CF332009F45DCEB70180E290E047D01A
:1025E0003A94F7CFF7018681978102C08FEF9FEF72
:1025F0002C96E2E1EEC0DC01CB01FC01E199FECFBB
:1026000006C0FFBBEEBBE09A31960DB20D92415071
:102610005040B8F70895DC01CB0102C02D9105D0E0
:1026200041505040D8F70895262FE199FECF9FBB27
:102630008EBB2DBB0FB6F894E29AE19A0FBE0196BD
:102640000895FC010590615070400110D8F7809505
:1026500090958E0F9F1F0895FC016150704001906E
:102660000110D8F7809590958E0F9F1F08950F93B6
:102670001F93CF93DF93FB01238121FD03C08FEFD5
:102680009FEF28C022FF16C04681578124813581E3
:102690004217530744F4A081B1819D012F5F3F4F42
:1026A000318320838C93268137812F5F3F4F37837F
:1026B000268310C0EB01092F182F0084F185E02D2F
:1026C0000995892BE1F68E819F8101969F838E83E8
:1026D000812F902FDF91CF911F910F910895FA01D3
:1026E000AA27283051F1203181F1E8946F936E7F51
:1026F0006E5F7F4F8F4F9F4FAF4FB1E03ED0B4E042
:102700003CD0670F781F891F9A1FA11D680F791F82
:102710008A1F911DA11D6A0F711D811D911DA11D93
:1027200020D009F468943F912AE0269F11243019A3
:10273000305D3193DEF6CF010895462F4770405D3E
:102740004193B3E00FD0C9F7F6CF462F4F70405DED
:102750004A3318F0495D31FD4052419302D0A9F748
:10276000EACFB4E0A6959795879577956795BA9542
:10277000C9F700976105710508959B01AC010A2E08
:1027800006945795479537952795BA95C9F7620FDF
:10279000731F841F951FA01D08952F923F924F9283
:1027A0005F926F927F928F929F92AF92BF92CF92E1
:1027B000DF92EF92FF920F931F93CF93DF93CDB7EA
:1027C000DEB7CA1BDB0B0FB6F894DEBF0FBECDBF62
:1027D00009942A88398848885F846E847D848C8433
:1027E0009B84AA84B984C884DF80EE80FD800C813C
:1027F0001B81AA81B981CE0FD11D0FB6F894DEBF1F
:102800000FBECDBFED01089510E0CEE6D0E003C0CD
:10281000FE01A4DB2296C037D107D1F7F894FFCF91
:1028200000009805200000040A0A0A1F0400000A9C
:10283000040A04040E1F0000000004040E1F00041C
:102840000A0004040E1F01CF00D200D500D800DB1F
:1028500000DE00E100252E326C753A252E326C75B3
:102860003A252E326C75002573202D202530326CD0
:10287000752E2530326C752E2530346C750025731D
:10288000202D202530326C752E2530326C75004D90
:102890006F004469004D6900446F00467200536147
:1028A00000536F00000000006000610000000000A5
:1028B0007B038103000000000D050E054472756363
:1028C0006B0000000000CE06CF06000000002F07BE
:1028D00030074F6E20004F666600536574204461D8
:1028E00074650053657420536E6F6F7A6520546968
:1028F0006D65002A2A2044434620616E2F6175735E
:10290000202A2A002A2A20536E6F6F7A65205A6582
:102910006974202A002A20416C61726D20616E2F3B
:10292000617573202A002A2A2A205765636B7A650D
:102930006974202A2A2A002A2A2A2A2A2044617411
:10294000756D202A2A2A2A002A2A2A2A2A205A652C
:102950006974202A2A2A2A2A00252E326400980027
:1029600099009A009A009B009C009C009D009E008C
:102970009F009F00A000A100A200A200A300A4004D
:10298000A500A600A600A700A800A900AA00AB0009
:10299000AC00AC00AD00AE00AF00B000B100B200C2
:1029A000B300B300B400B500B600B700B800B9007A
:1029B000BA00BB00BC00BD00BE00BF00C000C1002B
:1029C000C200C300C400C500C600C700C900CA00D9
:1029D000CB00CC00CD00CE00CF00D000D200D30081
:1029E000D400D500D600D700D900DA00DB00DC0027
:1029F000DE00DF00E000E100E300E400E500E700C6
:102A0000E800E900EB00EC00ED00EF00F000F20060
:102A1000F300F400F600F700F900FA00FC00FD00F6
:102A2000FF000001020103010501070108010A017D
:102A30000B010D010F011001120114011501170105
:102A400019011B011C011E01200122012301250186
:102A5000270129012B012D012F0131013201340100
:102A6000360138013A013C013E0140014201450175
:102A7000470149014B014D014F01510154015601DC
:102A800058015A015C015F0161016301660168013F
:102A90006A016D016F0172017401770179017C0196
:102AA0007E0181018301860188018B018E019001E5
:102AB0009301960199019B019E01A101A401A70127
:102AC000A901AC01AF01B201B501B801BB01BE0162
:102AD000C101C401C801CB01CE01D101D401D8018B
:102AE000DB01DE01E101E501E801EC01EF01F201AA
:102AF000F601F901FD010102040208020B020F02B6
:102B0000130217021A021E02220226022A022E02B3
:102B1000320236023A023E02420246024A024E02A5
:102B2000520257025B025F02640268026D02710288
:102B300076027A027F02830288028D029102960257
:102B40009B02A002A502A902AE02B302B802BE0215
:102B5000C302C802CD02D202D802DD02E202E802BC
:102B6000ED02F302F802FE02030309030F0315034B
:102B70001A03200326032C03320338033E034403C5
:102B80004B03510357035D0364036A037103770327
:102B90007E0385038B0392039903A003A703AE036F
:102BA000B503BC03C303CA03D203D903E003E8039C
:102BB000EF03FF03FF03840380037C0378037403A4
:102BC00070036C036803640360035C0358035403DD
:102BD00050034C034803440340033C0338033403CD
:102BE00030032C032803240320031C0318031403BD
:102BF00010030C03080304030003FC02FB02F802A9
:102C0000F402F002EC02E802E402E002DC02D80284
:102C1000D402D002CC02C802C402C002BC02B80274
:102C2000B402B002AC02A802A402A0029C02980264
:102C3000940290028C028802840280027C02780254
:102C4000740270026C026802640260025C02580244
:102C5000540250024C024802440240023C02380234
:102C6000340230022C022802240220021C02180224
:102C7000140210020C02080204020002FC01F80116
:102C8000F401F001EC01E801E401E001DC01D8010C
:102C9000D401D001CC01C801C401C001BC01B801FC
:102CA000B401B001AC01A801A401A0019C019801EC
:102CB000940190018C018801840180017C017801DC
:102CC0007701740170016C016801640160015C01AD
:102CD0005801540150014C014801440140013C019C
:082CE0003801340130012C0120
:00000001FF
