:1000000020C0C8C843C08FC941C040C03FC03EC027
:100010003DC07BC83BC03AC039C038C037C036C0CD
:1000200035C034C033C04FC1C7C04DC1F9C04BC18A
:10003000F7C049C148C1F4C046C1F2C044C1D109AA
:10004000DA0911241FBECFE5D4E0DEBFCDBF11E039
:10005000A0E6B0E0E8E6FCE102C005900D92AA350A
:10006000B107D9F711E0AAE5B1E001C01D92A53CA6
:10007000B107E1F710E0C0E4D0E003C02297FE0131
:10008000F0D9CE33D107D1F797D6E2CDB9CF0895C5
:1000900072C6FC0187EC90E0918380831282138208
:1000A00084818E7F848389E0858381EB86838BE7DF
:1000B00087830895CF93DF93EC018B81982F9695DA
:1000C000969596958C8181708295880F807E892B7C
:1000D0008F5F8F73282F220F220F220F9B81977023
:1000E000922B9B83282F2295269527709C819E7F9B
:1000F000922B9C838C33B9F58B8187708B838C8199
:100100008E7F8C838A81982F9295969597708B819C
:100110008770880F880F880F892B8F5F8F73282F28
:100120002295220F207E9A819F71922B9A83282FED
:100130002695269526959B81987F922B9B838C33C1
:1001400091F48A818F718A838B81887F8B838A81E6
:100150008F5F8F719A81907E982B9A83883119F4E2
:100160008A81807E8A838A818F7109F0B0C08A81FA
:10017000982F9295969597708B818770880F880F2E
:10018000880F892B09F0A3C08B81982F969596959F
:1001900096958C8181708295880F807E892B09F0DD
:1001A00096C0EE81EF70F0E03197EC30F10508F089
:1001B0008CC0ED5EFF4F09942E8122952F703F81F8
:1001C0003295307F832F822B2F81922F92959F70B3
:1001D00083709927892B81F48E81982F92959F7037
:1001E0008F818295807F892B9F8192959F7064E695
:1001F00070E0E9D8892B91F48E81982F92959F70A9
:100200008F818295807F892B9F8192959F7060E975
:1002100071E0D9D8892B11F02CE103C02DE101C088
:100220002EE18D818695869586958F5F8F71382F0B
:10023000330F330F330F9D819770932B9D8390E085
:1002400030E02817390794F58D8187708D838E8172
:100250008F5F8F709E81907F982B9E838D3030F1C1
:100260002E8122952F703F813295307F832F822BF4
:100270002F81922F92959F7001969F70382F329503
:10028000307F2E812F70232B2E83282F22952F70C5
:100290008F81807F822B8F839295907F8F818F704B
:1002A000892B8F838E81807F81608E838D818F5F8C
:1002B00087709D81987F982B9D83873041F48D8135
:1002C000887F8D8304C02FE1ACCF20E0AACFDF91DF
:1002D000CF910895FC01962F990F990F990F838163
:1002E0008770892B838365FB992790F964816E7FE2
:1002F000692B64830895FC01962F9F736295660FA6
:10030000607E82818F71682B6283292F26952695C6
:1003100026959381987F922B93830895FC016F71AA
:100320009281907E692B62830895FC01938196955A
:1003300096959695848181708295880F807E892B11
:100340000895FC01928192959695977083818770AC
:10035000880F880F880F892B0895FC0182818F7187
:100360000895FC016623B1F12381822F869586953D
:100370008695248121702295220F207E282B828150
:10038000982F92959695977083818770880F880F24
:10039000880F892B92819F711F921F921F922F931A
:1003A0001F921F921F928F931F921F921F929F93D3
:1003B00084E790E09F938F938BE691E09F938F93D8
:1003C00081D98DB79EB740960FB6F8949EBF0FBEE9
:1003D0008DBF26C08281982F9295969597708381C4
:1003E0008770880F880F880F892B92819F711F92C9
:1003F0001F921F928F931F921F921F929F938AE7C3
:1004000090E09F938F938BE691E09F938F935AD9BF
:100410008DB79EB70C960FB6F8949EBF0FBE8DBFDA
:100420008BE691E00895FC0167709581987F692BB8
:1004300065830895FC01660F660F660F95819770BE
:10044000692B65830895FC016F709681907F692BFD
:1004500066830895FC017F70962F9295907F868128
:100460008F70892B8683962F92959F708781807FCE
:10047000892B8783972F9295907F87818F70892B07
:1004800087830895FC01858187700895FC0185812B
:100490008695869586950895FC0186818F700895CE
:1004A000FC012681822F82958F7037813295307FB3
:1004B0009781832B92959F700895CF93DF93CDB74B
:1004C000DEB72E970FB6F894DEBF0FBECDBF2EE07D
:1004D000E6E6F0E0DE01119601900D922A95E1F733
:1004E000FC0146816623B1F142954F7057815295C8
:1004F000507F252F242B4781342F32953F70668102
:100500006F70558156955695569545814770C9012E
:100510001F921F929F938F931F921F921F926F9310
:100520001F921F921F925F93CE010196840F911D1F
:10053000840F911DFC01329781818F9380818F936D
:1005400086E890E09F938F938AE591E09F938F9345
:10055000B9D824C04F7035813695369536952581AA
:1005600027701F921F921F924F931F921F921F92EC
:100570003F93CE010196820F911D820F911DFC01C8
:10058000329781818F9380818F938DE990E09F9343
:100590008F938AE591E09F938F9394D80FB6F89448
:1005A000DEBF0FBECDBF8AE591E02E960FB6F89460
:1005B000DEBF0FBECDBFDF91CF9108952FEC30E0AD
:1005C000FC013183208363CDCF93DF93EC01F6DF11
:1005D000CE01DF91CF91CFC3CF93DF93EC0159DDF3
:1005E0008FEC90E099838883188619861A861B867B
:1005F0001C861D861E861F86DF91CF910895DF928F
:10060000EF92FF920F931F93CF93DF93FC01062F7E
:10061000603408F043C0D084E184F2841385D4852B
:10062000C585B685A78521E030E04423C1F040E0D0
:1006300050E060E070E080E090E0D8D6D22AE32A73
:10064000F42A152BD62BC72B8B2B9A2BD086E18621
:10065000F2861387D487C587868797871FC040E0B7
:1006600050E060E070E080E090E0C0D620953095EA
:10067000409550956095709580959095D222E32293
:10068000F4221523D623C723B823A923D086E186D5
:10069000F2861387D487C587B687A787DF91CF9166
:1006A0001F910F91FF90EF90DF900895CF92DF920E
:1006B000EF92FF920F9380E090E06A017B01082E99
:1006C00004C0F694E794D794C7940A94D2F73C2DCB
:1006D0003170232701968032910579F781E000235C
:1006E00019F0211104C002C0213009F480E00F91FB
:1006F000FF90EF90DF90CF9008950F931F93CF93CB
:10070000DF93EC01162F2B85229521708A85982F77
:100710009295969597708B858170880F880F880FBA
:10072000892B4B854695477030E1439FA0011124EA
:10073000662757FD6095762F482B00E0CE01B6DF87
:10074000882309F4BBC02C8523FB222720F98B8545
:10075000982F9295969597708C858170880F880F49
:10076000880F892B4C854695437090E1499FA001E5
:100770001124662757FD6095762F482BCE0196DF12
:10078000882309F49CC02A85322F3295369537701C
:100790009B859170990F990F990F292F232B9B857A
:1007A0009E70392F330F330F930F920F9F73392F92
:1007B0003295330F307E2A812F71232B2A83969511
:1007C000969596952B81287F922B9B833B85432F73
:1007D0004295469547709C859170990F990F990F96
:1007E000392F342B9C859670292F220F220F920FC0
:1007F000930F292F2F719A81907E922B9A839D853A
:1008000096959695292F27709D81987F922B9D8391
:100810009C8592959F702D8523703AE0239F900DC3
:100820001124292F220F220F220F9D819770922BC6
:100830009D833D85432F4295469547709E859170D7
:10084000990F990F990F392F342B9E859270292F6C
:10085000220F220F920F930F292F2F709E81907FCE
:10086000922B9E832E85269526952F709E85392F57
:1008700032953695369533709F859370990F990F01
:10088000932B30E04AE0949F200D311D112420531A
:10089000384F422F4295407F9E819F70942B9E83BC
:1008A00022952F709F81907F922B9F83232F2295DB
:1008B000207F9F819F70922B9F8301C080E0112336
:1008C00041F0188619861A861B861C861D861E8690
:1008D0001F86DF91CF911F910F91089508954BC20C
:1008E000CF92DF92EF92FF920F931F93CF93DF93FC
:1008F000CDB7DEB72C970FB6F894DEBF0FBECDBFD5
:10090000C982DA82EB82FC820D831E832F833887B3
:1009100049875A876B877C87DC0187ED90E08D9350
:100920009D938CE0FE01319601900D928A95E1F73E
:100930002C960FB6F894DEBF0FBECDBFDF91CF91DE
:100940001F910F91FF90EF90DF90CF900895FC01E1
:1009500035850184F285E02D208181E090E002C0A0
:10096000880F991F3A95E2F7662311F0822B05C094
:100970008095909530E08223932380830895FC0135
:100980008085A281B3814C9121E030E0B90102C0A1
:10099000660F771F8A95E2F7CB01842B8C937CE15D
:1009A0007A95F1F790850280F381E02D808102C075
:1009B000220F331F9A95E2F72095309590E0282377
:1009C000392320830895CF93DF93DC0116962C9171
:1009D000169712960D90BC91A02D4C91E4E0F0E09A
:1009E000EF01C21BD10920EF30E002C035952795F9
:1009F000CA95E2F72095309550E0242335232C93B7
:100A0000DC0116963C91169712960D90BC91A02D84
:100A10002C91607F70E0E31BF10902C0759567952A
:100A2000EA95E2F7622B6C93DF91CF91A8CF1F93E9
:100A3000CF93DF93EC01162F9F81EA81FB818081A8
:100A400021E030E001C0220F9A95EAF7282B20839D
:100A5000CE01B9DF612F6295607FCE01B4DF80E403
:100A60008A95F1F70000DF91CF911F9108950F93C0
:100A70001F93CF93DF938C01EB016991662319F0EB
:100A8000C801D5DFFACFDF91CF911F910F91089563
:100A90001F93CF93DF93EC01162F8F81EA81FB81A7
:100AA000408121E030E002C0220F331F8A95E2F737
:100AB0002095309550E0242335232083CE0183DF19
:100AC000612F6295607FCE017EDF8BE38A95F1F71F
:100AD000DF91CF911F91089561E0DADF81E398E023
:100AE0000197F1F70895CF93DF93EC015E812F8199
:100AF000488581E090E0BC0101C0660F2A95EAF7C5
:100B00002FE030E001C0220F5A95EAF7262B01C0F2
:100B1000880F4A95EAF7822BEC81FD819081982B12
:100B20009083EA81FB81908180958923808380E78F
:100B30009DE30197F1F700C060E3CE0144DF8AE74F
:100B400094E10197F1F700C00000CE0118DF88E1C1
:100B500094E00197F1F700C0CE0111DF88E194E045
:100B60000197F1F700C060E2CE012DDF8AE794E142
:100B70000197F1F700C0000068E2CE0189DF6CE068
:100B8000CE0186DF66E0CE0183DFCE01DF91CF911B
:100B9000A3CF62E07DDF81E398E00197F1F708954C
:100BA000423059F018F4413031F00895433039F0B3
:100BB000443039F00895605805C0605403C0605750
:100BC00001C0605365CF0895D6C0EF92FF920F9396
:100BD0001F93FC0188EE90E091838083358324830A
:100BE000408751876287738713830283F782E68287
:100BF0001F910F91FF90EF900895EF92FF920F9346
:100C00001F93CF93DF93CDB7DEB760970FB6F894FD
:100C1000DEBF0FBECDBF8C01D80114968D919C9183
:100C200015975ADFF80184819581B3DFD8011296B8
:100C30008D919C91139792D0BC01F801848195818C
:100C400016DFD8011A966C911A9718968D919C917F
:100C5000199792D08823D1F0F8018281938186D0B0
:100C6000D80113969C938E9312971A966C911A97AB
:100C700018968D919C9119977FD0F82EF801628576
:100C80008085918579D08111F9CF4AC042E060E03A
:100C9000D80114968D919C91159782DFF801638598
:100CA0008085918569D0882361F260E0D80114962F
:100CB0008D919C9115974BDE6BED70E0F80184816E
:100CC0009581D5DED8011696ED91FC91179710828B
:100CD000B9E9E9E9F9E1B150E040F040E1F700009D
:100CE000D8011696ED91FC91179780811F928F93F2
:100CF00081EE90E09F938F93FE0131967F01FF92EA
:100D0000EF93E0D4B701D80114968D919C9115977B
:100D1000AEDE0F900F900F900F900F900F90FFCFBF
:100D2000FF2009F479CF60960FB6F894DEBF0FBEAE
:100D3000CDBFDF91CF911F910F91FF90EF9008955C
:100D4000089519C0FC0180EF90E091838083738344
:100D5000628355834483378326830895FC0182810F
:100D600093810895FC01778366830895FC01868151
:100D7000978108957AC30EC4FC01208130E0062ECD
:100D800002C0359527950A94E2F720FD13C0FDEACD
:100D900027E431E0F15020403040E1F700C000C0CE
:100DA000FC01808190E002C0959587956A95E2F7F5
:100DB0008170089580E008959BD061E080919F014B
:100DC0009091A001C4DD789480917C0190917D0187
:100DD00014DF80919C0185FF34C080919C018F7D40
:100DE00080939C0181EA91E0B8DA682F89EB91E069
:100DF00095DA81EA91E0A5DA682F89EB91E07BDA58
:100E000081EA91E043DB682F89EB91E013DB81EA13
:100E100091E038DB682F89EB91E005DB81EA91E016
:100E20003BDB682F89EB91E00EDB81EA91E038DB58
:100E3000BC0189EB91E00EDB80919C018160809385
:100E40009C0180919C0180FFC4CF41E060E08091D3
:100E50009F019091A001A4DE61E089EB91E02DDB80
:100E6000BC0180919F019091A00101DE42E060E011
:100E700080919F019091A00193DE61E089EB91E068
:100E800070DABC0180919F019091A001F0DD80910A
:100E90009C0186FF21C042E06FE080919F0190910C
:100EA000A0017EDE80919C0120919F013091A001E4
:100EB00090919C0184FF05C09F7E90939C0160E20D
:100EC00004C0906190939C016EE2C901B0DD8091F5
:100ED0009C018F7B80939C0180919C018E7F8093ED
:100EE0009C0177CF08950895089508950895089571
:100EF0008F929F92BF92CF92DF92EF92FF920F93C9
:100F00001F93CF93DF93CDB7DEB72C970FB6F8942E
:100F1000DEBF0FBECDBF81B38F7181BBB89882B3E6
:100F2000806E82BBC09AB99AC198BA9A88B384700D
:100F300088BB81EA8FBD89E08EBD8FEF90E09BBDBD
:100F40008ABD84E690E099BD88BD2CEC8CEC9CE0D9
:100F5000215080409040E1F700C01BBC1ABC19BC76
:100F600018BC8FB58F758FBD85E390E09A83898318
:100F700084E390E09C838B831D8285E08E8384E0F4
:100F8000B82EBF8282E390E09987888781E390E062
:100F90009B878A871C868EE090E0ECDE4C01C9803E
:100FA000DA80EB80FC800D811E812F813885498598
:100FB0005A856B857C8594DC9092A00180929F017C
:100FC000C40191DD80919F019091A00185DD8A98F7
:100FD00085B58E6085BD89B7806889BF14BC8AE5F8
:100FE00083BD85B7836085BF8BB780648BBFB3BE7D
:100FF00089B7816089BF88E090E0BCDE7C0120E099
:1010000030E047E757E064EF70E09CDE0EE711E068
:10101000F801F386E28688E090E0ACDE7C01F8011E
:101020002285338546E757E065E071E08BDEF80105
:10103000F186E08688E090E09DDE7C01F801208565
:10104000318545E757E066E171E07CDEF801F78223
:10105000E68288E090E08EDE7C01F801268137810F
:1010600044E757E067E271E06DDEF801F582E48263
:1010700088E090E07FDE7C01F8012481358143E740
:1010800057E068E371E05EDEF801F382E28288E017
:1010900090E070DE7C01F8012281338142E757E065
:1010A00069E471E04FDEF801F182E082B7018285E8
:1010B000938558DE8CE090E05DDE4C01F801008104
:1010C000118120919F013091A0019EE9E92E91E0CC
:1010D000F92E40E350E067E076E0C40176DD9092BF
:1010E0007D0180927C012C960FB6F894DEBF0FBE76
:1010F000CDBFDF91CF911F910F91FF90EF90DF90C7
:10110000CF90BF909F908F9008951F920F920FB62F
:101110000F9211242F933F934F935F936F937F937D
:101120008F939F93AF93BF93EF93FF9380919D0114
:101130008F5F80939D018034E0F010929D0180913B
:101140009E018F5F80939E0189EB91E0B3D789EB7D
:1011500091E003D9811108C089EB91E0F2D88111A7
:1011600003C089EB91E0E1D880919C01816080937C
:101170009C01FF91EF91BF91AF919F918F917F91D2
:101180006F915F914F913F912F910F900FBE0F90F4
:101190001F9018951F920F920FB60F9211242F9344
:1011A0003F934F935F936F937F938F939F93AF93EF
:1011B000BF93EF93FF938BB78F7B8BBF80919C0185
:1011C00081FF6FC070918C0160918D0150918E01F3
:1011D00040918F0130919001209191019091920165
:1011E00080919301709394016093950150939601BF
:1011F00040939701309398012093990190939A011D
:1012000080939B0110928C0110928D0110928E019F
:1012100010928F0110929001109291011092920100
:101220001092930180919C018D7F80939C0185B7E2
:10123000836085BF80919C01806480939C01209194
:1012400094013091950140919601509197016091E0
:1012500098017091990180919A0190919B012A3F88
:10126000310541055105610571058105910509F0BB
:1012700008F445C080918A018B3381F480919C01F0
:10128000806280939C0161E081EA91E036DA1092FD
:101290009D0112BE60E089EB91E01CD810928A019A
:1012A0002EC080918C0190918D0190918E01909132
:1012B0008F01909190019091910190919201909164
:1012C000930180938B0180918B0160918A018F3112
:1012D00010F041E001C040E081EA91E090D98091B6
:1012E0008A018F5F80938A0180919C018260809344
:1012F0009C0185B7826085BF85B78E7F85BF8BB720
:1013000080648BBFFF91EF91BF91AF919F918F91BF
:101310007F916F915F914F913F912F910F900FBEF1
:101320000F901F9018951F920F920FB60F921124D5
:101330002F933F934F935F936F937F938F939F93DD
:10134000AF9320918C0130918D0140918E0150918D
:101350008F01609190017091910180919201909123
:101360009301A1E05CD020938C0130938D014093D8
:101370008E0150938F01609390017093910180933F
:10138000920190939301AF919F918F917F916F9173
:101390005F914F913F912F910F900FBE0F901F9033
:1013A000189589EB91E075D681EB91E072D681EAD0
:1013B00091E012C981EA91E001D981EB91E067D611
:1013C00089EB91E064C697FB072E16F4009406D0D3
:1013D00077FD08D030D007FC05D03EF4909581957C
:1013E0009F4F0895709561957F4F08950F93083032
:1013F00090F0982F872F762F652F542F432F322F61
:1014000022270850F4CF220F331F441F551F661F99
:10141000771F881F991F0A95B2F70F91089500242E
:10142000A7FD00942A0F301D401D501D601D701D2A
:10143000801D901D0895AA1BBB1B51E107C0AA1F68
:10144000BB1FA617B70710F0A61BB70B881F991F65
:101450005A95A9F780959095BC01CD010895EE0F9E
:10146000FF1F0590F491E02D0994CF93DF93823014
:10147000910510F482E090E0E091C301F091C40185
:1014800020E030E0C0E0D0E0309711F140815181A0
:1014900048175907C0F04817590761F482819381B2
:1014A000209719F09B838A832BC09093C40180936B
:1014B000C30126C02115310519F04217530718F44E
:1014C0009A01BE01DF01EF010280F381E02DDCCF44
:1014D0002115310509F1281B390B2430310590F411
:1014E00012968D919C9113976115710521F0FB0166
:1014F0009383828304C09093C4018093C301FD0150
:10150000329644C0FD01E20FF31F81939193225064
:1015100031092D933C933AC02091C1013091C20111
:10152000232B41F420916200309163003093C2017B
:101530002093C10120916000309161002115310597
:1015400041F42DB73EB74091640050916500241BD3
:10155000350BE091C101F091C201E217F307A0F44D
:101560002E1B3F0B2817390778F0AC014E5F5F4FF9
:101570002417350748F04E0F5F1F5093C201409368
:10158000C1018193919302C0E0E0F0E0CF01DF91CF
:10159000CF9108950F931F93CF93DF93009709F492
:1015A0008CC0FC013297138212820091C30110910A
:1015B000C4010115110581F420813181820F931F2F
:1015C0002091C1013091C2012817390779F5F093B4
:1015D000C201E093C10171C0D80140E050E0AE17F4
:1015E000BF0750F412962D913C911397AD01211530
:1015F000310509F1D901F3CF9D01DA01338322834B
:1016000060817181860F971F8217930769F4EC013F
:1016100028813981260F371F2E5F3F4F318320836A
:101620008A819B8193838283452B29F4F093C401A3
:10163000E093C30142C01396FC93EE931297ED0121
:10164000499159919E01240F351FE217F30771F458
:1016500080819181840F951F029611969C938E93A1
:101660008281938113969C938E931297E0E0F0E031
:10167000D80112968D919C911397009719F0F8015B
:101680008C01F6CF8D919C9198012E5F3F4F820F78
:10169000931F2091C1013091C2012817390769F4C5
:1016A000309729F41092C4011092C30102C0138232
:1016B00012821093C2010093C101DF91CF911F915B
:1016C0000F910895AEE0B0E0E7E6FBE098C20D8927
:1016D0001E8986E08C831A8309838FEF9FE79E83A0
:1016E0008D83AE01475E5F4F6F89788DCE01019685
:1016F00009D02F813885F801E20FF31F10822E9652
:10170000E4E099C2ACE0B0E0E7E8FBE06AC27C014B
:101710006B018A01FC0117821682838181FFB0C1AF
:10172000CE0101964C01F7019381F60193FD85915D
:1017300093FF81916F01882309F49EC1853239F4AA
:1017400093FD859193FF81916F01853221F4B7015B
:1017500090E0B1D1E8CF512C312C20E02032A0F420
:101760008B3269F030F4803259F0833269F42061B1
:101770002CC08D3239F0803339F4216026C02260CC
:10178000246023C0286021C027FD27C030ED380F1A
:101790003A3078F426FF06C0FAE05F9E300D11243F
:1017A000532E13C08AE0389E300D1124332E206250
:1017B0000CC08E3221F426FD5FC1206406C08C3639
:1017C00011F4206802C0883641F4F60193FD85913A
:1017D00093FF81916F018111C1CF982F9F7D955407
:1017E000933028F40C5F1F4FFFE3F9830DC083365D
:1017F00031F0833771F0833509F057C021C0F8010B
:10180000808189830E5F1F4F44244394512C5401DF
:1018100014C03801F2E06F0E711CF801A080B18095
:1018200026FF03C0652D70E002C06FEF7FEFC5019A
:101830002C8736D12C0183012C852F77222E16C0C0
:101840003801F2E06F0E711CF801A080B18026FF14
:1018500003C0652D70E002C06FEF7FEFC5012C87DC
:1018600014D12C012C852068222E830123FC19C061
:10187000832D90E048165906A0F4B70180E290E06D
:101880001AD13A94F5CFF50127FC859127FE819175
:101890005F01B70190E00FD131103A94F1E04F1A97
:1018A00051084114510479F7DEC0843611F08936AD
:1018B00031F5F80127FF07C0608171818281938132
:1018C0000C5F1F4F08C060817181882777FD80956C
:1018D000982F0E5F1F4F2F76722E97FF09C090959D
:1018E0008095709561957F4F8F4F9F4F2068722E26
:1018F0002AE030E0A40117D1A82EA81843C08537EC
:1019000029F42F7EB22E2AE030E025C0F22FF97F95
:10191000BF2E8F36C1F018F4883579F0ADC080370E
:1019200019F0883721F0A8C02F2F2061B22EB4FE05
:101930000DC08B2D8460B82E09C024FF0AC09F2FD4
:101940009660B92E06C028E030E005C020E130E006
:1019500002C020E132E0F801B7FE07C0608171816A
:10196000828193810C5F1F4F06C06081718180E08E
:1019700090E00E5F1F4FA401D6D0A82EA818FB2D13
:10198000FF777F2E76FE0BC0372D3E7FA51450F4D7
:1019900074FE0AC072FC08C0372D3E7E05C0BA2C0A
:1019A000372D03C0BA2C01C0B52C34FF0DC0FE0189
:1019B000EA0DF11D8081803311F4397E09C032FFB8
:1019C00006C0B394B39404C0832F867809F0B3940F
:1019D00033FD12C030FF06C05A2CB31418F4530C58
:1019E0005B18B32CB31460F4B70180E290E03C873D
:1019F00062D0B3943C85F6CFB31410F43B1801C009
:101A0000312C34FF11C0B70180E390E03C8753D004
:101A10003C8532FF16C031FD03C088E790E002C06C
:101A200088E590E0B7010CC0832F867851F031FF34
:101A300002C08BE201C080E237FD8DE2B70190E089
:101A40003AD0A51430F4B70180E390E034D05A9432
:101A5000F8CFAA94F401EA0DF11D8081B70190E05E
:101A60002AD0A110F6CF332009F45DCEB70180E271
:101A700090E021D03A94F7CFF7018681978102C098
:101A80008FEF9FEF2C96E2E1C8C0FC0105906150FA
:101A900070400110D8F7809590958E0F9F1F089584
:101AA000FC016150704001900110D8F7809590952D
:101AB0008E0F9F1F08950F931F93CF93DF93FB010A
:101AC000238121FD03C08FEF9FEF28C022FF16C0A6
:101AD00046815781248135814217530744F4A08100
:101AE000B1819D012F5F3F4F318320838C932681ED
:101AF00037812F5F3F4F3783268310C0EB01092FBB
:101B0000182F0084F185E02D0995892BE1F68E814F
:101B10009F8101969F838E83812F902FDF91CF919C
:101B20001F910F910895FA01AA27283051F1203111
:101B300081F1E8946F936E7F6E5F7F4F8F4F9F4F61
:101B4000AF4FB1E03ED0B4E03CD0670F781F891FA3
:101B50009A1FA11D680F791F8A1F911DA11D6A0F71
:101B6000711D811D911DA11D20D009F468943F9124
:101B70002AE0269F11243019305D3193DEF6CF0123
:101B80000895462F4770405D4193B3E00FD0C9F7E9
:101B9000F6CF462F4F70405D4A3318F0495D31FD56
:101BA0004052419302D0A9F7EACFB4E0A6959795A9
:101BB000879577956795BA95C9F70097610571057F
:101BC00008959B01AC010A2E0694579547953795C9
:101BD0002795BA95C9F7620F731F841F951FA01D23
:101BE00008952F923F924F925F926F927F928F92C1
:101BF0009F92AF92BF92CF92DF92EF92FF920F939C
:101C00001F93CF93DF93CDB7DEB7CA1BDB0B0FB6A5
:101C1000F894DEBF0FBECDBF09942A883988488862
:101C20005F846E847D848C849B84AA84B984C884F8
:101C3000DF80EE80FD800C811B81AA81B981CE0FEF
:101C4000D11D0FB6F894DEBF0FBECDBFED010895D4
:101C500010E0C0E4D0E003C0FE0103DC2296C234F1
:081C6000D107D1F7F894FFCF82
:101C68000000C5012000AE00B100B400B700BA0002
:101C7800BD00C000252E326C753A252E326C753A9F
:101C8800252E326C75002573202D202530326C7579
:101C98002E2530326C752E2530346C750025732056
:101CA8002D202530326C752E2530326C75004D6F25
:101CB800004469004D6900446F004672005361009A
:101CC800536F00000000004700480000000000DEDD
:101CD80002E402000000006E046F04447275636B36
:101CE8000025640000000000E305E4050000000092
:101CF800A006A1062A2A2044434620616E2F61755A
:101D080073202A2A002A2A20536E6F6F7A65205A78
:101D1800656974202A002A20416C61726D20616E09
:101D28002F617573202A002A2A2A205765636B7A47
:101D3800656974202A2A2A002A2A2A2A2A20446124
:101D480074756D202A2A2A2A002A2A2A2A2A205A21
:0A1D5800656974202A2A2A2A2A004D
:00000001FF
