:1000000020C088C443C04FC541C040C03FC03EC0AF
:100010003DC039C43BC03AC039C038C037C036C013
:1000200035C034C033C04EC051C04CC04DC04AC0B2
:100030004BC048C047C048C045C046C043C09105FA
:100040009D0511241FBECFE5D4E0DEBFCDBF10E07B
:10005000A0E6B0E0E4EFF3E102C005900D92A8390C
:10006000B107D9F710E0A8E9B0E001C01D92A23EA7
:10007000B107E1F710E0C0E4D0E003C02297FE0131
:10008000B6D5CE33D107D1F76BD3A8C9B9CF089570
:10009000B6C3FC018AE690E09183808389E0828385
:1000A00081EB83838BE784830895CF93DF93EC0107
:1000B000EB81EF70F0E03197EC30F105C8F5ED5EC3
:1000C000FF4F09942FE137C02EE135C02B812295D7
:1000D0002F703C813295307F832F822B2C81922F81
:1000E00092959F7083709927892B81F48B81982F2B
:1000F00092959F708C818295807F892B9C819295AF
:100100009F7064E670E025D5892BA1F48B81982F30
:1001100092959F708C818295807F892B9C8192958E
:100120009F7060E971E015D5892B21F02CE103C0A7
:1001300020E001C02DE18A818695869586958F5FA6
:100140008F71382F330F330F330F9A819770932BA2
:100150009A8390E030E02817390794F58A818770F8
:100160008A838B818F5F8F709B81907F982B9B837D
:100170008D3030F12B8122952F703C813295307F6C
:10018000832F822B2C81922F92959F7001969F70C6
:10019000382F3295307F2B812F70232B2B83282FE4
:1001A00022952F708C81807F822B8C839295907FFB
:1001B0008C818F70892B8C838B81807F81608B8376
:1001C0008A818F5F87709A81987F982B9A83873076
:1001D00019F48A81887F8A83DF91CF910895CF9324
:1001E000DF93EC0182E790E0998388838AE790E0CF
:1001F0009E838D83CE0105964ADFCE01DF91CF919C
:1002000024C10597ECCFCF93DF93EC01E8DFCE015B
:10021000DF91CF91F4C20597F6CFCF93DF93EC0136
:1002200016D1CE01059635DF82E790E09983888369
:100230008AE790E09E838D831A861B861C861D8626
:100240001E861F86188A198ADF91CF910895DF9242
:10025000EF92FF920F931F93CF93DF93FC01062F32
:10026000603408F043C0D284E384F4841585D685D5
:10027000C785B089A18921E030E04423C1F040E086
:1002800050E060E070E080E090E076D4D22AE32A8B
:10029000F42A152BD62BC72B8B2B9A2BD286E386D1
:1002A000F4861587D687C787808B918B1FC040E067
:1002B00050E060E070E080E090E05ED42095309502
:1002C000409550956095709580959095D222E32247
:1002D000F4221523D623C723B823A923D286E38685
:1002E000F4861587D687C787B08BA18BDF91CF9116
:1002F0001F910F91FF90EF90DF900895FC0194857E
:10030000292F22952695277085858170880F880F63
:10031000880F982F922B85858E70282F220F220F01
:10032000820F890F8F73282F2295220F207E9281B2
:100330009F71922B92838695869586959381987F5F
:10034000892B83832585322F3295369537708685A4
:100350008170880F880F880F282F232B8685867041
:10036000982F990F990F890F820F982F9F71828173
:10037000807E892B8283878586958695982F9770B6
:100380008781887F892B8783868582958F70978563
:1003900093702AE0929F800D1124982F990F990F46
:1003A000990F87818770892B87832785322F329514
:1003B0003695377080898170880F880F880F282FB5
:1003C000232B80898270982F990F990F890F820FA4
:1003D000982F9F708085807F892B80878089869564
:1003E00086958F702089922F929596959695937009
:1003F00021892370220F220F292B90E03AE0239FBE
:10040000800D911D11248053984F382F3295307FE5
:1004100020852F70232B2087282F22952F708185F0
:10042000807F822B81879295907F81858F70892B29
:100430008187662341F012861386148615861686F8
:100440001786108A118A81E008950895D8C1FC01A9
:1004500084E990E0918380831282138284818E7F6D
:1004600084830895FC018381982F9695969596959F
:10047000848181708295880F807E892B8F5F8F7336
:10048000282F220F220F220F93819770922B938394
:10049000282F22952695277094819E7F922B9483F6
:1004A0008C33B9F583818770838384818E7F8483C5
:1004B0008281982F92959695977083818770880F87
:1004C000880F880F892B8F5F8F73282F2295220F1B
:1004D000207E92819F71922B9283282F26952695BC
:1004E00026959381987F922B93838C3391F482810C
:1004F0008F7182838381887F838382818F5F8F71F5
:100500009281907E982B9283883119F48281807E2B
:1005100082830895FC01962F990F990F990F83817B
:100520008770892B838365FB992790F964816E7F9F
:10053000692B64830895FC01962F9F736295660F63
:10054000607E82818F71682B6283292F2695269584
:1005500026959381987F922B93830895FC016F7168
:100560009281907E692B62830895FC019381969518
:1005700096959695848181708295880F807E892BCF
:100580000895FC019281929596959770838187706A
:10059000880F880F880F892B0895FC0182818F7145
:1005A0000895FC016623B1F12381822F86958695FB
:1005B0008695248121702295220F207E282B82810E
:1005C000982F92959695977083818770880F880FE2
:1005D000880F892B92819F711F921F921F922F93D8
:1005E0001F921F921F928F931F921F921F929F9391
:1005F0008EE790E09F938F9388E990E09F938F938D
:1006000027D48DB79EB740960FB6F8949EBF0FBE05
:100610008DBF26C08281982F929596959770838181
:100620008770880F880F880F892B92819F711F9286
:100630001F921F928F931F921F921F929F9384E885
:1006400090E09F938F9388E990E09F938F9300D4DD
:100650008DB79EB70C960FB6F8949EBF0FBE8DBF98
:1006600088E990E00895AC9A8CE18A95F1F7AC980E
:10067000089595B3907F95BB95B382958F70982B15
:1006800095BBF1CFCF93C82FAD9AF3DF8C2F829516
:10069000807FEFDF80E48A95F1F70000CF91089525
:1006A000CF93C82FAD98E5DF8C2F8295807FE1DF57
:1006B0008BE38A95F1F7CF91089581E0F1DF81E333
:1006C00098E00197F1F7089584B38F6384BB85B3F5
:1006D000807C85BB80E79DE30197F1F700C080E354
:1006E000C8DF8AE794E10197F1F700C00000BBDFA3
:1006F00088E194E00197F1F700C0B5DF88E194E06C
:100700000197F1F700C080E2B4DF8AE794E1019736
:10071000F1F700C0000088E2C3DF8CE0C1DF86E0B3
:10072000BFDFCBCF623059F018F4613031F008955B
:10073000633039F0643039F00895805805C0805432
:1007400003C0805701C08053ABCFCF93DF93EC0140
:100750008991882311F096DFFBCFDF91CF91089527
:100760004FD0909A78948091BB0085FF18C08091FB
:10077000BB008F7D8093BB0082EC90E00EDF682F82
:1007800089ED90E0EBDE82EC90E0FBDE682F89EDF6
:1007900090E0D1DE8091BB0081608093BB008091AE
:1007A000BB0080FFE0CF62E080E0BCDF61E089ED6C
:1007B00090E0F7DECADF8091BB0086FF1AC062E0DE
:1007C0008FE0B0DF8091BB0084FF07C08091BB0049
:1007D0008F7E8093BB0080E206C08091BB00806169
:1007E0008093BB008EE24EDF8091BB008F7B8093B5
:1007F000BB008091BB008E7F8093BB00B4CF90C2C2
:1008000081B38F7181BBB89882B3806E82BBC09A6E
:10081000B99AC198BA9A88B3847088BB889A90981C
:1008200081EA8FBD89E08EBD8FEF90E09BBD8ABDD0
:1008300084E690E099BD88BD2CEC8CEC9CE02150C6
:1008400080409040E1F700C01BBC1ABC19BC18BC2A
:100850008FB58F758FBD38DF30DF8A9885B58E6094
:1008600085BD89B7806889BF14BC8AE583BD85B71B
:10087000836085BF8BB780648BBF84E083BF89B7FB
:10088000816089BF08951F920F920FB60F921124B5
:100890002F933F934F935F936F937F938F939F9388
:1008A000AF93BF93EF93FF938091BC008F5F8093D2
:1008B000BC008034F0F01092BC0089ED90E0D2DDF5
:1008C00089ED90E06ADE81110AC089ED90E059DE81
:1008D000811105C089ED90E048DE882331F08091D8
:1008E000BB0081608093BB0004C08DEB90E0DDDB3A
:1008F000F6CFFF91EF91BF91AF919F918F917F9133
:100900006F915F914F913F912F910F900FBE0F907C
:100910001F9018951F920F920FB60F9211242F93CC
:100920003F934F935F936F937F938F939F93AF9377
:10093000BF93EF93FF938BB78F7B8BBF8091BB00EF
:1009400081FF6FC07091AB006091AC005091AD0021
:100950004091AE003091AF002091B0009091B10075
:100960008091B2007093B3006093B4005093B500CF
:100970004093B6003093B7002093B8009093B9002D
:100980008093BA001092AB001092AC001092AD00B0
:100990001092AE001092AF001092B0001092B10011
:1009A0001092B2008091BB008D7F8093BB0085B711
:1009B000836085BF8091BB0080648093BB002091E1
:1009C000B3003091B4004091B5005091B6006091F1
:1009D000B7007091B8008091B9009091BA002A3F99
:1009E000310541055105610571058105910509F044
:1009F00008F445C08091A9008B3381F48091BB003D
:100A000080628093BB0061E082EC90E077DC109222
:100A1000BC0012BE60E089ED90E07CDD1092A90080
:100A20002EC08091AB009091AC009091AD00909160
:100A3000AE009091AF009091B0009091B100909174
:100A4000B2008093AA008091AA006091A9008F3122
:100A500010F041E001C040E082EC90E0F8DB8091D2
:100A6000A9008F5F8093A9008091BB008260809372
:100A7000BB0085B7826085BF85B78E7F85BF8BB78A
:100A800080648BBFFF91EF91BF91AF919F918F9148
:100A90007F916F915F914F913F912F910F900FBE7A
:100AA0000F901F9018951F920F920FB60F9211245E
:100AB0002F933F934F935F936F937F938F939F9366
:100AC000AF932091AB003091AC004091AD005091BC
:100AD000AE006091AF007091B0008091B100909134
:100AE000B200A1E062D02093AB003093AC00409301
:100AF000AD005093AE006093AF007093B000809350
:100B0000B1009093B200AF919F918F917F916F91BF
:100B10005F914F913F912F910F900FBE0F901F90BB
:100B2000189589ED90E093DC84ED90E090DC82EC08
:100B300090E073DB8DEB90E0ACCA8DEB90E0A7DA30
:100B400082EC90E04CDB84ED90E07FDC89ED90E07E
:100B50007CCC97FB072E16F4009406D077FD08D0C6
:100B600030D007FC05D03EF4909581959F4F0895B5
:100B7000709561957F4F08950F93083090F0982FEE
:100B8000872F762F652F542F432F322F222708507F
:100B9000F4CF220F331F441F551F661F771F881F76
:100BA000991F0A95B2F70F9108950024A7FD0094AC
:100BB0002A0F301D401D501D601D701D801D901D91
:100BC0000895AA1BBB1B51E107C0AA1FBB1FA61794
:100BD000B70710F0A61BB70B881F991F5A95A9F7E6
:100BE00080959095BC01CD010895EE0FFF1F0590F3
:100BF000F491E02D0994CF93DF938230910510F4A6
:100C000082E090E0E091E000F091E10020E030E04F
:100C1000C0E0D0E0309711F1408151814817590769
:100C2000C0F04817590761F482819381209719F029
:100C30009B838A832BC09093E1008093E00026C0C1
:100C40002115310519F04217530718F49A01BE0116
:100C5000DF01EF010280F381E02DDCCF21153105AA
:100C600009F1281B390B2430310590F412968D912F
:100C70009C9113976115710521F0FB019383828389
:100C800004C09093E1008093E000FD01329644C0DF
:100C9000FD01E20FF31F81939193225031092D93AF
:100CA0003C933AC02091DE003091DF00232B41F4C9
:100CB00020916200309163003093DF002093DE00CA
:100CC00020916000309161002115310541F42DB76C
:100CD0003EB74091640050916500241B350BE091B4
:100CE000DE00F091DF00E217F307A0F42E1B3F0BAC
:100CF0002817390778F0AC014E5F5F4F241735078E
:100D000048F04E0F5F1F5093DF004093DE00819349
:100D1000919302C0E0E0F0E0CF01DF91CF91089520
:100D20000F931F93CF93DF93009709F48CC0FC01BE
:100D30003297138212820091E0001091E1000115B8
:100D4000110581F420813181820F931F2091DE00F3
:100D50003091DF002817390779F5F093DF00E09331
:100D6000DE0071C0D80140E050E0AE17BF0750F47C
:100D700012962D913C911397AD012115310509F182
:100D8000D901F3CF9D01DA01338322836081718120
:100D9000860F971F8217930769F4EC012881398128
:100DA000260F371F2E5F3F4F318320838A819B811F
:100DB00093838283452B29F4F093E100E093E000D4
:100DC00042C01396FC93EE931297ED01499159910D
:100DD0009E01240F351FE217F30771F48081918182
:100DE000840F951F029611969C938E938281938116
:100DF00013969C938E931297E0E0F0E0D801129640
:100E00008D919C911397009719F0F8018C01F6CF02
:100E10008D919C9198012E5F3F4F820F931F2091DF
:100E2000DE003091DF002817390769F4309729F484
:100E30001092E1001092E00002C01382128210931F
:100E4000DF000093DE00DF91CF911F910F91089595
:100E5000AEE0B0E0EDE2F7E098C20D891E8986E0D1
:100E60008C831A8309838FEF9FE79E838D83AE0166
:100E7000475E5F4F6F89788DCE01019609D02F8133
:100E80003885F801E20FF31F10822E96E4E099C234
:100E9000ACE0B0E0EDE4F7E06AC27C016B018A01EE
:100EA000FC0117821682838181FFB0C1CE010196B9
:100EB0004C01F7019381F60193FD859193FF819198
:100EC0006F01882309F49EC1853239F493FD859121
:100ED00093FF81916F01853221F4B70190E0B1D188
:100EE000E8CF512C312C20E02032A0F48B3269F075
:100EF00030F4803259F0833269F420612CC08D3295
:100F000039F0803339F4216026C02260246023C088
:100F1000286021C027FD27C030ED380F3A3078F423
:100F200026FF06C0FAE05F9E300D1124532E13C039
:100F30008AE0389E300D1124332E20620CC08E3290
:100F400021F426FD5FC1206406C08C3611F42068B0
:100F500002C0883641F4F60193FD859193FF81919B
:100F60006F018111C1CF982F9F7D9554933028F444
:100F70000C5F1F4FFFE3F9830DC0833631F08337D9
:100F800071F0833509F057C021C0F8018081898351
:100F90000E5F1F4F44244394512C540114C0380158
:100FA000F2E06F0E711CF801A080B18026FF03C033
:100FB000652D70E002C06FEF7FEFC5012C8736D141
:100FC0002C0183012C852F77222E16C03801F2E0E8
:100FD0006F0E711CF801A080B18026FF03C0652D43
:100FE00070E002C06FEF7FEFC5012C8714D12C0198
:100FF0002C852068222E830123FC19C0832D90E0CC
:1010000048165906A0F4B70180E290E01AD13A944C
:10101000F5CFF50127FC859127FE81915F01B7018E
:1010200090E00FD131103A94F1E04F1A5108411479
:10103000510479F7DEC0843611F0893631F5F801B4
:1010400027FF07C060817181828193810C5F1F4FF0
:1010500008C060817181882777FD8095982F0E5F89
:101060001F4F2F76722E97FF09C09095809570952F
:1010700061957F4F8F4F9F4F2068722E2AE030E09E
:10108000A40117D1A82EA81843C0853729F42F7EB4
:10109000B22E2AE030E025C0F22FF97FBF2E8F3626
:1010A000C1F018F4883579F0ADC0803719F0883771
:1010B00021F0A8C02F2F2061B22EB4FE0DC08B2DC1
:1010C0008460B82E09C024FF0AC09F2F9660B92EF5
:1010D00006C028E030E005C020E130E002C020E199
:1010E00032E0F801B7FE07C060817181828193818F
:1010F0000C5F1F4F06C06081718180E090E00E5F41
:101100001F4FA401D6D0A82EA818FB2DFF777F2E45
:1011100076FE0BC0372D3E7FA51450F474FE0AC036
:1011200072FC08C0372D3E7E05C0BA2C372D03C097
:10113000BA2C01C0B52C34FF0DC0FE01EA0DF11D23
:101140008081803311F4397E09C032FF06C0B39428
:10115000B39404C0832F867809F0B39433FD12C092
:1011600030FF06C05A2CB31418F4530C5B18B32C80
:10117000B31460F4B70180E290E03C8762D0B3948E
:101180003C85F6CFB31410F43B1801C0312C34FF6A
:1011900011C0B70180E390E03C8753D03C8532FF1B
:1011A00016C031FD03C088E790E002C088E590E0FA
:1011B000B7010CC0832F867851F031FF02C08BE25B
:1011C00001C080E237FD8DE2B70190E03AD0A5146E
:1011D00030F4B70180E390E034D05A94F8CFAA9469
:1011E000F401EA0DF11D8081B70190E02AD0A11031
:1011F000F6CF332009F45DCEB70180E290E021D034
:101200003A94F7CFF7018681978102C08FEF9FEF65
:101210002C96E2E1C8C0FC010590615070400110BD
:10122000D8F7809590958E0F9F1F0895FC0161500F
:10123000704001900110D8F7809590958E0F9F1FF8
:1012400008950F931F93CF93DF93FB01238121FD1B
:1012500003C08FEF9FEF28C022FF16C04681578141
:10126000248135814217530744F4A081B1819D0147
:101270002F5F3F4F318320838C93268137812F5FEF
:101280003F4F3783268310C0EB01092F182F0084AE
:10129000F185E02D0995892BE1F68E819F810196DC
:1012A0009F838E83812F902FDF91CF911F910F917C
:1012B0000895FA01AA27283051F1203181F1E894EC
:1012C0006F936E7F6E5F7F4F8F4F9F4FAF4FB1E039
:1012D0003ED0B4E03CD0670F781F891F9A1FA11D34
:1012E000680F791F8A1F911DA11D6A0F711D811D35
:1012F000911DA11D20D009F468943F912AE0269FFA
:1013000011243019305D3193DEF6CF010895462F58
:101310004770405D4193B3E00FD0C9F7F6CF462F39
:101320004F70405D4A3318F0495D31FD40524193A2
:1013300002D0A9F7EACFB4E0A6959795879577955F
:101340006795BA95C9F700976105710508959B01E6
:10135000AC010A2E06945795479537952795BA956F
:10136000C9F7620F731F841F951FA01D08952F9248
:101370003F924F925F926F927F928F929F92AF9225
:10138000BF92CF92DF92EF92FF920F931F93CF9372
:10139000DF93CDB7DEB7CA1BDB0B0FB6F894DEBF09
:1013A0000FBECDBF09942A88398848885F846E842F
:1013B0007D848C849B84AA84B984C884DF80EE8079
:1013C000FD800C811B81AA81B981CE0FD11D0FB682
:1013D000F894DEBF0FBECDBFED01089510E0C0E46C
:1013E000D0E003C0FE0103DC2296C234D107D1F75E
:0413F000F894FFCF9F
:1013F4000000E20020000000000047004800000058
:101404000000EF000301FBFF000001010B01252E8A
:10141400326C753A252E326C753A252E326C750075
:08142400000000002502260271
:00000001FF
