:1000000037C000000C94690C5AC0000058C00000B2
:100010000C94470D54C0000052C0000050C00000B6
:100020004EC000004CC000004AC000000C94FF0B02
:1000300046C0000044C0000042C0000040C00000B4
:100040003EC000003CC000003AC0000038C00000C4
:1000500036C000007F01F6007F012C017F012C01DA
:100060007F017F012C017F012C017F01850D711023
:1000700011241FBECFE5D8E0DEBFCDBF15E0A0E65E
:10008000B0E0E8EEF9E202C005900D92A832B107A7
:10009000D9F715E0A8E2B5E001C01D92AD39B1076E
:1000A000E1F710E0C7E3D0E004C02197FE010E9411
:1000B0009010C633D107C9F71ED70C94E814A0CF0F
:1000C0000895F3C6FC0188EC90E09183808312824E
:1000D000138284818E7F848389E0858381E2868395
:1000E0008BE787830895CF93DF93EC018B81982F63
:1000F0009695969596958C8181708295880F807ED5
:10010000892B8F5F8F73282F220F220F220F9B8145
:100110009770922B9B83282F2295269527709C8180
:100120009E7F922B9C838C33B9F58B8187708B8358
:100130008C818E7F8C838A81982F9295969597706B
:100140008B818770880F880F880F892B8F5F8F7343
:10015000282F2295220F207E9A819F71922B9A83BD
:10016000282F2695269526959B81987F922B9B83F9
:100170008C3391F48A818F718A838B81887F8B8302
:100180008A818F5F8F719A81907E982B9A838831B4
:1001900019F48A81807E8A838A818F7109F0B3C0C5
:1001A0008A81982F9295969597708B818770880F8A
:1001B000880F880F892B09F0A6C08B81982F969500
:1001C000969596958C8181708295880F807E892B7B
:1001D00009F099C0EE81EF70F0E03197EC30F10555
:1001E00008F08FC0E65DFF4F0C9490102E81229591
:1001F0002F703F813295307F832F822B2F81922F5A
:1002000092959F7083709927892B89F48E81982FFE
:1002100092959F708F818295807F892B9F81929587
:100220009F7064E670E00E947D10892B99F48E81A6
:10023000982F92959F708F818295807F892B9F81C7
:1002400092959F7060E971E00E947D10892B11F0FA
:100250002CE103C02DE101C02EE18D8186958695AC
:1002600086958F5F8F71382F330F330F330F9D813A
:100270009770932B9D8390E030E02817390794F511
:100280008D8187708D838E818F5F8F709E81907F2F
:10029000982B9E838D3030F12E8122952F703F81D7
:1002A0003295307F832F822B2F81922F92959F70D2
:1002B00001969F70382F3295307F2E812F70232B1F
:1002C0002E83282F22952F708F81807F822B8F8302
:1002D0009295907F8F818F70892B8F838E81807F05
:1002E00081608E838D818F5F87709D81987F982B31
:1002F0009D83873041F48D81887F8D8304C02FE1F9
:10030000ACCF20E0AACFDF91CF910895CF93FC012D
:10031000DB0122812F7112968C9112978F7130E040
:1003200090E0821793079CF012968C9112978F7130
:1003300022812F7190E0821B910920E13EE0829F93
:10034000A001839F500D929F500D11240EC09281E9
:100350009F7112968C9112978F7148E150E0491B62
:100360005109480F511D405F514F12963C91129711
:10037000932F92959695977013962C9113972770BB
:10038000220F220F220F322F392BC2818C2F829500
:1003900086958770C381C770CC0FCC0FCC0FC82B4C
:1003A00013969C911397292F26952695269514969A
:1003B0008C9181708295880F807E982F922B73810B
:1003C000872F869586958695748171707295770FC3
:1003D000707E782B232F30E02C1B31098CE3829F19
:1003E000F001839FF00D11244E0F5F1F892F90E0C5
:1003F000871B9109BA01680F791F882777FD8095BF
:10040000982FCF910895FC01962F990F990F990F6E
:1004100083818770892B838365FB992790F9648199
:100420006E7F692B64830895FC01962F9F736295FC
:10043000660F607E82818F71682B6283292F2695DB
:10044000269526959381987F922B93830895FC019E
:100450006F719281907E692B62830895FC01938174
:10046000969596959695848181708295880F807E69
:10047000892B0895FC0192819295969597708381BE
:100480008770880F880F880F892B0895FC0182815F
:100490008F710895FC016623B9F12381822F86951F
:1004A00086958695248121702295220F207E282B07
:1004B0008281982F92959695977083818770880F87
:1004C000880F880F892B92819F711F921F921F9214
:1004D0002F931F921F921F928F931F921F921F9212
:1004E0009F9385E790E09F938F9389E395E09F9397
:1004F0008F930E94FC118DB79EB740960FB6F8946B
:100500009EBF0FBE8DBF27C08281982F9295969572
:10051000977083818770880F880F880F892B92814D
:100520009F711F921F921F928F931F921F921F9273
:100530009F938BE790E09F938F9389E395E09F9340
:100540008F930E94FC118DB79EB70C960FB6F8944E
:100550009EBF0FBE8DBF89E395E00895FC016770D3
:100560009581987F692B65830895FC01660F660F5E
:10057000660F95819770692B65830895FC016F70F4
:100580009681907F692B66830895FC017F70962F7A
:100590009295907F86818F70892B8683962F929576
:1005A0009F708781807F892B8783972F9295907F7B
:1005B00087818F70892B87830895FC0185818770DF
:1005C0000895FC0185818695869586950895FC01A0
:1005D00086818F700895FC012681822F82958F700D
:1005E00037813295307F9781832B92959F70089544
:1005F000CF93DF93CDB7DEB72E970FB6F894DEBF5B
:100600000FBECDBF2EE0E7E6F0E0DE0111960190CF
:100610000D922A95E1F7FC0146816623B9F14295D6
:100620004F7057815295507F252F242B4781342FAF
:1006300032953F7066816F705581569556955695E7
:1006400045814770C9011F921F929F938F931F92FC
:100650001F921F926F931F921F921F925F93CE0162
:100660000196840F911D840F911DFC0132978181A9
:100670008F9380818F9387E890E09F938F9388E298
:1006800095E09F938F930E94FC1125C04F70358198
:10069000369536953695258127701F921F921F92A9
:1006A0004F931F921F921F923F93CE010196820F8C
:1006B000911D820F911DFC01329781818F93808162
:1006C0008F938EE990E09F938F9388E295E09F93BC
:1006D0008F930E94FC110FB6F894DEBF0FBECDBF02
:1006E00088E295E02E960FB6F894DEBF0FBECDBF20
:1006F000DF91CF91089520ED30E0FC01318320831C
:10070000DFCCCF93DF93EC01F6DFCE01DF91CF9109
:10071000CCC3CF93DF93EC01D5DC80ED90E09983DF
:100720008883188619861A861B861C861D861E8657
:100730001F86DF91CF910895DF92EF92FF920F9382
:100740001F93CF93DF93FC01062F603408F045C060
:10075000D084E184F2841385D485C585B685A785C8
:1007600021E030E04423C9F040E050E060E070E078
:1007700080E090E00E949610D22AE32AF42A152BFA
:10078000D62BC72B8B2B9A2BD086E186F28613872C
:10079000D487C5878687978720C040E050E060E017
:1007A00070E080E090E00E94961020953095409592
:1007B00050956095709580959095D222E322F42211
:1007C0001523D623C723B823A923D086E186F28632
:1007D0001387D487C587B687A787DF91CF911F91ED
:1007E0000F91FF90EF90DF900895CF92DF92EF92FC
:1007F000FF920F9380E090E06A017B01082E04C015
:10080000F694E794D794C7940A94D2F73C2D3170AC
:10081000232701968032910579F781E0002319F0B2
:10082000211104C002C0213009F480E00F91FF9033
:10083000EF90DF90CF9008950F931F93CF93DF93A6
:10084000EC01162F2B85229521708A85982F929581
:10085000969597708B858170880F880F880F892BEC
:100860004B854695477030E1439FA00111246627D0
:1008700057FD6095762F482B00E0CE01B6DF882328
:1008800009F4BBC02C8523FB222720F98B85982FE8
:100890009295969597708C858170880F880F880F38
:1008A000892B4C854695437090E1499FA001112406
:1008B000662757FD6095762F482BCE0196DF88235B
:1008C00009F49CC02A85322F3295369537709B8566
:1008D0009170990F990F990F292F232B9B859E704B
:1008E000392F330F330F930F920F9F73392F329598
:1008F000330F307E2A812F71232B2A83969596956C
:1009000096952B81287F922B9B833B85432F429585
:10091000469547709C859170990F990F990F392FC3
:10092000342B9C859670292F220F220F920F930F44
:10093000292F2F719A81907E922B9A839D8596956F
:100940009695292F27709D81987F922B9D839C855A
:1009500092959F702D8523703AE0239F900D11246E
:10096000292F220F220F220F9D819770922B9D839A
:100970003D85432F4295469547709E859170990F0E
:10098000990F990F392F342B9E859270292F220FA2
:10099000220F920F930F292F2F709E81907F922B01
:1009A0009E832E85269526952F709E85392F32950C
:1009B0003695369533709F859370990F990F932BC9
:1009C00030E04AE0949F200D311D11242053384F10
:1009D000422F4295407F9E819F70942B9E8322954B
:1009E0002F709F81907F922B9F83232F2295207FB2
:1009F0009F819F70922B9F8301C080E0112341F063
:100A0000188619861A861B861C861D861E861F86DA
:100A1000DF91CF911F910F910895089546C2CF9213
:100A2000DF92EF92FF920F931F93CF93DF93CDB797
:100A3000DEB72C970FB6F894DEBF0FBECDBFC982CC
:100A4000DA82EB82FC820D831E832F8338874987ED
:100A50005A876B877C87DC0188ED90E08D939D93AE
:100A60008CE0FE01319601900D928A95E1F72C966B
:100A70000FB6F894DEBF0FBECDBFDF91CF911F91AF
:100A80000F91FF90EF90DF90CF900895FC01358596
:100A90000184F285E02D208181E090E002C0880F82
:100AA000991F3A95E2F7662311F0822B05C08095D5
:100AB000909530E08223932380830895FC01808504
:100AC000A281B3814C9121E030E0B90102C0660FF0
:100AD000771F8A95E2F7CB01842B8C937CE17A9582
:100AE000F1F790850280F381E02D808102C0220F12
:100AF000331F9A95E2F72095309590E0282339230B
:100B000020830895CF93DF93DC0116962C911697DE
:100B100012960D90BC91A02D4C91E4E0F0E0EF0115
:100B2000C21BD10920EF30E002C035952795CA9548
:100B3000E2F72095309550E0242335232C93DC01F7
:100B400016963C91169712960D90BC91A02D2C9163
:100B5000607F70E0E31BF10902C075956795EA9527
:100B6000E2F7622B6C93DF91CF91A8CF1F93CF93C5
:100B7000DF93EC01162F9F81EA81FB81808121E0C8
:100B800030E001C0220F9A95EAF7282B2083CE018E
:100B9000B9DF612F6295607FCE01B4DF80E48A9572
:100BA000F1F70000DF91CF911F9108950F931F93EC
:100BB000CF93DF938C01EB016991662319F0C80193
:100BC000D5DFFACFDF91CF911F910F9108951F9339
:100BD000CF93DF93EC01162F8F81EA81FB81408157
:100BE00021E030E002C0220F331F8A95E2F7209502
:100BF000309550E0242335232083CE0183DF612FFD
:100C00006295607FCE017EDF8BE38A95F1F7DF91FD
:100C1000CF911F91089561E0DADF81E398E00197B9
:100C2000F1F70895CF93DF93EC015E812F81488522
:100C300081E090E0BC0101C0660F2A95EAF72FE041
:100C400030E001C0220F5A95EAF7262B01C0880F29
:100C50004A95EAF7822BEC81FD819081982B908355
:100C6000EA81FB81908180958923808380E79DE3E1
:100C70000197F1F700C060E3CE0144DF8AE794E119
:100C80000197F1F700C00000CE0118DF88E194E081
:100C90000197F1F700C0CE0111DF88E194E00197E0
:100CA000F1F700C060E2CE012DDF8AE794E1019701
:100CB000F1F700C0000088E28E878CE08F8786E025
:100CC000888B6E85CE0183DF6F85CE0180DF6889DA
:100CD000CE017DDFCE01DF91CF919DCF62E077DF46
:100CE00081E398E00197F1F70895423059F018F444
:100CF000413031F00895433039F0443039F00895EF
:100D0000605805C0605403C0605701C060535FCF96
:100D1000CF92DF92EF92FF920F931F93CF93DF93C7
:100D200000D0CDB7DEB78C0188E0689FB0011124F8
:100D30006064C80149835A834ADF4981C42E5A81BD
:100D4000D52E7601E8E0EE0EF11CF60161916F01FF
:100D5000C8010CDFCE14DF04C1F70F900F90DF91B4
:100D6000CF911F910F91FF90EF90DF90CF9008955A
:100D7000FC018785662311F0826001C08D7F878723
:100D80006785CF0124CFFC018785662311F0816040
:100D900001C08E7F87876785CF0119CF089585C0F1
:100DA000EF92FF920F931F93FC0186EE90E09183E8
:100DB00080833583248340875187628773871383B9
:100DC0000283F782E6821F910F91FF90EF900895C2
:100DD000CF93DF93EC0161E08C819D8157DE8C81A4
:100DE0009D8119DF8C819D8179DF8A819B8149D02A
:100DF000BC018C819D81DADE6A858885998557D012
:100E0000882361F08A819B814AD09B838A836A858B
:100E1000888599854CD08111FACFE1CF6B85888583
:100E2000998545D0882341F36CED70E08C819D81DC
:100E3000BDDEEE81FF8110826B858885998537D074
:100E4000882341F0EE81FF8180818230A8F3DF9119
:100E5000CF91089542E060E08C819D8146DF8A81D8
:100E60009B8113D0BCCF089520C0FC018EEE90E092
:100E7000918380837383628355834483378326837E
:100E80000895FC01828193810895DC011496ED910F
:100E9000FC9115970994FC01778366830895FC0102
:100EA0008681978108950C94CF100C946411FC01F5
:100EB000208130E0062E02C0359527950A94E2F78E
:100EC00020FD17C0FDEA27E431E0F150204030401A
:100ED000E1F700C000C0FC01808190E002C0959560
:100EE00087956A95E2F781709927F1E08F278170E5
:100EF000089580E0089529D361E08091770590916D
:100F00007805C4DD8AE080935C057894C1E0D1D097
:100F10006BD1B6D217D1809166008111F8CF65E010
:100F200083E390E0C4DF8111F2CFC0936600EFCF7E
:100F300061E080917705909178051ADF61E08091FA
:100F40007705909178051FDF42E066E08091770594
:100F500090917805CADE20917305309174058091D7
:100F600077059091780527FF03C062EF70E002C01B
:100F700066EF70E01BDE42E066E0809177059091BD
:100F80007805B3DE66E083E390E091DF882351F0DB
:100F900080917305909174058058909374058093A7
:100FA0007305D2CF65E083E390E081DF882351F3BE
:100FB00060E08091770590917805DADE60E08091BD
:100FC000770590917805DFCE6AEF70E08091770524
:100FD00090917805EBDD29E989E999E1215080407C
:100FE0009040E1F70000089563E071E0809177059B
:100FF00090917805DBDD29E989E999E1215080406C
:101000009040E1F70000089561E0809177059091AC
:101010007805AEDE61E08091770590917805B3DECA
:1010200042E066E080917705909178055EDE209140
:10103000730530917405809177059091780522FFB2
:1010400003C062EF70E002C066EF70E0AFDD42E027
:1010500066E0809177059091780547DE66E083E34E
:1010600090E025DF882359F08091730590917405F5
:1010700024E082279093740580937305D1CF65E0B7
:1010800083E390E014DF882349F342E050E069E015
:1010900070E083E795E00E94EF1360E080917705B0
:1010A0009091780565DE60E08091770590917805F4
:1010B0006ACE809173059091740585FF42C080913E
:1010C00073059091740587FF3CC0809173059091E2
:1010D00074058F7D909374058093730589E795E07F
:1010E000D5D9682F81E995E0B2D989E795E0C2D9D1
:1010F000682F81E995E098D989E795E062DA682F51
:1011000081E995E032DA89E795E057DA682F81E9DD
:1011100095E024DA89E795E05ADA682F81E995E0CD
:101120002DDA89E795E057DABC0181E995E02DDAFF
:1011300080917305909174058160909374058093FC
:1011400073050895809173059091740565E090FF93
:1011500012C083E390E0ABDE882309F444C083EA45
:101160008FBD89E08EBD1BBC1ABC19BC18BC8FB5E5
:101170008F758FBD089583E390E099DE882321F079
:101180008091660081110BC067E083E390E08FDE01
:10119000882349F180915C058B3010F108951092FD
:1011A00066008FEF80935C0580914E0590914F050E
:1011B0000FDE80917705909178052DDD8091770580
:1011C000909178058BDD8091730590917405816015
:1011D00090937405809373058AE080935C05D4CF67
:1011E0008AE080935C050895809173059091740561
:1011F00080FF81C041E060E08091770590917805A3
:1012000074DD61E081E995E0F3D9BC018091770557
:1012100090917805CBDC42E060E080917705909179
:10122000780563DD61E081E995E034D9BC01809106
:10123000770590917805BADC42E06DE08091770502
:101240009091780552DD209173053091740580915D
:1012500077059091780522FF03C063E087DC03C027
:1012600064EF70E0A3DC42E06FE08091770590913D
:1012700078053BDD209173053091740580917705E9
:101280009091780527FD03C062E070DC2BC02091AF
:1012900073053091740526FF25C0209173053091A8
:1012A000740524FF0BC020917305309174052F7EC7
:1012B000309374052093730560E00AC02091730594
:1012C000309174052061309374052093730561E0BB
:1012D0004DDC80917305909174058F7B909374051C
:1012E0008093730580917305909174058E7F909320
:1012F00074058093730520915C058091770590912A
:101300007805211102C060E001C061E0BFCB80918F
:101310005D0590915E05A0915F05B09160050A970B
:10132000A105B10518F48AE090E03EC080915D050A
:1013300090915E05A0915F05B09160054497A1056D
:10134000B10518F48EE190E02FC080915D05909179
:101350005E05A0915F05B09160054E97A105B105AE
:1013600018F482E390E020C080915D0590915E05C5
:10137000A0915F05B09160058897A105B10518F4AB
:1013800080E590E011C080915D0590915E05A0918F
:101390005F05B0916005C297A105B10518F484E618
:1013A00090E002C086E990E099BD88BD80915D051E
:1013B00090915E05A0915F05B091600580FF03C02C
:1013C0008FB5806202C08FB58F7D8FBD0895CF929B
:1013D000DF92EF92FF920F931F93643823E072071E
:1013E0008105910521F410924D0510924C05409114
:1013F0004C0550914D0549395105D0F4FA01EE0FD5
:10140000FF1FEA52FC4F0081118120E030E00617F7
:1014100017072807390731F4CA01019690934D0543
:1014200080934C0580914C0590914D05019719C012
:101430006C3221E0720781059105B8F40BE211E0EE
:1014400020E030E068017901C61AD70AE80AF90AF3
:10145000D701C601880F991FFC01E258FE4F808119
:10146000918190934B0580934A0580914A05909114
:101470004B051F910F91FF90EF90DF90CF90089553
:10148000CF92DF92EF92FF92CF93DF93809173051B
:101490009091740582FF4BC0809173059091740503
:1014A00090FF0FC080E28FBD82E18EBD8BE791E09F
:1014B00097BD86BDDF91CF91FF90EF90DF90CF90E9
:1014C00026CF69E875E081E995E00E9486016B010D
:1014D0007C01611571058105910591F48091730579
:1014E00090917405916090937405809373051092A8
:1014F0005D0510925E0510925F05109260051EC09A
:1015000085E8C81683E0D806E104F104B8F4CAB54A
:10151000DBB5C701B6015BDFC817D90729F0C701E2
:10152000B60155DF9BBD8ABD8FB5806806C01BBC68
:101530001ABC19BC18BC8FB58F758FBDDF91CF91C8
:10154000FF90EF90DF90CF9008958F929F92BF927F
:10155000CF92DF92EF92FF920F931F93CF93DF937F
:10156000CDB7DEB72C970FB6F894DEBF0FBECDBF58
:1015700010925C058091730590917405806890933A
:101580007405809373058091730590917405806450
:10159000909374058093730584B38F7884BBA79868
:1015A00085B3806785BBAF9A8D9A95988C9A82B3E4
:1015B000807182BB83EA8FBD89E08EBD8FEF90E0A2
:1015C0009BBD8ABD84E690E099BD88BD2CEC8CEC77
:1015D0009CE0215080409040E1F700C01BBC1ABC49
:1015E00019BC18BC8FB58F758FBD8BE390E09A83C3
:1015F00089838AE390E09C838B831D8285E08E83C0
:1016000084E0B82EBF8288E390E09987888787E3DB
:1016100090E09B878A871C8681E190E044DC4C0146
:10162000C980DA80EB80FC800D811E812F81388596
:1016300049855A856B857C85F2D990927805809290
:101640007705C401EFDA8091770590917805E3DAA8
:1016500040E255E060E0809177059091780558DB95
:1016600048E155E061E0809177059091780550DB85
:1016700040E155E062E0809177059091780548DB84
:1016800048E055E063E0809177059091780540DB74
:101690008A9885B58E6085BD89B7806889BF14BC7E
:1016A0008AE583BD85B7836085BF8BB780648BBFB8
:1016B000B3BE89B7816089BF88E090E0F4DB7C012C
:1016C00020E030E048E957E063E171E0CEDB00E57F
:1016D00015E0F801F386E28688E090E0E4DB7C0127
:1016E000F8012285338544EF57E064E271E0BDDB09
:1016F000F801F186E08688E090E0D5DB7C01F80116
:101700002085318544E058E065E371E0AEDBF80107
:10171000F782E68288E090E0C6DB7C01F801268152
:10172000378147EF5EE066E471E09FDBF801F58208
:10173000E48288E090E0B7DB7C01F8012481358108
:1017400044EE57E067E571E090DBF801F382E28256
:1017500088E090E0A8DB7C01F8012281338141E937
:101760005DE068E671E081DBF801F182E082B701BB
:101770008285938590DB8CE090E095DB4C01F8014D
:1017800000811181209177053091780596E7E92E47
:1017900095E0F92E43E350E066E075E0C40100DB1C
:1017A00090924F0580924E0548E050E060E070E076
:1017B00089E895E00E94DF131A82198242E050E026
:1017C00069E070E0CE010196FAD789819A81847828
:1017D000992790937405809373052C960FB6F8940F
:1017E000DEBF0FBECDBFDF91CF911F910F91FF9054
:1017F000EF90DF90CF90BF909F908F9008951F92B1
:101800000F920FB60F9211242F933F934F935F9334
:101810006F937F938F939F93AF93BF93EF93FF93B8
:10182000809175058F5F80937505803408F440C002
:1018300010927505809176058F5F80937605809173
:101840005D0590915E05A0915F05B09160050196E0
:10185000A11DB11D80935D0590935E05A0935F056A
:10186000B093600580915C05882329F080915C0528
:10187000815080935C0581E995E00E94730081E9C5
:1018800095E00E94460281110AC081E995E00E941C
:101890003A02811104C081E995E00E942E028091F4
:1018A000730590917405816090937405809373051E
:1018B000FF91EF91BF91AF919F918F917F916F9128
:1018C0005F914F913F912F910F900FBE0F901F90FE
:1018D00018951F920F920FB60F9211242F933F93DA
:1018E0004F935F936F937F938F939F93AF93BF9328
:1018F000EF93FF938BB78F7B8BBF80917305909194
:10190000740581FF7DC070916305609164055091FD
:1019100065054091660530916705209168059091B5
:10192000690580916A0570936B0560936C0550930F
:101930006D0540936E0530936F052093700590936D
:1019400071058093720510926305109264051092E0
:101950006505109266051092670510926805109251
:10196000690510926A0580917305909174058D7FC9
:10197000909374058093730585B7836085BF8091CC
:10198000730590917405806490937405809373053A
:1019900020916B0530916C0540916D0550916E055D
:1019A00060916F057091700580917105909172053D
:1019B0002A3F3105410551056105710581059105F4
:1019C00009F008F450C0809161058B33B1F4809127
:1019D00073059091740580629093740580937305EC
:1019E00061E089E795E00E941C041092750512BE23
:1019F00060E081E995E00E9403021092610533C026
:101A000080916305909164059091650590916605BC
:101A100090916705909168059091690590916A058C
:101A20008093620580916205609161058F3110F0AD
:101A300041E001C040E089E795E00E949C0380916D
:101A400061058F5F809361058091730590917405A6
:101A50008260909374058093730585B7826085BF1B
:101A600085B78E7F85BF8BB780648BBFFF91EF9169
:101A7000BF91AF919F918F917F916F915F914F91A6
:101A80003F912F910F900FBE0F901F9018951F92AE
:101A90000F920FB60F9211242F933F934F935F93A2
:101AA0006F937F938F939F93AF93209163053091B2
:101AB00064054091650550916605609167057091D8
:101AC00068058091690590916A05A1E048D320934B
:101AD00063053093640540936505509366056093F4
:101AE0006705709368058093690590936A05AF91C7
:101AF0009F918F917F916F915F914F913F912F9126
:101B00000F900FBE0F901F90189581E995E00E94ED
:101B1000620089E895E00E94620089E795E00C94F4
:101B20008903EF92FF920F931F93CF93DF93CDB76B
:101B3000DEB72B970FB6F894DEBF0FBECDBFCE0138
:101B400001960E94620081E995E00E944602682F9A
:101B5000CE0101960E94270281E995E00E943A0297
:101B6000682FCE0101960E94140281E995E00E943F
:101B70002E02682FCE0101960E94030261E080913F
:101B8000770590917805F4D861E080917705909180
:101B90007805F9D842E064E0809177059091780566
:101BA000A4D861E0CE0101960E944A02BC01809156
:101BB0007705909178050E94D60542E064E0809117
:101BC00077059091780591D829E7E22E21E0F22E51
:101BD0008E01075F1F4FCE0101960E9446021F92A1
:101BE0008F93FF92EF921F930F9306D4B8018091C9
:101BF0007705909178050E94D60542E064E08091D7
:101C000077059091780571D80F900F900F900F90F5
:101C10000F900F9066E083E390E049D9882399F014
:101C2000CE0101960E944602873111F460E006C0A1
:101C3000CE0101960E94460261E0680FCE01019636
:101C40000E942702C8CF65E083E390E030D9882363
:101C500009F399E7E92E91E0F92E42E067E08091DF
:101C600077059091780541D8CE0101960E943A02FD
:101C70001F928F93FF92EF921F930F93BDD3B801E2
:101C800080917705909178050E94D60542E067E043
:101C9000809177059091780528D80F900F900F903C
:101CA0000F900F900F9066E083E390E000D98823B7
:101CB00099F0CE0101960E943A028B3311F460E054
:101CC00006C0CE0101960E943A0261E0680FCE0183
:101CD00001960E941402C1CF65E083E390E0E7D84B
:101CE000882309F389E7E82E81E0F82E42E06AE0D4
:101CF00080917705909178050E947506CE01019636
:101D00000E942E021F928F93FF92EF921F930F93C8
:101D100073D3B80180917705909178050E94D6051C
:101D200042E06AE080917705909178050E947506FF
:101D30000F900F900F900F900F900F9066E083E33D
:101D400090E0B5D8882399F0CE0101960E942E022A
:101D50008B3311F460E006C0CE0101960E942E0282
:101D600061E0680FCE0101960E940302BFCF65E0DB
:101D700083E390E09CD8882309F3CE0101960E946A
:101D80004602682F81E995E00E942702CE01019664
:101D90000E943A02682F81E995E00E941402CE0168
:101DA00001960E942E02682F81E995E00E940302AD
:101DB00060E080917705909178050E94B80660E018
:101DC00080917705909178050E94C306CE01019617
:101DD0000E9460002B960FB6F894DEBF0FBECDBFF9
:101DE000DF91CF911F910F91FF90EF900895EF92A7
:101DF000FF920F931F93CF93DF93CDB7DEB72B974F
:101E00000FB6F894DEBF0FBECDBFCE0101960E9483
:101E1000620089E895E00E944602682FCE01019693
:101E20000E94270289E895E00E943A02682FCE01BD
:101E300001960E94140289E895E00E942E02682F04
:101E4000CE0101960E94030261E080917705909196
:101E500078050E94B80661E0809177059091780539
:101E60000E94C30642E064E0809177059091780576
:101E70000E94750661E0CE0101960E944A02BC01F3
:101E800080917705909178050E94D60542E064E044
:101E900080917705909178050E94750629E7E22EDA
:101EA00021E0F22E8E01075F1F4FCE0101960E94A6
:101EB00046021F928F93FF92EF921F930F939CD233
:101EC000B80180917705909178050E94D60542E08F
:101ED00064E080917705909178050E9475060F90D7
:101EE0000F900F900F900F900F9066E083E390E0BB
:101EF0000E945707882399F0CE0101960E9446025E
:101F0000873111F460E006C0CE0101960E944602BE
:101F100061E0680FCE0101960E942702C6CF65E0FE
:101F200083E390E00E9457078823F9F299E7E92EAE
:101F300091E0F92E42E067E0809177059091780575
:101F40000E947506CE0101960E943A021F928F935D
:101F5000FF92EF921F930F934FD2B80180917705B4
:101F6000909178050E94D60542E067E08091770560
:101F7000909178050E9475060F900F900F900F902A
:101F80000F900F9066E083E390E00E94570788234C
:101F900099F0CE0101960E943A028B3311F460E071
:101FA00006C0CE0101960E943A0261E0680FCE01A0
:101FB00001960E941402BECF65E083E390E00E9488
:101FC00057078823F9F289E7E82E81E0F82E42E0EE
:101FD0006AE080917705909178050E947506CE01A0
:101FE00001960E942E021F928F93FF92EF921F93F1
:101FF0000F9302D2B80180917705909178050E94E5
:10200000D60542E06AE080917705909178050E94BC
:1020100075060F900F900F900F900F900F9066E045
:1020200083E390E00E945707882399F0CE01019640
:102030000E942E028B3311F460E006C0CE0101969F
:102040000E942E0261E0680FCE0101960E940302F9
:10205000BECF65E083E390E00E9457078823F9F242
:10206000CE0101960E944602682F89E895E00E9401
:102070002702CE0101960E943A02682F89E895E076
:102080000E941402CE0101960E942E02682F89E858
:1020900095E00E94030248E050E060E070E089E8CB
:1020A00095E09DD360E080917705909178050E943E
:1020B000B80660E080917705909178050E94C3068C
:1020C000CE0101960E9460002B960FB6F894DEBFF9
:1020D0000FBECDBFDF91CF911F910F91FF90EF9079
:1020E000089589E795E00E947B0389E895E00E94C6
:1020F000600081E995E00C94600097FB072E16F4D0
:10210000009406D077FD08D036D007FC05D03EF409
:10211000909581959F4F0895709561957F4F089593
:10212000EE0FFF1F0590F491E02D09940F930830F6
:1021300090F0982F872F762F652F542F432F322F13
:1021400022270850F4CF220F331F441F551F661F4C
:10215000771F881F991F0A95B2F70F9108950024E1
:10216000A7FD00942A0F301D401D501D601D701DDD
:10217000801D901D0895AA1BBB1B51E107C0AA1F1B
:10218000BB1FA617B70710F0A61BB70B881F991F18
:102190005A95A9F780959095BC01CD010895CF93EC
:1021A000DF938230910510F482E090E0E0919B058E
:1021B000F0919C0520E030E0C0E0D0E0309711F1D4
:1021C0004081518148175907C0F04817590761F4F9
:1021D00082819381209719F09B838A832BC09093EF
:1021E0009C0580939B0526C02115310519F04217E7
:1021F000530718F49A01BE01DF01EF010280F38159
:10220000E02DDCCF2115310509F1281B390B2430D5
:10221000310590F412968D919C911397611571057B
:1022200021F0FB019383828304C090939C058093EB
:102230009B05FD01329644C0FD01E20FF31F81931F
:102240009193225031092D933C933AC020919905E6
:1022500030919A05232B41F4209162003091630064
:1022600030939A0520939905209160003091610088
:102270002115310541F42DB73EB7409164005091CE
:102280006500241B350BE0919905F0919A05E21742
:10229000F307A0F42E1B3F0B2817390778F0AC0189
:1022A0004E5F5F4F2417350748F04E0F5F1F509366
:1022B0009A05409399058193919302C0E0E0F0E084
:1022C000CF01DF91CF9108950F931F93CF93DF93A9
:1022D000009709F48CC0FC0132971382128200919E
:1022E0009B0510919C050115110581F42081318118
:1022F000820F931F2091990530919A05281739076D
:1023000079F5F0939A05E093990571C0D80140E002
:1023100050E0AE17BF0750F412962D913C911397E1
:10232000AD012115310509F1D901F3CF9D01DA0184
:102330003383228360817181860F971F82179307F1
:1023400069F4EC0128813981260F371F2E5F3F4F3A
:10235000318320838A819B8193838283452B29F457
:10236000F0939C05E0939B0542C01396FC93EE937B
:102370001297ED01499159919E01240F351FE217E3
:10238000F30771F480819181840F951F0296119655
:102390009C938E938281938113969C938E93129734
:1023A000E0E0F0E0D80112968D919C911397009790
:1023B00019F0F8018C01F6CF8D919C9198012E5F58
:1023C0003F4F820F931F2091990530919A0528174E
:1023D000390769F4309729F410929C0510929B05F7
:1023E00002C01382128210939A0500939905DF911F
:1023F000CF911F910F910895AEE0B0E0E1E0F2E1DE
:10240000BEC20D891E8986E08C831A8309838FEFF3
:102410009FE79E838D83AE01475E5F4F6F89788D06
:10242000CE01019609D02F813885F801E20FF31F04
:1024300010822E96E4E0BFC2ACE0B0E0E1E2F2E14F
:1024400090C27C016B018A01FC0117821682838194
:1024500081FFB0C1CE0101964C01F7019381F601D5
:1024600093FD859193FF81916F01882309F49EC1AB
:10247000853239F493FD859193FF81916F01853207
:1024800021F4B70190E0D7D1E8CF512C312C20E0D6
:102490002032A0F48B3269F030F4803259F083326C
:1024A00069F420612CC08D3239F0803339F4216019
:1024B00026C02260246023C0286021C027FD27C0D9
:1024C00030ED380F3A3078F426FF06C0FAE05F9E10
:1024D000300D1124532E13C08AE0389E300D112484
:1024E000332E20620CC08E3221F426FD5FC12064A1
:1024F00006C08C3611F4206802C0883641F4F6011B
:1025000093FD859193FF81916F018111C1CF982F28
:102510009F7D9554933028F40C5F1F4FFFE3F983A0
:102520000DC0833631F0833771F0833509F057C021
:1025300021C0F801808189830E5F1F4F442443949A
:10254000512C540114C03801F2E06F0E711CF801D7
:10255000A080B18026FF03C0652D70E002C06FEF40
:102560007FEFC5012C875CD12C0183012C852F774F
:10257000222E16C03801F2E06F0E711CF801A08007
:10258000B18026FF03C0652D70E002C06FEF7FEFC2
:10259000C5012C873AD12C012C852068222E83017D
:1025A00023FC19C0832D90E048165906A0F4B7010A
:1025B00080E290E040D13A94F5CFF50127FC859177
:1025C00027FE81915F01B70190E035D131103A9437
:1025D000F1E04F1A51084114510479F7DEC08436F6
:1025E00011F0893631F5F80127FF07C0608171814C
:1025F000828193810C5F1F4F08C0608171818827A1
:1026000077FD8095982F0E5F1F4F2F76722E97FFC4
:1026100009C090958095709561957F4F8F4F9F4F22
:102620002068722E2AE030E0A4013DD1A82EA8181F
:1026300043C0853729F42F7EB22E2AE030E025C032
:10264000F22FF97FBF2E8F36C1F018F4883579F05C
:10265000ADC0803719F0883721F0A8C02F2F206136
:10266000B22EB4FE0DC08B2D8460B82E09C024FF9D
:102670000AC09F2F9660B92E06C028E030E005C042
:1026800020E130E002C020E132E0F801B7FE07C0EF
:1026900060817181828193810C5F1F4F06C06081D0
:1026A000718180E090E00E5F1F4FA401FCD0A82E46
:1026B000A818FB2DFF777F2E76FE0BC0372D3E7FAF
:1026C000A51450F474FE0AC072FC08C0372D3E7E7B
:1026D00005C0BA2C372D03C0BA2C01C0B52C34FF6D
:1026E0000DC0FE01EA0DF11D8081803311F4397EA9
:1026F00009C032FF06C0B394B39404C0832F867818
:1027000009F0B39433FD12C030FF06C05A2CB31445
:1027100018F4530C5B18B32CB31460F4B70180E2C7
:1027200090E03C8788D0B3943C85F6CFB31410F486
:102730003B1801C0312C34FF11C0B70180E390E099
:102740003C8779D03C8532FF16C031FD03C088E755
:1027500090E002C088E590E0B7010CC0832F867836
:1027600051F031FF02C08BE201C080E237FD8DE203
:10277000B70190E060D0A51430F4B70180E390E099
:102780005AD05A94F8CFAA94F401EA0DF11D808131
:10279000B70190E050D0A110F6CF332009F45DCE00
:1027A000B70180E290E047D03A94F7CFF7018681F5
:1027B000978102C08FEF9FEF2C96E2E1EEC0DC0123
:1027C000CB01FC01E199FECF06C0FFBBEEBBE09A56
:1027D00031960DB20D9241505040B8F70895DC018A
:1027E000CB0102C02D9105D041505040D8F708953B
:1027F000262FE199FECF9FBB8EBB2DBB0FB6F89461
:10280000E29AE19A0FBE01960895FC01059061508D
:1028100070400110D8F7809590958E0F9F1F0895F6
:10282000FC016150704001900110D8F7809590959F
:102830008E0F9F1F08950F931F93CF93DF93FB017C
:10284000238121FD03C08FEF9FEF28C022FF16C018
:1028500046815781248135814217530744F4A08172
:10286000B1819D012F5F3F4F318320838C9326815F
:1028700037812F5F3F4F3783268310C0EB01092F2D
:10288000182F0084F185E02D0995892BE1F68E81C2
:102890009F8101969F838E83812F902FDF91CF910F
:1028A0001F910F910895FA01AA27283051F1203184
:1028B00081F1E8946F936E7F6E5F7F4F8F4F9F4FD4
:1028C000AF4FB1E03ED0B4E03CD0670F781F891F16
:1028D0009A1FA11D680F791F8A1F911DA11D6A0FE4
:1028E000711D811D911DA11D20D009F468943F9197
:1028F0002AE0269F11243019305D3193DEF6CF0196
:102900000895462F4770405D4193B3E00FD0C9F75B
:10291000F6CF462F4F70405D4A3318F0495D31FDC8
:102920004052419302D0A9F7EACFB4E0A69597951B
:10293000879577956795BA95C9F7009761057105F1
:1029400008959B01AC010A2E06945795479537953B
:102950002795BA95C9F7620F731F841F951FA01D95
:1029600008952F923F924F925F926F927F928F9233
:102970009F92AF92BF92CF92DF92EF92FF920F930E
:102980001F93CF93DF93CDB7DEB7CA1BDB0B0FB618
:10299000F894DEBF0FBECDBF09942A8839884888D5
:1029A0005F846E847D848C849B84AA84B984C8846B
:1029B000DF80EE80FD800C811B81AA81B981CE0F62
:1029C000D11D0FB6F894DEBF0FBECDBFED01089547
:1029D00010E0C7E3D0E003C0FE01A2DB2196C833BC
:0829E000D107D1F7F894FFCFF5
:1029E80000009D05200001AF00B200B500B800BB93
:1029F80000BE00C100252E326C753A252E326C754A
:102A08003A252E326C75002573202D202530326C26
:102A1800752E2530326C752E2530346C7500257373
:102A2800202D202530326C752E2530326C75004DE6
:102A38006F004469004D6900446F0046720053619D
:102A480000536F00000000006000610000000000FB
:102A58007B038103000000000D050E0544727563B9
:102A68006B0000000000CE06CF0600000000330710
:102A780034074F6E20004F6666005365742044612A
:102A880074650053657420536E6F6F7A65205469BE
:102A98006D65002A2A2044434620616E2F617573B4
:102AA800202A2A002A2A20536E6F6F7A65205A65D9
:102AB8006974202A002A20416C61726D20616E2F92
:102AC800617573202A002A2A2A205765636B7A6564
:102AD8006974202A2A2A002A2A2A2A2A2044617468
:102AE800756D202A2A2A2A002A2A2A2A2A205A6583
:102AF8006974202A2A2A2A2A00252E32640098007E
:102B080099009A009A009B009C009C009D009E00E2
:102B18009F009F00A000A100A200A200A300A400A3
:102B2800A500A600A600A700A800A900AA00AB005F
:102B3800AC00AC00AD00AE00AF00B000B100B20018
:102B4800B300B300B400B500B600B700B800B900D0
:102B5800BA00BB00BC00BD00BE00BF00C000C10081
:102B6800C200C300C400C500C600C700C900CA002F
:102B7800CB00CC00CD00CE00CF00D000D200D300D7
:102B8800D400D500D600D700D900DA00DB00DC007D
:102B9800DE00DF00E000E100E300E400E500E7001C
:102BA800E800E900EB00EC00ED00EF00F000F200B7
:102BB800F300F400F600F700F900FA00FC00FD004D
:102BC800FF000001020103010501070108010A01D4
:102BD8000B010D010F01100112011401150117015C
:102BE80019011B011C011E012001220123012501DD
:102BF800270129012B012D012F0131013201340157
:102C0800360138013A013C013E01400142014501CB
:102C1800470149014B014D014F0151015401560132
:102C280058015A015C015F01610163016601680195
:102C38006A016D016F0172017401770179017C01EC
:102C48007E0181018301860188018B018E0190013B
:102C58009301960199019B019E01A101A401A7017D
:102C6800A901AC01AF01B201B501B801BB01BE01B8
:102C7800C101C401C801CB01CE01D101D401D801E1
:102C8800DB01DE01E101E501E801EC01EF01F20100
:102C9800F601F901FD010102040208020B020F020C
:102CA800130217021A021E02220226022A022E020A
:102CB800320236023A023E02420246024A024E02FC
:102CC800520257025B025F02640268026D027102DF
:102CD80076027A027F02830288028D0291029602AE
:102CE8009B02A002A502A902AE02B302B802BE026C
:102CF800C302C802CD02D202D802DD02E202E80213
:102D0800ED02F302F802FE02030309030F031503A1
:102D18001A03200326032C03320338033E0344031B
:102D28004B03510357035D0364036A03710377037D
:102D38007E0385038B0392039903A003A703AE03C5
:102D4800B503BC03C303CA03D203D903E003E803F2
:102D5800EF03FF03FF03840380037C0378037403FA
:102D680070036C036803640360035C035803540333
:102D780050034C034803440340033C033803340323
:102D880030032C032803240320031C031803140313
:102D980010030C03080304030003FC02FB02F802FF
:102DA800F402F002EC02E802E402E002DC02D802DB
:102DB800D402D002CC02C802C402C002BC02B802CB
:102DC800B402B002AC02A802A402A0029C029802BB
:102DD800940290028C028802840280027C027802AB
:102DE800740270026C026802640260025C0258029B
:102DF800540250024C024802440240023C0238028B
:102E0800340230022C022802240220021C0218027A
:102E1800140210020C02080204020002FC01F8016C
:102E2800F401F001EC01E801E401E001DC01D80162
:102E3800D401D001CC01C801C401C001BC01B80152
:102E4800B401B001AC01A801A401A0019C01980142
:102E5800940190018C018801840180017C01780132
:102E68007701740170016C016801640160015C0103
:102E78005801540150014C014801440140013C01F2
:102E88003801340130012C0100040A0A0A1F040029
:102E9800000A040A04040E1F0000000004040E1FA8
:082EA80000040A0004040E1FDF
:00000001FF
